{
  "abi": [
    {
      "inputs": [
        {
          "internalType": "uint256",
          "name": "minimum",
          "type": "uint256"
        },
        {
          "internalType": "address",
          "name": "creator",
          "type": "address"
        }
      ],
      "stateMutability": "nonpayable",
      "type": "constructor"
    },
    {
      "inputs": [
        {
          "internalType": "uint256",
          "name": "index",
          "type": "uint256"
        }
      ],
      "name": "approvalRequest",
      "outputs": [],
      "stateMutability": "nonpayable",
      "type": "function"
    },
    {
      "inputs": [
        {
          "internalType": "string",
          "name": "description",
          "type": "string"
        },
        {
          "internalType": "uint256",
          "name": "value",
          "type": "uint256"
        },
        {
          "internalType": "address payable",
          "name": "recipient",
          "type": "address"
        }
      ],
      "name": "createRequest",
      "outputs": [],
      "stateMutability": "payable",
      "type": "function"
    },
    {
      "inputs": [
        {
          "internalType": "address",
          "name": "",
          "type": "address"
        }
      ],
      "name": "detailCampaign",
      "outputs": [
        {
          "internalType": "string",
          "name": "campaignName",
          "type": "string"
        },
        {
          "internalType": "string",
          "name": "summaryCampaign",
          "type": "string"
        }
      ],
      "stateMutability": "view",
      "type": "function"
    },
    {
      "inputs": [],
      "name": "donate",
      "outputs": [],
      "stateMutability": "payable",
      "type": "function"
    },
    {
      "inputs": [
        {
          "internalType": "address",
          "name": "",
          "type": "address"
        }
      ],
      "name": "donater",
      "outputs": [
        {
          "internalType": "bool",
          "name": "",
          "type": "bool"
        }
      ],
      "stateMutability": "view",
      "type": "function"
    },
    {
      "inputs": [],
      "name": "donaterCount",
      "outputs": [
        {
          "internalType": "uint256",
          "name": "",
          "type": "uint256"
        }
      ],
      "stateMutability": "view",
      "type": "function"
    },
    {
      "inputs": [
        {
          "internalType": "uint256",
          "name": "index",
          "type": "uint256"
        }
      ],
      "name": "finaliseRequest",
      "outputs": [],
      "stateMutability": "payable",
      "type": "function"
    },
    {
      "inputs": [
        {
          "internalType": "address",
          "name": "addr",
          "type": "address"
        }
      ],
      "name": "getDetail",
      "outputs": [
        {
          "internalType": "string",
          "name": "",
          "type": "string"
        },
        {
          "internalType": "string",
          "name": "",
          "type": "string"
        }
      ],
      "stateMutability": "view",
      "type": "function"
    },
    {
      "inputs": [
        {
          "internalType": "address",
          "name": "addr",
          "type": "address"
        }
      ],
      "name": "getOrganiser",
      "outputs": [
        {
          "internalType": "string",
          "name": "",
          "type": "string"
        },
        {
          "internalType": "string",
          "name": "",
          "type": "string"
        },
        {
          "internalType": "string",
          "name": "",
          "type": "string"
        },
        {
          "internalType": "string",
          "name": "",
          "type": "string"
        },
        {
          "internalType": "string",
          "name": "",
          "type": "string"
        },
        {
          "internalType": "string",
          "name": "",
          "type": "string"
        }
      ],
      "stateMutability": "view",
      "type": "function"
    },
    {
      "inputs": [
        {
          "internalType": "address",
          "name": "addr",
          "type": "address"
        }
      ],
      "name": "getReference",
      "outputs": [
        {
          "internalType": "string",
          "name": "",
          "type": "string"
        },
        {
          "internalType": "string",
          "name": "",
          "type": "string"
        },
        {
          "internalType": "string",
          "name": "",
          "type": "string"
        },
        {
          "internalType": "string",
          "name": "",
          "type": "string"
        },
        {
          "internalType": "string",
          "name": "",
          "type": "string"
        }
      ],
      "stateMutability": "view",
      "type": "function"
    },
    {
      "inputs": [],
      "name": "getSummary",
      "outputs": [
        {
          "internalType": "uint256",
          "name": "",
          "type": "uint256"
        },
        {
          "internalType": "uint256",
          "name": "",
          "type": "uint256"
        },
        {
          "internalType": "uint256",
          "name": "",
          "type": "uint256"
        },
        {
          "internalType": "address",
          "name": "",
          "type": "address"
        }
      ],
      "stateMutability": "view",
      "type": "function"
    },
    {
      "inputs": [
        {
          "internalType": "address",
          "name": "",
          "type": "address"
        }
      ],
      "name": "infoOrganiser",
      "outputs": [
        {
          "internalType": "string",
          "name": "name",
          "type": "string"
        },
        {
          "internalType": "string",
          "name": "agencyName",
          "type": "string"
        },
        {
          "internalType": "string",
          "name": "phoneNumbers",
          "type": "string"
        },
        {
          "internalType": "string",
          "name": "addr",
          "type": "string"
        },
        {
          "internalType": "string",
          "name": "email",
          "type": "string"
        },
        {
          "internalType": "string",
          "name": "linkSocialmedia",
          "type": "string"
        }
      ],
      "stateMutability": "view",
      "type": "function"
    },
    {
      "inputs": [
        {
          "internalType": "address",
          "name": "",
          "type": "address"
        }
      ],
      "name": "infoReference",
      "outputs": [
        {
          "internalType": "string",
          "name": "name",
          "type": "string"
        },
        {
          "internalType": "string",
          "name": "phoneNumbers",
          "type": "string"
        },
        {
          "internalType": "string",
          "name": "addr",
          "type": "string"
        },
        {
          "internalType": "string",
          "name": "email",
          "type": "string"
        },
        {
          "internalType": "string",
          "name": "linkSocialmedia",
          "type": "string"
        }
      ],
      "stateMutability": "view",
      "type": "function"
    },
    {
      "inputs": [],
      "name": "minimumDonation",
      "outputs": [
        {
          "internalType": "uint256",
          "name": "",
          "type": "uint256"
        }
      ],
      "stateMutability": "view",
      "type": "function"
    },
    {
      "inputs": [],
      "name": "organiser",
      "outputs": [
        {
          "internalType": "address",
          "name": "",
          "type": "address"
        }
      ],
      "stateMutability": "view",
      "type": "function"
    },
    {
      "inputs": [
        {
          "internalType": "uint256",
          "name": "",
          "type": "uint256"
        }
      ],
      "name": "requests",
      "outputs": [
        {
          "internalType": "string",
          "name": "description",
          "type": "string"
        },
        {
          "internalType": "uint256",
          "name": "value",
          "type": "uint256"
        },
        {
          "internalType": "address payable",
          "name": "recipient",
          "type": "address"
        },
        {
          "internalType": "bool",
          "name": "complete",
          "type": "bool"
        },
        {
          "internalType": "uint256",
          "name": "approvalCount",
          "type": "uint256"
        }
      ],
      "stateMutability": "view",
      "type": "function"
    },
    {
      "inputs": [
        {
          "internalType": "string",
          "name": "_campaignName",
          "type": "string"
        },
        {
          "internalType": "string",
          "name": "_summaryCampaign",
          "type": "string"
        }
      ],
      "name": "setDetail",
      "outputs": [],
      "stateMutability": "nonpayable",
      "type": "function"
    },
    {
      "inputs": [
        {
          "internalType": "string",
          "name": "_name",
          "type": "string"
        },
        {
          "internalType": "string",
          "name": "_agencyName",
          "type": "string"
        },
        {
          "internalType": "string",
          "name": "_phoneNumbers",
          "type": "string"
        },
        {
          "internalType": "string",
          "name": "_addr",
          "type": "string"
        },
        {
          "internalType": "string",
          "name": "_email",
          "type": "string"
        },
        {
          "internalType": "string",
          "name": "_linkSocialmedia",
          "type": "string"
        }
      ],
      "name": "setOrganiser",
      "outputs": [],
      "stateMutability": "nonpayable",
      "type": "function"
    },
    {
      "inputs": [
        {
          "internalType": "string",
          "name": "_name",
          "type": "string"
        },
        {
          "internalType": "string",
          "name": "_phoneNumbers",
          "type": "string"
        },
        {
          "internalType": "string",
          "name": "_addr",
          "type": "string"
        },
        {
          "internalType": "string",
          "name": "_email",
          "type": "string"
        },
        {
          "internalType": "string",
          "name": "_linkSocialmedia",
          "type": "string"
        }
      ],
      "name": "setReference",
      "outputs": [],
      "stateMutability": "nonpayable",
      "type": "function"
    },
    {
      "inputs": [
        {
          "internalType": "uint256",
          "name": "target",
          "type": "uint256"
        }
      ],
      "name": "setTargetdonation",
      "outputs": [],
      "stateMutability": "nonpayable",
      "type": "function"
    },
    {
      "inputs": [],
      "name": "targetDonation",
      "outputs": [
        {
          "internalType": "uint256",
          "name": "",
          "type": "uint256"
        }
      ],
      "stateMutability": "view",
      "type": "function"
    }
  ],
  "devdoc": {
    "kind": "dev",
    "methods": {},
    "version": 1
  },
  "evm": {
    "assembly": "    /* \"Campaign.sol\":515:5055  contract Campaign {... */\n  mstore(0x40, 0x80)\n    /* \"Campaign.sol\":1698:1699  0 */\n  0x00\n    /* \"Campaign.sol\":1670:1699  uint private requestCount = 0 */\n  0x09\n  sstore\n    /* \"Campaign.sol\":1790:1900  constructor (uint minimum, address creator) {... */\n  callvalue\n  dup1\n  iszero\n  tag_1\n  jumpi\n  0x00\n  dup1\n  revert\ntag_1:\n  pop\n  mload(0x40)\n  sub(codesize, bytecodeSize)\n  dup1\n  bytecodeSize\n  dup4\n  codecopy\n  dup2\n  dup2\n  add\n  0x40\n  mstore\n  dup2\n  add\n  swap1\n  tag_2\n  swap2\n  swap1\n  tag_3\n  jump\t// in\ntag_2:\n    /* \"Campaign.sol\":1855:1862  creator */\n  dup1\n    /* \"Campaign.sol\":1843:1852  organiser */\n  0x00\n  dup1\n    /* \"Campaign.sol\":1843:1862  organiser = creator */\n  0x0100\n  exp\n  dup2\n  sload\n  dup2\n  0xffffffffffffffffffffffffffffffffffffffff\n  mul\n  not\n  and\n  swap1\n  dup4\n  0xffffffffffffffffffffffffffffffffffffffff\n  and\n  mul\n  or\n  swap1\n  sstore\n  pop\n    /* \"Campaign.sol\":1887:1894  minimum */\n  dup2\n    /* \"Campaign.sol\":1871:1886  minimumDonation */\n  0x02\n    /* \"Campaign.sol\":1871:1894  minimumDonation=minimum */\n  dup2\n  swap1\n  sstore\n  pop\n    /* \"Campaign.sol\":1790:1900  constructor (uint minimum, address creator) {... */\n  pop\n  pop\n    /* \"Campaign.sol\":515:5055  contract Campaign {... */\n  jump(tag_6)\n    /* \"#utility.yul\":7:150   */\ntag_8:\n  0x00\n    /* \"#utility.yul\":95:101   */\n  dup2\n    /* \"#utility.yul\":89:102   */\n  mload\n    /* \"#utility.yul\":80:102   */\n  swap1\n  pop\n    /* \"#utility.yul\":111:144   */\n  tag_10\n    /* \"#utility.yul\":138:143   */\n  dup2\n    /* \"#utility.yul\":111:144   */\n  tag_11\n  jump\t// in\ntag_10:\n    /* \"#utility.yul\":70:150   */\n  swap3\n  swap2\n  pop\n  pop\n  jump\t// out\n    /* \"#utility.yul\":156:299   */\ntag_12:\n  0x00\n    /* \"#utility.yul\":244:250   */\n  dup2\n    /* \"#utility.yul\":238:251   */\n  mload\n    /* \"#utility.yul\":229:251   */\n  swap1\n  pop\n    /* \"#utility.yul\":260:293   */\n  tag_14\n    /* \"#utility.yul\":287:292   */\n  dup2\n    /* \"#utility.yul\":260:293   */\n  tag_15\n  jump\t// in\ntag_14:\n    /* \"#utility.yul\":219:299   */\n  swap3\n  swap2\n  pop\n  pop\n  jump\t// out\n    /* \"#utility.yul\":305:745   */\ntag_3:\n  0x00\n  dup1\n    /* \"#utility.yul\":441:443   */\n  0x40\n    /* \"#utility.yul\":429:438   */\n  dup4\n    /* \"#utility.yul\":420:427   */\n  dup6\n    /* \"#utility.yul\":416:439   */\n  sub\n    /* \"#utility.yul\":412:444   */\n  slt\n    /* \"#utility.yul\":409:411   */\n  iszero\n  tag_17\n  jumpi\n    /* \"#utility.yul\":457:458   */\n  0x00\n    /* \"#utility.yul\":454:455   */\n  dup1\n    /* \"#utility.yul\":447:459   */\n  revert\n    /* \"#utility.yul\":409:411   */\ntag_17:\n    /* \"#utility.yul\":500:501   */\n  0x00\n    /* \"#utility.yul\":525:589   */\n  tag_18\n    /* \"#utility.yul\":581:588   */\n  dup6\n    /* \"#utility.yul\":572:578   */\n  dup3\n    /* \"#utility.yul\":561:570   */\n  dup7\n    /* \"#utility.yul\":557:579   */\n  add\n    /* \"#utility.yul\":525:589   */\n  tag_12\n  jump\t// in\ntag_18:\n    /* \"#utility.yul\":515:589   */\n  swap3\n  pop\n    /* \"#utility.yul\":471:599   */\n  pop\n    /* \"#utility.yul\":638:640   */\n  0x20\n    /* \"#utility.yul\":664:728   */\n  tag_19\n    /* \"#utility.yul\":720:727   */\n  dup6\n    /* \"#utility.yul\":711:717   */\n  dup3\n    /* \"#utility.yul\":700:709   */\n  dup7\n    /* \"#utility.yul\":696:718   */\n  add\n    /* \"#utility.yul\":664:728   */\n  tag_8\n  jump\t// in\ntag_19:\n    /* \"#utility.yul\":654:728   */\n  swap2\n  pop\n    /* \"#utility.yul\":609:738   */\n  pop\n    /* \"#utility.yul\":399:745   */\n  swap3\n  pop\n  swap3\n  swap1\n  pop\n  jump\t// out\n    /* \"#utility.yul\":751:847   */\ntag_20:\n  0x00\n    /* \"#utility.yul\":817:841   */\n  tag_22\n    /* \"#utility.yul\":835:840   */\n  dup3\n    /* \"#utility.yul\":817:841   */\n  tag_23\n  jump\t// in\ntag_22:\n    /* \"#utility.yul\":806:841   */\n  swap1\n  pop\n    /* \"#utility.yul\":796:847   */\n  swap2\n  swap1\n  pop\n  jump\t// out\n    /* \"#utility.yul\":853:979   */\ntag_23:\n  0x00\n    /* \"#utility.yul\":930:972   */\n  0xffffffffffffffffffffffffffffffffffffffff\n    /* \"#utility.yul\":923:928   */\n  dup3\n    /* \"#utility.yul\":919:973   */\n  and\n    /* \"#utility.yul\":908:973   */\n  swap1\n  pop\n    /* \"#utility.yul\":898:979   */\n  swap2\n  swap1\n  pop\n  jump\t// out\n    /* \"#utility.yul\":985:1062   */\ntag_25:\n  0x00\n    /* \"#utility.yul\":1051:1056   */\n  dup2\n    /* \"#utility.yul\":1040:1056   */\n  swap1\n  pop\n    /* \"#utility.yul\":1030:1062   */\n  swap2\n  swap1\n  pop\n  jump\t// out\n    /* \"#utility.yul\":1068:1190   */\ntag_11:\n    /* \"#utility.yul\":1141:1165   */\n  tag_28\n    /* \"#utility.yul\":1159:1164   */\n  dup2\n    /* \"#utility.yul\":1141:1165   */\n  tag_20\n  jump\t// in\ntag_28:\n    /* \"#utility.yul\":1134:1139   */\n  dup2\n    /* \"#utility.yul\":1131:1166   */\n  eq\n    /* \"#utility.yul\":1121:1123   */\n  tag_29\n  jumpi\n    /* \"#utility.yul\":1180:1181   */\n  0x00\n    /* \"#utility.yul\":1177:1178   */\n  dup1\n    /* \"#utility.yul\":1170:1182   */\n  revert\n    /* \"#utility.yul\":1121:1123   */\ntag_29:\n    /* \"#utility.yul\":1111:1190   */\n  pop\n  jump\t// out\n    /* \"#utility.yul\":1196:1318   */\ntag_15:\n    /* \"#utility.yul\":1269:1293   */\n  tag_31\n    /* \"#utility.yul\":1287:1292   */\n  dup2\n    /* \"#utility.yul\":1269:1293   */\n  tag_25\n  jump\t// in\ntag_31:\n    /* \"#utility.yul\":1262:1267   */\n  dup2\n    /* \"#utility.yul\":1259:1294   */\n  eq\n    /* \"#utility.yul\":1249:1251   */\n  tag_32\n  jumpi\n    /* \"#utility.yul\":1308:1309   */\n  0x00\n    /* \"#utility.yul\":1305:1306   */\n  dup1\n    /* \"#utility.yul\":1298:1310   */\n  revert\n    /* \"#utility.yul\":1249:1251   */\ntag_32:\n    /* \"#utility.yul\":1239:1318   */\n  pop\n  jump\t// out\n    /* \"Campaign.sol\":515:5055  contract Campaign {... */\ntag_6:\n  dataSize(sub_0)\n  dup1\n  dataOffset(sub_0)\n  0x00\n  codecopy\n  0x00\n  return\nstop\n\nsub_0: assembly {\n        /* \"Campaign.sol\":515:5055  contract Campaign {... */\n      mstore(0x40, 0x80)\n      jumpi(tag_1, lt(calldatasize, 0x04))\n      shr(0xe0, calldataload(0x00))\n      dup1\n      0x96d8f4f3\n      gt\n      tag_23\n      jumpi\n      dup1\n      0xc216c95c\n      gt\n      tag_24\n      jumpi\n      dup1\n      0xc216c95c\n      eq\n      tag_17\n      jumpi\n      dup1\n      0xc4ed0776\n      eq\n      tag_18\n      jumpi\n      dup1\n      0xc7137e5c\n      eq\n      tag_19\n      jumpi\n      dup1\n      0xd2ef23ad\n      eq\n      tag_20\n      jumpi\n      dup1\n      0xe7b668b4\n      eq\n      tag_21\n      jumpi\n      dup1\n      0xed88c68e\n      eq\n      tag_22\n      jumpi\n      jump(tag_1)\n    tag_24:\n      dup1\n      0x96d8f4f3\n      eq\n      tag_12\n      jumpi\n      dup1\n      0x9eedaf2e\n      eq\n      tag_13\n      jumpi\n      dup1\n      0xa4f46975\n      eq\n      tag_14\n      jumpi\n      dup1\n      0xa746ee2e\n      eq\n      tag_15\n      jumpi\n      dup1\n      0xbe4f6e57\n      eq\n      tag_16\n      jumpi\n      jump(tag_1)\n    tag_23:\n      dup1\n      0x4ad31cd7\n      gt\n      tag_25\n      jumpi\n      dup1\n      0x4ad31cd7\n      eq\n      tag_7\n      jumpi\n      dup1\n      0x4eebdc50\n      eq\n      tag_8\n      jumpi\n      dup1\n      0x7e537486\n      eq\n      tag_9\n      jumpi\n      dup1\n      0x81d12c58\n      eq\n      tag_10\n      jumpi\n      dup1\n      0x8a9cfd55\n      eq\n      tag_11\n      jumpi\n      jump(tag_1)\n    tag_25:\n      dup1\n      0x08a87b79\n      eq\n      tag_2\n      jumpi\n      dup1\n      0x1d7ae857\n      eq\n      tag_3\n      jumpi\n      dup1\n      0x25259983\n      eq\n      tag_4\n      jumpi\n      dup1\n      0x4051ddac\n      eq\n      tag_5\n      jumpi\n      dup1\n      0x41d57616\n      eq\n      tag_6\n      jumpi\n    tag_1:\n      0x00\n      dup1\n      revert\n        /* \"Campaign.sol\":648:677  uint256 public targetDonation */\n    tag_2:\n      callvalue\n      dup1\n      iszero\n      tag_26\n      jumpi\n      0x00\n      dup1\n      revert\n    tag_26:\n      pop\n      tag_27\n      tag_28\n      jump\t// in\n    tag_27:\n      mload(0x40)\n      tag_29\n      swap2\n      swap1\n      tag_30\n      jump\t// in\n    tag_29:\n      mload(0x40)\n      dup1\n      swap2\n      sub\n      swap1\n      return\n        /* \"Campaign.sol\":774:830  mapping (address => Inforeference) public  infoReference */\n    tag_3:\n      callvalue\n      dup1\n      iszero\n      tag_31\n      jumpi\n      0x00\n      dup1\n      revert\n    tag_31:\n      pop\n      tag_32\n      0x04\n      dup1\n      calldatasize\n      sub\n      dup2\n      add\n      swap1\n      tag_33\n      swap2\n      swap1\n      tag_34\n      jump\t// in\n    tag_33:\n      tag_35\n      jump\t// in\n    tag_32:\n      mload(0x40)\n      tag_36\n      swap6\n      swap5\n      swap4\n      swap3\n      swap2\n      swap1\n      tag_37\n      jump\t// in\n    tag_36:\n      mload(0x40)\n      dup1\n      swap2\n      sub\n      swap1\n      return\n        /* \"Campaign.sol\":3382:3561  function setDetail(string memory _campaignName, string memory _summaryCampaign) public restricted{... */\n    tag_4:\n      callvalue\n      dup1\n      iszero\n      tag_38\n      jumpi\n      0x00\n      dup1\n      revert\n    tag_38:\n      pop\n      tag_39\n      0x04\n      dup1\n      calldatasize\n      sub\n      dup2\n      add\n      swap1\n      tag_40\n      swap2\n      swap1\n      tag_41\n      jump\t// in\n    tag_40:\n      tag_42\n      jump\t// in\n    tag_39:\n      stop\n        /* \"Campaign.sol\":4818:5044  function getSummary() public view returns (... */\n    tag_5:\n      callvalue\n      dup1\n      iszero\n      tag_43\n      jumpi\n      0x00\n      dup1\n      revert\n    tag_43:\n      pop\n      tag_44\n      tag_45\n      jump\t// in\n    tag_44:\n      mload(0x40)\n      tag_46\n      swap5\n      swap4\n      swap3\n      swap2\n      swap1\n      tag_47\n      jump\t// in\n    tag_46:\n      mload(0x40)\n      dup1\n      swap2\n      sub\n      swap1\n      return\n        /* \"Campaign.sol\":3090:3375  function getReference(address addr) public view returns(string memory, string memory, string memory , string memory , string memory ){... */\n    tag_6:\n      callvalue\n      dup1\n      iszero\n      tag_48\n      jumpi\n      0x00\n      dup1\n      revert\n    tag_48:\n      pop\n      tag_49\n      0x04\n      dup1\n      calldatasize\n      sub\n      dup2\n      add\n      swap1\n      tag_50\n      swap2\n      swap1\n      tag_34\n      jump\t// in\n    tag_50:\n      tag_51\n      jump\t// in\n    tag_49:\n      mload(0x40)\n      tag_52\n      swap6\n      swap5\n      swap4\n      swap3\n      swap2\n      swap1\n      tag_37\n      jump\t// in\n    tag_52:\n      mload(0x40)\n      dup1\n      swap2\n      sub\n      swap1\n      return\n        /* \"Campaign.sol\":835:884  mapping (address => Detail) public detailCampaign */\n    tag_7:\n      callvalue\n      dup1\n      iszero\n      tag_53\n      jumpi\n      0x00\n      dup1\n      revert\n    tag_53:\n      pop\n      tag_54\n      0x04\n      dup1\n      calldatasize\n      sub\n      dup2\n      add\n      swap1\n      tag_55\n      swap2\n      swap1\n      tag_34\n      jump\t// in\n    tag_55:\n      tag_56\n      jump\t// in\n    tag_54:\n      mload(0x40)\n      tag_57\n      swap3\n      swap2\n      swap1\n      tag_58\n      jump\t// in\n    tag_57:\n      mload(0x40)\n      dup1\n      swap2\n      sub\n      swap1\n      return\n        /* \"Campaign.sol\":2175:2484  function setOrganiser(string memory _name, string memory _agencyName, string memory _phoneNumbers, string memory _addr, string memory _email, string memory _linkSocialmedia) public restricted{... */\n    tag_8:\n      callvalue\n      dup1\n      iszero\n      tag_59\n      jumpi\n      0x00\n      dup1\n      revert\n    tag_59:\n      pop\n      tag_60\n      0x04\n      dup1\n      calldatasize\n      sub\n      dup2\n      add\n      swap1\n      tag_61\n      swap2\n      swap1\n      tag_62\n      jump\t// in\n    tag_61:\n      tag_63\n      jump\t// in\n    tag_60:\n      stop\n        /* \"Campaign.sol\":539:563  address public organiser */\n    tag_9:\n      callvalue\n      dup1\n      iszero\n      tag_64\n      jumpi\n      0x00\n      dup1\n      revert\n    tag_64:\n      pop\n      tag_65\n      tag_66\n      jump\t// in\n    tag_65:\n      mload(0x40)\n      tag_67\n      swap2\n      swap1\n      tag_68\n      jump\t// in\n    tag_67:\n      mload(0x40)\n      dup1\n      swap2\n      sub\n      swap1\n      return\n        /* \"Campaign.sol\":1623:1664  mapping (uint => Request) public requests */\n    tag_10:\n      callvalue\n      dup1\n      iszero\n      tag_69\n      jumpi\n      0x00\n      dup1\n      revert\n    tag_69:\n      pop\n      tag_70\n      0x04\n      dup1\n      calldatasize\n      sub\n      dup2\n      add\n      swap1\n      tag_71\n      swap2\n      swap1\n      tag_72\n      jump\t// in\n    tag_71:\n      tag_73\n      jump\t// in\n    tag_70:\n      mload(0x40)\n      tag_74\n      swap6\n      swap5\n      swap4\n      swap3\n      swap2\n      swap1\n      tag_75\n      jump\t// in\n    tag_74:\n      mload(0x40)\n      dup1\n      swap2\n      sub\n      swap1\n      return\n        /* \"Campaign.sol\":3768:4226  function createRequest(string memory description, uint value, address payable recipient) payable public restricted {... */\n    tag_11:\n      tag_76\n      0x04\n      dup1\n      calldatasize\n      sub\n      dup2\n      add\n      swap1\n      tag_77\n      swap2\n      swap1\n      tag_78\n      jump\t// in\n    tag_77:\n      tag_79\n      jump\t// in\n    tag_76:\n      stop\n        /* \"Campaign.sol\":613:643  uint256 public minimumDonation */\n    tag_12:\n      callvalue\n      dup1\n      iszero\n      tag_80\n      jumpi\n      0x00\n      dup1\n      revert\n    tag_80:\n      pop\n      tag_81\n      tag_82\n      jump\t// in\n    tag_81:\n      mload(0x40)\n      tag_83\n      swap2\n      swap1\n      tag_30\n      jump\t// in\n    tag_83:\n      mload(0x40)\n      dup1\n      swap2\n      sub\n      swap1\n      return\n        /* \"Campaign.sol\":4232:4500  function approvalRequest(uint index) public{... */\n    tag_13:\n      callvalue\n      dup1\n      iszero\n      tag_84\n      jumpi\n      0x00\n      dup1\n      revert\n    tag_84:\n      pop\n      tag_85\n      0x04\n      dup1\n      calldatasize\n      sub\n      dup2\n      add\n      swap1\n      tag_86\n      swap2\n      swap1\n      tag_72\n      jump\t// in\n    tag_86:\n      tag_87\n      jump\t// in\n    tag_85:\n      stop\n        /* \"Campaign.sol\":2489:2807  function getOrganiser(address addr) public view returns(string memory, string memory, string memory , string memory , string memory , string memory ){... */\n    tag_14:\n      callvalue\n      dup1\n      iszero\n      tag_88\n      jumpi\n      0x00\n      dup1\n      revert\n    tag_88:\n      pop\n      tag_89\n      0x04\n      dup1\n      calldatasize\n      sub\n      dup2\n      add\n      swap1\n      tag_90\n      swap2\n      swap1\n      tag_34\n      jump\t// in\n    tag_90:\n      tag_91\n      jump\t// in\n    tag_89:\n      mload(0x40)\n      tag_92\n      swap7\n      swap6\n      swap5\n      swap4\n      swap3\n      swap2\n      swap1\n      tag_93\n      jump\t// in\n    tag_92:\n      mload(0x40)\n      dup1\n      swap2\n      sub\n      swap1\n      return\n        /* \"Campaign.sol\":3567:3762  function getDetail(address addr) public view returns(string memory, string memory){... */\n    tag_15:\n      callvalue\n      dup1\n      iszero\n      tag_94\n      jumpi\n      0x00\n      dup1\n      revert\n    tag_94:\n      pop\n      tag_95\n      0x04\n      dup1\n      calldatasize\n      sub\n      dup2\n      add\n      swap1\n      tag_96\n      swap2\n      swap1\n      tag_34\n      jump\t// in\n    tag_96:\n      tag_97\n      jump\t// in\n    tag_95:\n      mload(0x40)\n      tag_98\n      swap3\n      swap2\n      swap1\n      tag_58\n      jump\t// in\n    tag_98:\n      mload(0x40)\n      dup1\n      swap2\n      sub\n      swap1\n      return\n        /* \"Campaign.sol\":568:608  mapping (address => bool) public donater */\n    tag_16:\n      callvalue\n      dup1\n      iszero\n      tag_99\n      jumpi\n      0x00\n      dup1\n      revert\n    tag_99:\n      pop\n      tag_100\n      0x04\n      dup1\n      calldatasize\n      sub\n      dup2\n      add\n      swap1\n      tag_101\n      swap2\n      swap1\n      tag_34\n      jump\t// in\n    tag_101:\n      tag_102\n      jump\t// in\n    tag_100:\n      mload(0x40)\n      tag_103\n      swap2\n      swap1\n      tag_104\n      jump\t// in\n    tag_103:\n      mload(0x40)\n      dup1\n      swap2\n      sub\n      swap1\n      return\n        /* \"Campaign.sol\":682:709  uint256 public donaterCount */\n    tag_17:\n      callvalue\n      dup1\n      iszero\n      tag_105\n      jumpi\n      0x00\n      dup1\n      revert\n    tag_105:\n      pop\n      tag_106\n      tag_107\n      jump\t// in\n    tag_106:\n      mload(0x40)\n      tag_108\n      swap2\n      swap1\n      tag_30\n      jump\t// in\n    tag_108:\n      mload(0x40)\n      dup1\n      swap2\n      sub\n      swap1\n      return\n        /* \"Campaign.sol\":714:769  mapping (address => Infoorganiser) public infoOrganiser */\n    tag_18:\n      callvalue\n      dup1\n      iszero\n      tag_109\n      jumpi\n      0x00\n      dup1\n      revert\n    tag_109:\n      pop\n      tag_110\n      0x04\n      dup1\n      calldatasize\n      sub\n      dup2\n      add\n      swap1\n      tag_111\n      swap2\n      swap1\n      tag_34\n      jump\t// in\n    tag_111:\n      tag_112\n      jump\t// in\n    tag_110:\n      mload(0x40)\n      tag_113\n      swap7\n      swap6\n      swap5\n      swap4\n      swap3\n      swap2\n      swap1\n      tag_93\n      jump\t// in\n    tag_113:\n      mload(0x40)\n      dup1\n      swap2\n      sub\n      swap1\n      return\n        /* \"Campaign.sol\":2813:3084  function setReference(string memory _name, string memory _phoneNumbers,string memory _addr, string memory _email, string memory _linkSocialmedia) public restricted {... */\n    tag_19:\n      callvalue\n      dup1\n      iszero\n      tag_114\n      jumpi\n      0x00\n      dup1\n      revert\n    tag_114:\n      pop\n      tag_115\n      0x04\n      dup1\n      calldatasize\n      sub\n      dup2\n      add\n      swap1\n      tag_116\n      swap2\n      swap1\n      tag_117\n      jump\t// in\n    tag_116:\n      tag_118\n      jump\t// in\n    tag_115:\n      stop\n        /* \"Campaign.sol\":1906:1990  function setTargetdonation(uint target) public {... */\n    tag_20:\n      callvalue\n      dup1\n      iszero\n      tag_119\n      jumpi\n      0x00\n      dup1\n      revert\n    tag_119:\n      pop\n      tag_120\n      0x04\n      dup1\n      calldatasize\n      sub\n      dup2\n      add\n      swap1\n      tag_121\n      swap2\n      swap1\n      tag_72\n      jump\t// in\n    tag_121:\n      tag_122\n      jump\t// in\n    tag_120:\n      stop\n        /* \"Campaign.sol\":4506:4810  function finaliseRequest(uint index) public... */\n    tag_21:\n      tag_123\n      0x04\n      dup1\n      calldatasize\n      sub\n      dup2\n      add\n      swap1\n      tag_124\n      swap2\n      swap1\n      tag_72\n      jump\t// in\n    tag_124:\n      tag_125\n      jump\t// in\n    tag_123:\n      stop\n        /* \"Campaign.sol\":1996:2170  function donate() public payable{... */\n    tag_22:\n      tag_126\n      tag_127\n      jump\t// in\n    tag_126:\n      stop\n        /* \"Campaign.sol\":648:677  uint256 public targetDonation */\n    tag_28:\n      sload(0x03)\n      dup2\n      jump\t// out\n        /* \"Campaign.sol\":774:830  mapping (address => Inforeference) public  infoReference */\n    tag_35:\n      mstore(0x20, 0x06)\n      dup1\n      0x00\n      mstore\n      keccak256(0x00, 0x40)\n      0x00\n      swap2\n      pop\n      swap1\n      pop\n      dup1\n      0x00\n      add\n      dup1\n      sload\n      tag_128\n      swap1\n      tag_129\n      jump\t// in\n    tag_128:\n      dup1\n      0x1f\n      add\n      0x20\n      dup1\n      swap2\n      div\n      mul\n      0x20\n      add\n      mload(0x40)\n      swap1\n      dup2\n      add\n      0x40\n      mstore\n      dup1\n      swap3\n      swap2\n      swap1\n      dup2\n      dup2\n      mstore\n      0x20\n      add\n      dup3\n      dup1\n      sload\n      tag_130\n      swap1\n      tag_129\n      jump\t// in\n    tag_130:\n      dup1\n      iszero\n      tag_131\n      jumpi\n      dup1\n      0x1f\n      lt\n      tag_132\n      jumpi\n      0x0100\n      dup1\n      dup4\n      sload\n      div\n      mul\n      dup4\n      mstore\n      swap2\n      0x20\n      add\n      swap2\n      jump(tag_131)\n    tag_132:\n      dup3\n      add\n      swap2\n      swap1\n      0x00\n      mstore\n      keccak256(0x00, 0x20)\n      swap1\n    tag_133:\n      dup2\n      sload\n      dup2\n      mstore\n      swap1\n      0x01\n      add\n      swap1\n      0x20\n      add\n      dup1\n      dup4\n      gt\n      tag_133\n      jumpi\n      dup3\n      swap1\n      sub\n      0x1f\n      and\n      dup3\n      add\n      swap2\n    tag_131:\n      pop\n      pop\n      pop\n      pop\n      pop\n      swap1\n      dup1\n      0x01\n      add\n      dup1\n      sload\n      tag_134\n      swap1\n      tag_129\n      jump\t// in\n    tag_134:\n      dup1\n      0x1f\n      add\n      0x20\n      dup1\n      swap2\n      div\n      mul\n      0x20\n      add\n      mload(0x40)\n      swap1\n      dup2\n      add\n      0x40\n      mstore\n      dup1\n      swap3\n      swap2\n      swap1\n      dup2\n      dup2\n      mstore\n      0x20\n      add\n      dup3\n      dup1\n      sload\n      tag_135\n      swap1\n      tag_129\n      jump\t// in\n    tag_135:\n      dup1\n      iszero\n      tag_136\n      jumpi\n      dup1\n      0x1f\n      lt\n      tag_137\n      jumpi\n      0x0100\n      dup1\n      dup4\n      sload\n      div\n      mul\n      dup4\n      mstore\n      swap2\n      0x20\n      add\n      swap2\n      jump(tag_136)\n    tag_137:\n      dup3\n      add\n      swap2\n      swap1\n      0x00\n      mstore\n      keccak256(0x00, 0x20)\n      swap1\n    tag_138:\n      dup2\n      sload\n      dup2\n      mstore\n      swap1\n      0x01\n      add\n      swap1\n      0x20\n      add\n      dup1\n      dup4\n      gt\n      tag_138\n      jumpi\n      dup3\n      swap1\n      sub\n      0x1f\n      and\n      dup3\n      add\n      swap2\n    tag_136:\n      pop\n      pop\n      pop\n      pop\n      pop\n      swap1\n      dup1\n      0x02\n      add\n      dup1\n      sload\n      tag_139\n      swap1\n      tag_129\n      jump\t// in\n    tag_139:\n      dup1\n      0x1f\n      add\n      0x20\n      dup1\n      swap2\n      div\n      mul\n      0x20\n      add\n      mload(0x40)\n      swap1\n      dup2\n      add\n      0x40\n      mstore\n      dup1\n      swap3\n      swap2\n      swap1\n      dup2\n      dup2\n      mstore\n      0x20\n      add\n      dup3\n      dup1\n      sload\n      tag_140\n      swap1\n      tag_129\n      jump\t// in\n    tag_140:\n      dup1\n      iszero\n      tag_141\n      jumpi\n      dup1\n      0x1f\n      lt\n      tag_142\n      jumpi\n      0x0100\n      dup1\n      dup4\n      sload\n      div\n      mul\n      dup4\n      mstore\n      swap2\n      0x20\n      add\n      swap2\n      jump(tag_141)\n    tag_142:\n      dup3\n      add\n      swap2\n      swap1\n      0x00\n      mstore\n      keccak256(0x00, 0x20)\n      swap1\n    tag_143:\n      dup2\n      sload\n      dup2\n      mstore\n      swap1\n      0x01\n      add\n      swap1\n      0x20\n      add\n      dup1\n      dup4\n      gt\n      tag_143\n      jumpi\n      dup3\n      swap1\n      sub\n      0x1f\n      and\n      dup3\n      add\n      swap2\n    tag_141:\n      pop\n      pop\n      pop\n      pop\n      pop\n      swap1\n      dup1\n      0x03\n      add\n      dup1\n      sload\n      tag_144\n      swap1\n      tag_129\n      jump\t// in\n    tag_144:\n      dup1\n      0x1f\n      add\n      0x20\n      dup1\n      swap2\n      div\n      mul\n      0x20\n      add\n      mload(0x40)\n      swap1\n      dup2\n      add\n      0x40\n      mstore\n      dup1\n      swap3\n      swap2\n      swap1\n      dup2\n      dup2\n      mstore\n      0x20\n      add\n      dup3\n      dup1\n      sload\n      tag_145\n      swap1\n      tag_129\n      jump\t// in\n    tag_145:\n      dup1\n      iszero\n      tag_146\n      jumpi\n      dup1\n      0x1f\n      lt\n      tag_147\n      jumpi\n      0x0100\n      dup1\n      dup4\n      sload\n      div\n      mul\n      dup4\n      mstore\n      swap2\n      0x20\n      add\n      swap2\n      jump(tag_146)\n    tag_147:\n      dup3\n      add\n      swap2\n      swap1\n      0x00\n      mstore\n      keccak256(0x00, 0x20)\n      swap1\n    tag_148:\n      dup2\n      sload\n      dup2\n      mstore\n      swap1\n      0x01\n      add\n      swap1\n      0x20\n      add\n      dup1\n      dup4\n      gt\n      tag_148\n      jumpi\n      dup3\n      swap1\n      sub\n      0x1f\n      and\n      dup3\n      add\n      swap2\n    tag_146:\n      pop\n      pop\n      pop\n      pop\n      pop\n      swap1\n      dup1\n      0x04\n      add\n      dup1\n      sload\n      tag_149\n      swap1\n      tag_129\n      jump\t// in\n    tag_149:\n      dup1\n      0x1f\n      add\n      0x20\n      dup1\n      swap2\n      div\n      mul\n      0x20\n      add\n      mload(0x40)\n      swap1\n      dup2\n      add\n      0x40\n      mstore\n      dup1\n      swap3\n      swap2\n      swap1\n      dup2\n      dup2\n      mstore\n      0x20\n      add\n      dup3\n      dup1\n      sload\n      tag_150\n      swap1\n      tag_129\n      jump\t// in\n    tag_150:\n      dup1\n      iszero\n      tag_151\n      jumpi\n      dup1\n      0x1f\n      lt\n      tag_152\n      jumpi\n      0x0100\n      dup1\n      dup4\n      sload\n      div\n      mul\n      dup4\n      mstore\n      swap2\n      0x20\n      add\n      swap2\n      jump(tag_151)\n    tag_152:\n      dup3\n      add\n      swap2\n      swap1\n      0x00\n      mstore\n      keccak256(0x00, 0x20)\n      swap1\n    tag_153:\n      dup2\n      sload\n      dup2\n      mstore\n      swap1\n      0x01\n      add\n      swap1\n      0x20\n      add\n      dup1\n      dup4\n      gt\n      tag_153\n      jumpi\n      dup3\n      swap1\n      sub\n      0x1f\n      and\n      dup3\n      add\n      swap2\n    tag_151:\n      pop\n      pop\n      pop\n      pop\n      pop\n      swap1\n      pop\n      dup6\n      jump\t// out\n        /* \"Campaign.sol\":3382:3561  function setDetail(string memory _campaignName, string memory _summaryCampaign) public restricted{... */\n    tag_42:\n        /* \"Campaign.sol\":1758:1767  organiser */\n      0x00\n      dup1\n      sload\n      swap1\n      0x0100\n      exp\n      swap1\n      div\n      0xffffffffffffffffffffffffffffffffffffffff\n      and\n        /* \"Campaign.sol\":1744:1767  msg.sender == organiser */\n      0xffffffffffffffffffffffffffffffffffffffff\n      and\n        /* \"Campaign.sol\":1744:1754  msg.sender */\n      caller\n        /* \"Campaign.sol\":1744:1767  msg.sender == organiser */\n      0xffffffffffffffffffffffffffffffffffffffff\n      and\n      eq\n        /* \"Campaign.sol\":1736:1768  require(msg.sender == organiser) */\n      tag_155\n      jumpi\n      0x00\n      dup1\n      revert\n    tag_155:\n        /* \"Campaign.sol\":3517:3555  Detail(_campaignName,_summaryCampaign) */\n      mload(0x40)\n      dup1\n      0x40\n      add\n      0x40\n      mstore\n      dup1\n        /* \"Campaign.sol\":3524:3537  _campaignName */\n      dup4\n        /* \"Campaign.sol\":3517:3555  Detail(_campaignName,_summaryCampaign) */\n      dup2\n      mstore\n      0x20\n      add\n        /* \"Campaign.sol\":3538:3554  _summaryCampaign */\n      dup3\n        /* \"Campaign.sol\":3517:3555  Detail(_campaignName,_summaryCampaign) */\n      dup2\n      mstore\n      pop\n        /* \"Campaign.sol\":3488:3502  detailCampaign */\n      0x07\n        /* \"Campaign.sol\":3488:3514  detailCampaign[msg.sender] */\n      0x00\n        /* \"Campaign.sol\":3503:3513  msg.sender */\n      caller\n        /* \"Campaign.sol\":3488:3514  detailCampaign[msg.sender] */\n      0xffffffffffffffffffffffffffffffffffffffff\n      and\n      0xffffffffffffffffffffffffffffffffffffffff\n      and\n      dup2\n      mstore\n      0x20\n      add\n      swap1\n      dup2\n      mstore\n      0x20\n      add\n      0x00\n      keccak256\n        /* \"Campaign.sol\":3488:3555  detailCampaign[msg.sender] = Detail(_campaignName,_summaryCampaign) */\n      0x00\n      dup3\n      add\n      mload\n      dup2\n      0x00\n      add\n      swap1\n      dup1\n      mload\n      swap1\n      0x20\n      add\n      swap1\n      tag_157\n      swap3\n      swap2\n      swap1\n      tag_158\n      jump\t// in\n    tag_157:\n      pop\n      0x20\n      dup3\n      add\n      mload\n      dup2\n      0x01\n      add\n      swap1\n      dup1\n      mload\n      swap1\n      0x20\n      add\n      swap1\n      tag_159\n      swap3\n      swap2\n      swap1\n      tag_158\n      jump\t// in\n    tag_159:\n      pop\n      swap1\n      pop\n      pop\n        /* \"Campaign.sol\":3382:3561  function setDetail(string memory _campaignName, string memory _summaryCampaign) public restricted{... */\n      pop\n      pop\n      jump\t// out\n        /* \"Campaign.sol\":4818:5044  function getSummary() public view returns (... */\n    tag_45:\n        /* \"Campaign.sol\":4868:4872  uint */\n      0x00\n        /* \"Campaign.sol\":4874:4878  uint */\n      dup1\n        /* \"Campaign.sol\":4880:4884  uint */\n      0x00\n        /* \"Campaign.sol\":4886:4893  address */\n      dup1\n        /* \"Campaign.sol\":4930:4945  minimumDonation */\n      sload(0x02)\n        /* \"Campaign.sol\":4957:4978  address(this).balance */\n      selfbalance\n        /* \"Campaign.sol\":4990:5002  donaterCount */\n      sload(0x04)\n        /* \"Campaign.sol\":5014:5023  organiser */\n      0x00\n      dup1\n      sload\n      swap1\n      0x0100\n      exp\n      swap1\n      div\n      0xffffffffffffffffffffffffffffffffffffffff\n      and\n        /* \"Campaign.sol\":4911:5035  return (... */\n      swap4\n      pop\n      swap4\n      pop\n      swap4\n      pop\n      swap4\n      pop\n        /* \"Campaign.sol\":4818:5044  function getSummary() public view returns (... */\n      swap1\n      swap2\n      swap3\n      swap4\n      jump\t// out\n        /* \"Campaign.sol\":3090:3375  function getReference(address addr) public view returns(string memory, string memory, string memory , string memory , string memory ){... */\n    tag_51:\n        /* \"Campaign.sol\":3146:3159  string memory */\n      0x60\n        /* \"Campaign.sol\":3161:3174  string memory */\n      dup1\n        /* \"Campaign.sol\":3176:3189  string memory */\n      0x60\n        /* \"Campaign.sol\":3192:3205  string memory */\n      dup1\n        /* \"Campaign.sol\":3208:3221  string memory */\n      0x60\n        /* \"Campaign.sol\":3232:3257  Inforeference memory info */\n      0x00\n        /* \"Campaign.sol\":3260:3273  infoReference */\n      0x06\n        /* \"Campaign.sol\":3260:3279  infoReference[addr] */\n      0x00\n        /* \"Campaign.sol\":3274:3278  addr */\n      dup9\n        /* \"Campaign.sol\":3260:3279  infoReference[addr] */\n      0xffffffffffffffffffffffffffffffffffffffff\n      and\n      0xffffffffffffffffffffffffffffffffffffffff\n      and\n      dup2\n      mstore\n      0x20\n      add\n      swap1\n      dup2\n      mstore\n      0x20\n      add\n      0x00\n      keccak256\n        /* \"Campaign.sol\":3232:3279  Inforeference memory info = infoReference[addr] */\n      mload(0x40)\n      dup1\n      0xa0\n      add\n      0x40\n      mstore\n      swap1\n      dup2\n      0x00\n      dup3\n      add\n      dup1\n      sload\n      tag_162\n      swap1\n      tag_129\n      jump\t// in\n    tag_162:\n      dup1\n      0x1f\n      add\n      0x20\n      dup1\n      swap2\n      div\n      mul\n      0x20\n      add\n      mload(0x40)\n      swap1\n      dup2\n      add\n      0x40\n      mstore\n      dup1\n      swap3\n      swap2\n      swap1\n      dup2\n      dup2\n      mstore\n      0x20\n      add\n      dup3\n      dup1\n      sload\n      tag_163\n      swap1\n      tag_129\n      jump\t// in\n    tag_163:\n      dup1\n      iszero\n      tag_164\n      jumpi\n      dup1\n      0x1f\n      lt\n      tag_165\n      jumpi\n      0x0100\n      dup1\n      dup4\n      sload\n      div\n      mul\n      dup4\n      mstore\n      swap2\n      0x20\n      add\n      swap2\n      jump(tag_164)\n    tag_165:\n      dup3\n      add\n      swap2\n      swap1\n      0x00\n      mstore\n      keccak256(0x00, 0x20)\n      swap1\n    tag_166:\n      dup2\n      sload\n      dup2\n      mstore\n      swap1\n      0x01\n      add\n      swap1\n      0x20\n      add\n      dup1\n      dup4\n      gt\n      tag_166\n      jumpi\n      dup3\n      swap1\n      sub\n      0x1f\n      and\n      dup3\n      add\n      swap2\n    tag_164:\n      pop\n      pop\n      pop\n      pop\n      pop\n      dup2\n      mstore\n      0x20\n      add\n      0x01\n      dup3\n      add\n      dup1\n      sload\n      tag_167\n      swap1\n      tag_129\n      jump\t// in\n    tag_167:\n      dup1\n      0x1f\n      add\n      0x20\n      dup1\n      swap2\n      div\n      mul\n      0x20\n      add\n      mload(0x40)\n      swap1\n      dup2\n      add\n      0x40\n      mstore\n      dup1\n      swap3\n      swap2\n      swap1\n      dup2\n      dup2\n      mstore\n      0x20\n      add\n      dup3\n      dup1\n      sload\n      tag_168\n      swap1\n      tag_129\n      jump\t// in\n    tag_168:\n      dup1\n      iszero\n      tag_169\n      jumpi\n      dup1\n      0x1f\n      lt\n      tag_170\n      jumpi\n      0x0100\n      dup1\n      dup4\n      sload\n      div\n      mul\n      dup4\n      mstore\n      swap2\n      0x20\n      add\n      swap2\n      jump(tag_169)\n    tag_170:\n      dup3\n      add\n      swap2\n      swap1\n      0x00\n      mstore\n      keccak256(0x00, 0x20)\n      swap1\n    tag_171:\n      dup2\n      sload\n      dup2\n      mstore\n      swap1\n      0x01\n      add\n      swap1\n      0x20\n      add\n      dup1\n      dup4\n      gt\n      tag_171\n      jumpi\n      dup3\n      swap1\n      sub\n      0x1f\n      and\n      dup3\n      add\n      swap2\n    tag_169:\n      pop\n      pop\n      pop\n      pop\n      pop\n      dup2\n      mstore\n      0x20\n      add\n      0x02\n      dup3\n      add\n      dup1\n      sload\n      tag_172\n      swap1\n      tag_129\n      jump\t// in\n    tag_172:\n      dup1\n      0x1f\n      add\n      0x20\n      dup1\n      swap2\n      div\n      mul\n      0x20\n      add\n      mload(0x40)\n      swap1\n      dup2\n      add\n      0x40\n      mstore\n      dup1\n      swap3\n      swap2\n      swap1\n      dup2\n      dup2\n      mstore\n      0x20\n      add\n      dup3\n      dup1\n      sload\n      tag_173\n      swap1\n      tag_129\n      jump\t// in\n    tag_173:\n      dup1\n      iszero\n      tag_174\n      jumpi\n      dup1\n      0x1f\n      lt\n      tag_175\n      jumpi\n      0x0100\n      dup1\n      dup4\n      sload\n      div\n      mul\n      dup4\n      mstore\n      swap2\n      0x20\n      add\n      swap2\n      jump(tag_174)\n    tag_175:\n      dup3\n      add\n      swap2\n      swap1\n      0x00\n      mstore\n      keccak256(0x00, 0x20)\n      swap1\n    tag_176:\n      dup2\n      sload\n      dup2\n      mstore\n      swap1\n      0x01\n      add\n      swap1\n      0x20\n      add\n      dup1\n      dup4\n      gt\n      tag_176\n      jumpi\n      dup3\n      swap1\n      sub\n      0x1f\n      and\n      dup3\n      add\n      swap2\n    tag_174:\n      pop\n      pop\n      pop\n      pop\n      pop\n      dup2\n      mstore\n      0x20\n      add\n      0x03\n      dup3\n      add\n      dup1\n      sload\n      tag_177\n      swap1\n      tag_129\n      jump\t// in\n    tag_177:\n      dup1\n      0x1f\n      add\n      0x20\n      dup1\n      swap2\n      div\n      mul\n      0x20\n      add\n      mload(0x40)\n      swap1\n      dup2\n      add\n      0x40\n      mstore\n      dup1\n      swap3\n      swap2\n      swap1\n      dup2\n      dup2\n      mstore\n      0x20\n      add\n      dup3\n      dup1\n      sload\n      tag_178\n      swap1\n      tag_129\n      jump\t// in\n    tag_178:\n      dup1\n      iszero\n      tag_179\n      jumpi\n      dup1\n      0x1f\n      lt\n      tag_180\n      jumpi\n      0x0100\n      dup1\n      dup4\n      sload\n      div\n      mul\n      dup4\n      mstore\n      swap2\n      0x20\n      add\n      swap2\n      jump(tag_179)\n    tag_180:\n      dup3\n      add\n      swap2\n      swap1\n      0x00\n      mstore\n      keccak256(0x00, 0x20)\n      swap1\n    tag_181:\n      dup2\n      sload\n      dup2\n      mstore\n      swap1\n      0x01\n      add\n      swap1\n      0x20\n      add\n      dup1\n      dup4\n      gt\n      tag_181\n      jumpi\n      dup3\n      swap1\n      sub\n      0x1f\n      and\n      dup3\n      add\n      swap2\n    tag_179:\n      pop\n      pop\n      pop\n      pop\n      pop\n      dup2\n      mstore\n      0x20\n      add\n      0x04\n      dup3\n      add\n      dup1\n      sload\n      tag_182\n      swap1\n      tag_129\n      jump\t// in\n    tag_182:\n      dup1\n      0x1f\n      add\n      0x20\n      dup1\n      swap2\n      div\n      mul\n      0x20\n      add\n      mload(0x40)\n      swap1\n      dup2\n      add\n      0x40\n      mstore\n      dup1\n      swap3\n      swap2\n      swap1\n      dup2\n      dup2\n      mstore\n      0x20\n      add\n      dup3\n      dup1\n      sload\n      tag_183\n      swap1\n      tag_129\n      jump\t// in\n    tag_183:\n      dup1\n      iszero\n      tag_184\n      jumpi\n      dup1\n      0x1f\n      lt\n      tag_185\n      jumpi\n      0x0100\n      dup1\n      dup4\n      sload\n      div\n      mul\n      dup4\n      mstore\n      swap2\n      0x20\n      add\n      swap2\n      jump(tag_184)\n    tag_185:\n      dup3\n      add\n      swap2\n      swap1\n      0x00\n      mstore\n      keccak256(0x00, 0x20)\n      swap1\n    tag_186:\n      dup2\n      sload\n      dup2\n      mstore\n      swap1\n      0x01\n      add\n      swap1\n      0x20\n      add\n      dup1\n      dup4\n      gt\n      tag_186\n      jumpi\n      dup3\n      swap1\n      sub\n      0x1f\n      and\n      dup3\n      add\n      swap2\n    tag_184:\n      pop\n      pop\n      pop\n      pop\n      pop\n      dup2\n      mstore\n      pop\n      pop\n      swap1\n      pop\n        /* \"Campaign.sol\":3297:3301  info */\n      dup1\n        /* \"Campaign.sol\":3297:3306  info.name */\n      0x00\n      add\n      mload\n        /* \"Campaign.sol\":3308:3312  info */\n      dup2\n        /* \"Campaign.sol\":3308:3325  info.phoneNumbers */\n      0x20\n      add\n      mload\n        /* \"Campaign.sol\":3326:3330  info */\n      dup3\n        /* \"Campaign.sol\":3326:3335  info.addr */\n      0x40\n      add\n      mload\n        /* \"Campaign.sol\":3336:3340  info */\n      dup4\n        /* \"Campaign.sol\":3336:3346  info.email */\n      0x60\n      add\n      mload\n        /* \"Campaign.sol\":3348:3352  info */\n      dup5\n        /* \"Campaign.sol\":3348:3368  info.linkSocialmedia */\n      0x80\n      add\n      mload\n        /* \"Campaign.sol\":3289:3369  return (info.name, info.phoneNumbers,info.addr,info.email, info.linkSocialmedia) */\n      swap6\n      pop\n      swap6\n      pop\n      swap6\n      pop\n      swap6\n      pop\n      swap6\n      pop\n      pop\n        /* \"Campaign.sol\":3090:3375  function getReference(address addr) public view returns(string memory, string memory, string memory , string memory , string memory ){... */\n      swap2\n      swap4\n      swap6\n      swap1\n      swap3\n      swap5\n      pop\n      jump\t// out\n        /* \"Campaign.sol\":835:884  mapping (address => Detail) public detailCampaign */\n    tag_56:\n      mstore(0x20, 0x07)\n      dup1\n      0x00\n      mstore\n      keccak256(0x00, 0x40)\n      0x00\n      swap2\n      pop\n      swap1\n      pop\n      dup1\n      0x00\n      add\n      dup1\n      sload\n      tag_187\n      swap1\n      tag_129\n      jump\t// in\n    tag_187:\n      dup1\n      0x1f\n      add\n      0x20\n      dup1\n      swap2\n      div\n      mul\n      0x20\n      add\n      mload(0x40)\n      swap1\n      dup2\n      add\n      0x40\n      mstore\n      dup1\n      swap3\n      swap2\n      swap1\n      dup2\n      dup2\n      mstore\n      0x20\n      add\n      dup3\n      dup1\n      sload\n      tag_188\n      swap1\n      tag_129\n      jump\t// in\n    tag_188:\n      dup1\n      iszero\n      tag_189\n      jumpi\n      dup1\n      0x1f\n      lt\n      tag_190\n      jumpi\n      0x0100\n      dup1\n      dup4\n      sload\n      div\n      mul\n      dup4\n      mstore\n      swap2\n      0x20\n      add\n      swap2\n      jump(tag_189)\n    tag_190:\n      dup3\n      add\n      swap2\n      swap1\n      0x00\n      mstore\n      keccak256(0x00, 0x20)\n      swap1\n    tag_191:\n      dup2\n      sload\n      dup2\n      mstore\n      swap1\n      0x01\n      add\n      swap1\n      0x20\n      add\n      dup1\n      dup4\n      gt\n      tag_191\n      jumpi\n      dup3\n      swap1\n      sub\n      0x1f\n      and\n      dup3\n      add\n      swap2\n    tag_189:\n      pop\n      pop\n      pop\n      pop\n      pop\n      swap1\n      dup1\n      0x01\n      add\n      dup1\n      sload\n      tag_192\n      swap1\n      tag_129\n      jump\t// in\n    tag_192:\n      dup1\n      0x1f\n      add\n      0x20\n      dup1\n      swap2\n      div\n      mul\n      0x20\n      add\n      mload(0x40)\n      swap1\n      dup2\n      add\n      0x40\n      mstore\n      dup1\n      swap3\n      swap2\n      swap1\n      dup2\n      dup2\n      mstore\n      0x20\n      add\n      dup3\n      dup1\n      sload\n      tag_193\n      swap1\n      tag_129\n      jump\t// in\n    tag_193:\n      dup1\n      iszero\n      tag_194\n      jumpi\n      dup1\n      0x1f\n      lt\n      tag_195\n      jumpi\n      0x0100\n      dup1\n      dup4\n      sload\n      div\n      mul\n      dup4\n      mstore\n      swap2\n      0x20\n      add\n      swap2\n      jump(tag_194)\n    tag_195:\n      dup3\n      add\n      swap2\n      swap1\n      0x00\n      mstore\n      keccak256(0x00, 0x20)\n      swap1\n    tag_196:\n      dup2\n      sload\n      dup2\n      mstore\n      swap1\n      0x01\n      add\n      swap1\n      0x20\n      add\n      dup1\n      dup4\n      gt\n      tag_196\n      jumpi\n      dup3\n      swap1\n      sub\n      0x1f\n      and\n      dup3\n      add\n      swap2\n    tag_194:\n      pop\n      pop\n      pop\n      pop\n      pop\n      swap1\n      pop\n      dup3\n      jump\t// out\n        /* \"Campaign.sol\":2175:2484  function setOrganiser(string memory _name, string memory _agencyName, string memory _phoneNumbers, string memory _addr, string memory _email, string memory _linkSocialmedia) public restricted{... */\n    tag_63:\n        /* \"Campaign.sol\":1758:1767  organiser */\n      0x00\n      dup1\n      sload\n      swap1\n      0x0100\n      exp\n      swap1\n      div\n      0xffffffffffffffffffffffffffffffffffffffff\n      and\n        /* \"Campaign.sol\":1744:1767  msg.sender == organiser */\n      0xffffffffffffffffffffffffffffffffffffffff\n      and\n        /* \"Campaign.sol\":1744:1754  msg.sender */\n      caller\n        /* \"Campaign.sol\":1744:1767  msg.sender == organiser */\n      0xffffffffffffffffffffffffffffffffffffffff\n      and\n      eq\n        /* \"Campaign.sol\":1736:1768  require(msg.sender == organiser) */\n      tag_198\n      jumpi\n      0x00\n      dup1\n      revert\n    tag_198:\n        /* \"Campaign.sol\":2402:2478  Infoorganiser(_name,_agencyName,_phoneNumbers,_addr,_email,_linkSocialmedia) */\n      mload(0x40)\n      dup1\n      0xc0\n      add\n      0x40\n      mstore\n      dup1\n        /* \"Campaign.sol\":2416:2421  _name */\n      dup8\n        /* \"Campaign.sol\":2402:2478  Infoorganiser(_name,_agencyName,_phoneNumbers,_addr,_email,_linkSocialmedia) */\n      dup2\n      mstore\n      0x20\n      add\n        /* \"Campaign.sol\":2422:2433  _agencyName */\n      dup7\n        /* \"Campaign.sol\":2402:2478  Infoorganiser(_name,_agencyName,_phoneNumbers,_addr,_email,_linkSocialmedia) */\n      dup2\n      mstore\n      0x20\n      add\n        /* \"Campaign.sol\":2434:2447  _phoneNumbers */\n      dup6\n        /* \"Campaign.sol\":2402:2478  Infoorganiser(_name,_agencyName,_phoneNumbers,_addr,_email,_linkSocialmedia) */\n      dup2\n      mstore\n      0x20\n      add\n        /* \"Campaign.sol\":2448:2453  _addr */\n      dup5\n        /* \"Campaign.sol\":2402:2478  Infoorganiser(_name,_agencyName,_phoneNumbers,_addr,_email,_linkSocialmedia) */\n      dup2\n      mstore\n      0x20\n      add\n        /* \"Campaign.sol\":2454:2460  _email */\n      dup4\n        /* \"Campaign.sol\":2402:2478  Infoorganiser(_name,_agencyName,_phoneNumbers,_addr,_email,_linkSocialmedia) */\n      dup2\n      mstore\n      0x20\n      add\n        /* \"Campaign.sol\":2461:2477  _linkSocialmedia */\n      dup3\n        /* \"Campaign.sol\":2402:2478  Infoorganiser(_name,_agencyName,_phoneNumbers,_addr,_email,_linkSocialmedia) */\n      dup2\n      mstore\n      pop\n        /* \"Campaign.sol\":2376:2389  infoOrganiser */\n      0x05\n        /* \"Campaign.sol\":2376:2401  infoOrganiser[msg.sender] */\n      0x00\n        /* \"Campaign.sol\":2390:2400  msg.sender */\n      caller\n        /* \"Campaign.sol\":2376:2401  infoOrganiser[msg.sender] */\n      0xffffffffffffffffffffffffffffffffffffffff\n      and\n      0xffffffffffffffffffffffffffffffffffffffff\n      and\n      dup2\n      mstore\n      0x20\n      add\n      swap1\n      dup2\n      mstore\n      0x20\n      add\n      0x00\n      keccak256\n        /* \"Campaign.sol\":2376:2478  infoOrganiser[msg.sender]=Infoorganiser(_name,_agencyName,_phoneNumbers,_addr,_email,_linkSocialmedia) */\n      0x00\n      dup3\n      add\n      mload\n      dup2\n      0x00\n      add\n      swap1\n      dup1\n      mload\n      swap1\n      0x20\n      add\n      swap1\n      tag_200\n      swap3\n      swap2\n      swap1\n      tag_158\n      jump\t// in\n    tag_200:\n      pop\n      0x20\n      dup3\n      add\n      mload\n      dup2\n      0x01\n      add\n      swap1\n      dup1\n      mload\n      swap1\n      0x20\n      add\n      swap1\n      tag_201\n      swap3\n      swap2\n      swap1\n      tag_158\n      jump\t// in\n    tag_201:\n      pop\n      0x40\n      dup3\n      add\n      mload\n      dup2\n      0x02\n      add\n      swap1\n      dup1\n      mload\n      swap1\n      0x20\n      add\n      swap1\n      tag_202\n      swap3\n      swap2\n      swap1\n      tag_158\n      jump\t// in\n    tag_202:\n      pop\n      0x60\n      dup3\n      add\n      mload\n      dup2\n      0x03\n      add\n      swap1\n      dup1\n      mload\n      swap1\n      0x20\n      add\n      swap1\n      tag_203\n      swap3\n      swap2\n      swap1\n      tag_158\n      jump\t// in\n    tag_203:\n      pop\n      0x80\n      dup3\n      add\n      mload\n      dup2\n      0x04\n      add\n      swap1\n      dup1\n      mload\n      swap1\n      0x20\n      add\n      swap1\n      tag_204\n      swap3\n      swap2\n      swap1\n      tag_158\n      jump\t// in\n    tag_204:\n      pop\n      0xa0\n      dup3\n      add\n      mload\n      dup2\n      0x05\n      add\n      swap1\n      dup1\n      mload\n      swap1\n      0x20\n      add\n      swap1\n      tag_205\n      swap3\n      swap2\n      swap1\n      tag_158\n      jump\t// in\n    tag_205:\n      pop\n      swap1\n      pop\n      pop\n        /* \"Campaign.sol\":2175:2484  function setOrganiser(string memory _name, string memory _agencyName, string memory _phoneNumbers, string memory _addr, string memory _email, string memory _linkSocialmedia) public restricted{... */\n      pop\n      pop\n      pop\n      pop\n      pop\n      pop\n      jump\t// out\n        /* \"Campaign.sol\":539:563  address public organiser */\n    tag_66:\n      0x00\n      dup1\n      sload\n      swap1\n      0x0100\n      exp\n      swap1\n      div\n      0xffffffffffffffffffffffffffffffffffffffff\n      and\n      dup2\n      jump\t// out\n        /* \"Campaign.sol\":1623:1664  mapping (uint => Request) public requests */\n    tag_73:\n      mstore(0x20, 0x08)\n      dup1\n      0x00\n      mstore\n      keccak256(0x00, 0x40)\n      0x00\n      swap2\n      pop\n      swap1\n      pop\n      dup1\n      0x00\n      add\n      dup1\n      sload\n      tag_206\n      swap1\n      tag_129\n      jump\t// in\n    tag_206:\n      dup1\n      0x1f\n      add\n      0x20\n      dup1\n      swap2\n      div\n      mul\n      0x20\n      add\n      mload(0x40)\n      swap1\n      dup2\n      add\n      0x40\n      mstore\n      dup1\n      swap3\n      swap2\n      swap1\n      dup2\n      dup2\n      mstore\n      0x20\n      add\n      dup3\n      dup1\n      sload\n      tag_207\n      swap1\n      tag_129\n      jump\t// in\n    tag_207:\n      dup1\n      iszero\n      tag_208\n      jumpi\n      dup1\n      0x1f\n      lt\n      tag_209\n      jumpi\n      0x0100\n      dup1\n      dup4\n      sload\n      div\n      mul\n      dup4\n      mstore\n      swap2\n      0x20\n      add\n      swap2\n      jump(tag_208)\n    tag_209:\n      dup3\n      add\n      swap2\n      swap1\n      0x00\n      mstore\n      keccak256(0x00, 0x20)\n      swap1\n    tag_210:\n      dup2\n      sload\n      dup2\n      mstore\n      swap1\n      0x01\n      add\n      swap1\n      0x20\n      add\n      dup1\n      dup4\n      gt\n      tag_210\n      jumpi\n      dup3\n      swap1\n      sub\n      0x1f\n      and\n      dup3\n      add\n      swap2\n    tag_208:\n      pop\n      pop\n      pop\n      pop\n      pop\n      swap1\n      dup1\n      0x01\n      add\n      sload\n      swap1\n      dup1\n      0x02\n      add\n      0x00\n      swap1\n      sload\n      swap1\n      0x0100\n      exp\n      swap1\n      div\n      0xffffffffffffffffffffffffffffffffffffffff\n      and\n      swap1\n      dup1\n      0x02\n      add\n      0x14\n      swap1\n      sload\n      swap1\n      0x0100\n      exp\n      swap1\n      div\n      0xff\n      and\n      swap1\n      dup1\n      0x03\n      add\n      sload\n      swap1\n      pop\n      dup6\n      jump\t// out\n        /* \"Campaign.sol\":3768:4226  function createRequest(string memory description, uint value, address payable recipient) payable public restricted {... */\n    tag_79:\n        /* \"Campaign.sol\":1758:1767  organiser */\n      0x00\n      dup1\n      sload\n      swap1\n      0x0100\n      exp\n      swap1\n      div\n      0xffffffffffffffffffffffffffffffffffffffff\n      and\n        /* \"Campaign.sol\":1744:1767  msg.sender == organiser */\n      0xffffffffffffffffffffffffffffffffffffffff\n      and\n        /* \"Campaign.sol\":1744:1754  msg.sender */\n      caller\n        /* \"Campaign.sol\":1744:1767  msg.sender == organiser */\n      0xffffffffffffffffffffffffffffffffffffffff\n      and\n      eq\n        /* \"Campaign.sol\":1736:1768  require(msg.sender == organiser) */\n      tag_212\n      jumpi\n      0x00\n      dup1\n      revert\n    tag_212:\n        /* \"Campaign.sol\":3893:3928  Request storage newRequestInStorage */\n      0x00\n        /* \"Campaign.sol\":3931:3939  requests */\n      0x08\n        /* \"Campaign.sol\":3931:3953  requests[requestCount] */\n      0x00\n        /* \"Campaign.sol\":3940:3952  requestCount */\n      sload(0x09)\n        /* \"Campaign.sol\":3931:3953  requests[requestCount] */\n      dup2\n      mstore\n      0x20\n      add\n      swap1\n      dup2\n      mstore\n      0x20\n      add\n      0x00\n      keccak256\n        /* \"Campaign.sol\":3893:3953  Request storage newRequestInStorage = requests[requestCount] */\n      swap1\n      pop\n        /* \"Campaign.sol\":3997:4008  description */\n      dup4\n        /* \"Campaign.sol\":3963:3982  newRequestInStorage */\n      dup2\n        /* \"Campaign.sol\":3963:3994  newRequestInStorage.description */\n      0x00\n      add\n        /* \"Campaign.sol\":3963:4008  newRequestInStorage.description = description */\n      swap1\n      dup1\n      mload\n      swap1\n      0x20\n      add\n      swap1\n      tag_214\n      swap3\n      swap2\n      swap1\n      tag_158\n      jump\t// in\n    tag_214:\n      pop\n        /* \"Campaign.sol\":4046:4051  value */\n      dup3\n        /* \"Campaign.sol\":4018:4037  newRequestInStorage */\n      dup2\n        /* \"Campaign.sol\":4018:4043  newRequestInStorage.value */\n      0x01\n      add\n        /* \"Campaign.sol\":4018:4051  newRequestInStorage.value = value */\n      dup2\n      swap1\n      sstore\n      pop\n        /* \"Campaign.sol\":4093:4102  recipient */\n      dup2\n        /* \"Campaign.sol\":4061:4080  newRequestInStorage */\n      dup2\n        /* \"Campaign.sol\":4061:4090  newRequestInStorage.recipient */\n      0x02\n      add\n      0x00\n        /* \"Campaign.sol\":4061:4102  newRequestInStorage.recipient = recipient */\n      0x0100\n      exp\n      dup2\n      sload\n      dup2\n      0xffffffffffffffffffffffffffffffffffffffff\n      mul\n      not\n      and\n      swap1\n      dup4\n      0xffffffffffffffffffffffffffffffffffffffff\n      and\n      mul\n      or\n      swap1\n      sstore\n      pop\n        /* \"Campaign.sol\":4143:4148  false */\n      0x00\n        /* \"Campaign.sol\":4112:4131  newRequestInStorage */\n      dup2\n        /* \"Campaign.sol\":4112:4140  newRequestInStorage.complete */\n      0x02\n      add\n      0x14\n        /* \"Campaign.sol\":4112:4148  newRequestInStorage.complete = false */\n      0x0100\n      exp\n      dup2\n      sload\n      dup2\n      0xff\n      mul\n      not\n      and\n      swap1\n      dup4\n      iszero\n      iszero\n      mul\n      or\n      swap1\n      sstore\n      pop\n        /* \"Campaign.sol\":4194:4195  0 */\n      0x00\n        /* \"Campaign.sol\":4158:4177  newRequestInStorage */\n      dup2\n        /* \"Campaign.sol\":4158:4191  newRequestInStorage.approvalCount */\n      0x03\n      add\n        /* \"Campaign.sol\":4158:4195  newRequestInStorage.approvalCount = 0 */\n      dup2\n      swap1\n      sstore\n      pop\n        /* \"Campaign.sol\":4205:4217  requestCount */\n      0x09\n      0x00\n        /* \"Campaign.sol\":4205:4219  requestCount++ */\n      dup2\n      sload\n      dup1\n      swap3\n      swap2\n      swap1\n      tag_215\n      swap1\n      tag_216\n      jump\t// in\n    tag_215:\n      swap2\n      swap1\n      pop\n      sstore\n      pop\n        /* \"Campaign.sol\":1777:1778  _ */\n      pop\n        /* \"Campaign.sol\":3768:4226  function createRequest(string memory description, uint value, address payable recipient) payable public restricted {... */\n      pop\n      pop\n      pop\n      jump\t// out\n        /* \"Campaign.sol\":613:643  uint256 public minimumDonation */\n    tag_82:\n      sload(0x02)\n      dup2\n      jump\t// out\n        /* \"Campaign.sol\":4232:4500  function approvalRequest(uint index) public{... */\n    tag_87:\n        /* \"Campaign.sol\":4285:4308  Request storage request */\n      0x00\n        /* \"Campaign.sol\":4311:4319  requests */\n      0x08\n        /* \"Campaign.sol\":4311:4326  requests[index] */\n      0x00\n        /* \"Campaign.sol\":4320:4325  index */\n      dup4\n        /* \"Campaign.sol\":4311:4326  requests[index] */\n      dup2\n      mstore\n      0x20\n      add\n      swap1\n      dup2\n      mstore\n      0x20\n      add\n      0x00\n      keccak256\n        /* \"Campaign.sol\":4285:4326  Request storage request = requests[index] */\n      swap1\n      pop\n        /* \"Campaign.sol\":4344:4351  donater */\n      0x01\n        /* \"Campaign.sol\":4344:4363  donater[msg.sender] */\n      0x00\n        /* \"Campaign.sol\":4352:4362  msg.sender */\n      caller\n        /* \"Campaign.sol\":4344:4363  donater[msg.sender] */\n      0xffffffffffffffffffffffffffffffffffffffff\n      and\n      0xffffffffffffffffffffffffffffffffffffffff\n      and\n      dup2\n      mstore\n      0x20\n      add\n      swap1\n      dup2\n      mstore\n      0x20\n      add\n      0x00\n      keccak256\n      0x00\n      swap1\n      sload\n      swap1\n      0x0100\n      exp\n      swap1\n      div\n      0xff\n      and\n        /* \"Campaign.sol\":4336:4364  require(donater[msg.sender]) */\n      tag_218\n      jumpi\n      0x00\n      dup1\n      revert\n    tag_218:\n        /* \"Campaign.sol\":4383:4391  requests */\n      0x08\n        /* \"Campaign.sol\":4383:4398  requests[index] */\n      0x00\n        /* \"Campaign.sol\":4392:4397  index */\n      dup4\n        /* \"Campaign.sol\":4383:4398  requests[index] */\n      dup2\n      mstore\n      0x20\n      add\n      swap1\n      dup2\n      mstore\n      0x20\n      add\n      0x00\n      keccak256\n        /* \"Campaign.sol\":4383:4408  requests[index].approvers */\n      0x04\n      add\n        /* \"Campaign.sol\":4383:4420  requests[index].approvers[msg.sender] */\n      0x00\n        /* \"Campaign.sol\":4409:4419  msg.sender */\n      caller\n        /* \"Campaign.sol\":4383:4420  requests[index].approvers[msg.sender] */\n      0xffffffffffffffffffffffffffffffffffffffff\n      and\n      0xffffffffffffffffffffffffffffffffffffffff\n      and\n      dup2\n      mstore\n      0x20\n      add\n      swap1\n      dup2\n      mstore\n      0x20\n      add\n      0x00\n      keccak256\n      0x00\n      swap1\n      sload\n      swap1\n      0x0100\n      exp\n      swap1\n      div\n      0xff\n      and\n        /* \"Campaign.sol\":4382:4420  !requests[index].approvers[msg.sender] */\n      iszero\n        /* \"Campaign.sol\":4374:4421  require(!requests[index].approvers[msg.sender]) */\n      tag_219\n      jumpi\n      0x00\n      dup1\n      revert\n    tag_219:\n        /* \"Campaign.sol\":4431:4438  request */\n      dup1\n        /* \"Campaign.sol\":4431:4448  request.approvers */\n      0x04\n      add\n        /* \"Campaign.sol\":4431:4460  request.approvers[msg.sender] */\n      0x00\n        /* \"Campaign.sol\":4449:4459  msg.sender */\n      caller\n        /* \"Campaign.sol\":4431:4460  request.approvers[msg.sender] */\n      0xffffffffffffffffffffffffffffffffffffffff\n      and\n      0xffffffffffffffffffffffffffffffffffffffff\n      and\n      dup2\n      mstore\n      0x20\n      add\n      swap1\n      dup2\n      mstore\n      0x20\n      add\n      0x00\n      keccak256\n      0x00\n      swap1\n      sload\n      swap1\n      0x0100\n      exp\n      swap1\n      pop\n      pop\n        /* \"Campaign.sol\":4470:4477  request */\n      dup1\n        /* \"Campaign.sol\":4470:4491  request.approvalCount */\n      0x03\n      add\n      0x00\n        /* \"Campaign.sol\":4470:4493  request.approvalCount++ */\n      dup2\n      sload\n      dup1\n      swap3\n      swap2\n      swap1\n      tag_220\n      swap1\n      tag_216\n      jump\t// in\n    tag_220:\n      swap2\n      swap1\n      pop\n      sstore\n      pop\n        /* \"Campaign.sol\":4232:4500  function approvalRequest(uint index) public{... */\n      pop\n      pop\n      jump\t// out\n        /* \"Campaign.sol\":2489:2807  function getOrganiser(address addr) public view returns(string memory, string memory, string memory , string memory , string memory , string memory ){... */\n    tag_91:\n        /* \"Campaign.sol\":2545:2558  string memory */\n      0x60\n        /* \"Campaign.sol\":2560:2573  string memory */\n      dup1\n        /* \"Campaign.sol\":2575:2588  string memory */\n      0x60\n        /* \"Campaign.sol\":2591:2604  string memory */\n      dup1\n        /* \"Campaign.sol\":2607:2620  string memory */\n      0x60\n        /* \"Campaign.sol\":2623:2636  string memory */\n      dup1\n        /* \"Campaign.sol\":2647:2672  Infoorganiser memory info */\n      0x00\n        /* \"Campaign.sol\":2675:2688  infoOrganiser */\n      0x05\n        /* \"Campaign.sol\":2675:2694  infoOrganiser[addr] */\n      0x00\n        /* \"Campaign.sol\":2689:2693  addr */\n      dup10\n        /* \"Campaign.sol\":2675:2694  infoOrganiser[addr] */\n      0xffffffffffffffffffffffffffffffffffffffff\n      and\n      0xffffffffffffffffffffffffffffffffffffffff\n      and\n      dup2\n      mstore\n      0x20\n      add\n      swap1\n      dup2\n      mstore\n      0x20\n      add\n      0x00\n      keccak256\n        /* \"Campaign.sol\":2647:2694  Infoorganiser memory info = infoOrganiser[addr] */\n      mload(0x40)\n      dup1\n      0xc0\n      add\n      0x40\n      mstore\n      swap1\n      dup2\n      0x00\n      dup3\n      add\n      dup1\n      sload\n      tag_222\n      swap1\n      tag_129\n      jump\t// in\n    tag_222:\n      dup1\n      0x1f\n      add\n      0x20\n      dup1\n      swap2\n      div\n      mul\n      0x20\n      add\n      mload(0x40)\n      swap1\n      dup2\n      add\n      0x40\n      mstore\n      dup1\n      swap3\n      swap2\n      swap1\n      dup2\n      dup2\n      mstore\n      0x20\n      add\n      dup3\n      dup1\n      sload\n      tag_223\n      swap1\n      tag_129\n      jump\t// in\n    tag_223:\n      dup1\n      iszero\n      tag_224\n      jumpi\n      dup1\n      0x1f\n      lt\n      tag_225\n      jumpi\n      0x0100\n      dup1\n      dup4\n      sload\n      div\n      mul\n      dup4\n      mstore\n      swap2\n      0x20\n      add\n      swap2\n      jump(tag_224)\n    tag_225:\n      dup3\n      add\n      swap2\n      swap1\n      0x00\n      mstore\n      keccak256(0x00, 0x20)\n      swap1\n    tag_226:\n      dup2\n      sload\n      dup2\n      mstore\n      swap1\n      0x01\n      add\n      swap1\n      0x20\n      add\n      dup1\n      dup4\n      gt\n      tag_226\n      jumpi\n      dup3\n      swap1\n      sub\n      0x1f\n      and\n      dup3\n      add\n      swap2\n    tag_224:\n      pop\n      pop\n      pop\n      pop\n      pop\n      dup2\n      mstore\n      0x20\n      add\n      0x01\n      dup3\n      add\n      dup1\n      sload\n      tag_227\n      swap1\n      tag_129\n      jump\t// in\n    tag_227:\n      dup1\n      0x1f\n      add\n      0x20\n      dup1\n      swap2\n      div\n      mul\n      0x20\n      add\n      mload(0x40)\n      swap1\n      dup2\n      add\n      0x40\n      mstore\n      dup1\n      swap3\n      swap2\n      swap1\n      dup2\n      dup2\n      mstore\n      0x20\n      add\n      dup3\n      dup1\n      sload\n      tag_228\n      swap1\n      tag_129\n      jump\t// in\n    tag_228:\n      dup1\n      iszero\n      tag_229\n      jumpi\n      dup1\n      0x1f\n      lt\n      tag_230\n      jumpi\n      0x0100\n      dup1\n      dup4\n      sload\n      div\n      mul\n      dup4\n      mstore\n      swap2\n      0x20\n      add\n      swap2\n      jump(tag_229)\n    tag_230:\n      dup3\n      add\n      swap2\n      swap1\n      0x00\n      mstore\n      keccak256(0x00, 0x20)\n      swap1\n    tag_231:\n      dup2\n      sload\n      dup2\n      mstore\n      swap1\n      0x01\n      add\n      swap1\n      0x20\n      add\n      dup1\n      dup4\n      gt\n      tag_231\n      jumpi\n      dup3\n      swap1\n      sub\n      0x1f\n      and\n      dup3\n      add\n      swap2\n    tag_229:\n      pop\n      pop\n      pop\n      pop\n      pop\n      dup2\n      mstore\n      0x20\n      add\n      0x02\n      dup3\n      add\n      dup1\n      sload\n      tag_232\n      swap1\n      tag_129\n      jump\t// in\n    tag_232:\n      dup1\n      0x1f\n      add\n      0x20\n      dup1\n      swap2\n      div\n      mul\n      0x20\n      add\n      mload(0x40)\n      swap1\n      dup2\n      add\n      0x40\n      mstore\n      dup1\n      swap3\n      swap2\n      swap1\n      dup2\n      dup2\n      mstore\n      0x20\n      add\n      dup3\n      dup1\n      sload\n      tag_233\n      swap1\n      tag_129\n      jump\t// in\n    tag_233:\n      dup1\n      iszero\n      tag_234\n      jumpi\n      dup1\n      0x1f\n      lt\n      tag_235\n      jumpi\n      0x0100\n      dup1\n      dup4\n      sload\n      div\n      mul\n      dup4\n      mstore\n      swap2\n      0x20\n      add\n      swap2\n      jump(tag_234)\n    tag_235:\n      dup3\n      add\n      swap2\n      swap1\n      0x00\n      mstore\n      keccak256(0x00, 0x20)\n      swap1\n    tag_236:\n      dup2\n      sload\n      dup2\n      mstore\n      swap1\n      0x01\n      add\n      swap1\n      0x20\n      add\n      dup1\n      dup4\n      gt\n      tag_236\n      jumpi\n      dup3\n      swap1\n      sub\n      0x1f\n      and\n      dup3\n      add\n      swap2\n    tag_234:\n      pop\n      pop\n      pop\n      pop\n      pop\n      dup2\n      mstore\n      0x20\n      add\n      0x03\n      dup3\n      add\n      dup1\n      sload\n      tag_237\n      swap1\n      tag_129\n      jump\t// in\n    tag_237:\n      dup1\n      0x1f\n      add\n      0x20\n      dup1\n      swap2\n      div\n      mul\n      0x20\n      add\n      mload(0x40)\n      swap1\n      dup2\n      add\n      0x40\n      mstore\n      dup1\n      swap3\n      swap2\n      swap1\n      dup2\n      dup2\n      mstore\n      0x20\n      add\n      dup3\n      dup1\n      sload\n      tag_238\n      swap1\n      tag_129\n      jump\t// in\n    tag_238:\n      dup1\n      iszero\n      tag_239\n      jumpi\n      dup1\n      0x1f\n      lt\n      tag_240\n      jumpi\n      0x0100\n      dup1\n      dup4\n      sload\n      div\n      mul\n      dup4\n      mstore\n      swap2\n      0x20\n      add\n      swap2\n      jump(tag_239)\n    tag_240:\n      dup3\n      add\n      swap2\n      swap1\n      0x00\n      mstore\n      keccak256(0x00, 0x20)\n      swap1\n    tag_241:\n      dup2\n      sload\n      dup2\n      mstore\n      swap1\n      0x01\n      add\n      swap1\n      0x20\n      add\n      dup1\n      dup4\n      gt\n      tag_241\n      jumpi\n      dup3\n      swap1\n      sub\n      0x1f\n      and\n      dup3\n      add\n      swap2\n    tag_239:\n      pop\n      pop\n      pop\n      pop\n      pop\n      dup2\n      mstore\n      0x20\n      add\n      0x04\n      dup3\n      add\n      dup1\n      sload\n      tag_242\n      swap1\n      tag_129\n      jump\t// in\n    tag_242:\n      dup1\n      0x1f\n      add\n      0x20\n      dup1\n      swap2\n      div\n      mul\n      0x20\n      add\n      mload(0x40)\n      swap1\n      dup2\n      add\n      0x40\n      mstore\n      dup1\n      swap3\n      swap2\n      swap1\n      dup2\n      dup2\n      mstore\n      0x20\n      add\n      dup3\n      dup1\n      sload\n      tag_243\n      swap1\n      tag_129\n      jump\t// in\n    tag_243:\n      dup1\n      iszero\n      tag_244\n      jumpi\n      dup1\n      0x1f\n      lt\n      tag_245\n      jumpi\n      0x0100\n      dup1\n      dup4\n      sload\n      div\n      mul\n      dup4\n      mstore\n      swap2\n      0x20\n      add\n      swap2\n      jump(tag_244)\n    tag_245:\n      dup3\n      add\n      swap2\n      swap1\n      0x00\n      mstore\n      keccak256(0x00, 0x20)\n      swap1\n    tag_246:\n      dup2\n      sload\n      dup2\n      mstore\n      swap1\n      0x01\n      add\n      swap1\n      0x20\n      add\n      dup1\n      dup4\n      gt\n      tag_246\n      jumpi\n      dup3\n      swap1\n      sub\n      0x1f\n      and\n      dup3\n      add\n      swap2\n    tag_244:\n      pop\n      pop\n      pop\n      pop\n      pop\n      dup2\n      mstore\n      0x20\n      add\n      0x05\n      dup3\n      add\n      dup1\n      sload\n      tag_247\n      swap1\n      tag_129\n      jump\t// in\n    tag_247:\n      dup1\n      0x1f\n      add\n      0x20\n      dup1\n      swap2\n      div\n      mul\n      0x20\n      add\n      mload(0x40)\n      swap1\n      dup2\n      add\n      0x40\n      mstore\n      dup1\n      swap3\n      swap2\n      swap1\n      dup2\n      dup2\n      mstore\n      0x20\n      add\n      dup3\n      dup1\n      sload\n      tag_248\n      swap1\n      tag_129\n      jump\t// in\n    tag_248:\n      dup1\n      iszero\n      tag_249\n      jumpi\n      dup1\n      0x1f\n      lt\n      tag_250\n      jumpi\n      0x0100\n      dup1\n      dup4\n      sload\n      div\n      mul\n      dup4\n      mstore\n      swap2\n      0x20\n      add\n      swap2\n      jump(tag_249)\n    tag_250:\n      dup3\n      add\n      swap2\n      swap1\n      0x00\n      mstore\n      keccak256(0x00, 0x20)\n      swap1\n    tag_251:\n      dup2\n      sload\n      dup2\n      mstore\n      swap1\n      0x01\n      add\n      swap1\n      0x20\n      add\n      dup1\n      dup4\n      gt\n      tag_251\n      jumpi\n      dup3\n      swap1\n      sub\n      0x1f\n      and\n      dup3\n      add\n      swap2\n    tag_249:\n      pop\n      pop\n      pop\n      pop\n      pop\n      dup2\n      mstore\n      pop\n      pop\n      swap1\n      pop\n        /* \"Campaign.sol\":2712:2716  info */\n      dup1\n        /* \"Campaign.sol\":2712:2721  info.name */\n      0x00\n      add\n      mload\n        /* \"Campaign.sol\":2723:2727  info */\n      dup2\n        /* \"Campaign.sol\":2723:2738  info.agencyName */\n      0x20\n      add\n      mload\n        /* \"Campaign.sol\":2740:2744  info */\n      dup3\n        /* \"Campaign.sol\":2740:2757  info.phoneNumbers */\n      0x40\n      add\n      mload\n        /* \"Campaign.sol\":2758:2762  info */\n      dup4\n        /* \"Campaign.sol\":2758:2767  info.addr */\n      0x60\n      add\n      mload\n        /* \"Campaign.sol\":2768:2772  info */\n      dup5\n        /* \"Campaign.sol\":2768:2778  info.email */\n      0x80\n      add\n      mload\n        /* \"Campaign.sol\":2780:2784  info */\n      dup6\n        /* \"Campaign.sol\":2780:2800  info.linkSocialmedia */\n      0xa0\n      add\n      mload\n        /* \"Campaign.sol\":2704:2801  return (info.name, info.agencyName, info.phoneNumbers,info.addr,info.email, info.linkSocialmedia) */\n      swap7\n      pop\n      swap7\n      pop\n      swap7\n      pop\n      swap7\n      pop\n      swap7\n      pop\n      swap7\n      pop\n      pop\n        /* \"Campaign.sol\":2489:2807  function getOrganiser(address addr) public view returns(string memory, string memory, string memory , string memory , string memory , string memory ){... */\n      swap2\n      swap4\n      swap6\n      pop\n      swap2\n      swap4\n      swap6\n      jump\t// out\n        /* \"Campaign.sol\":3567:3762  function getDetail(address addr) public view returns(string memory, string memory){... */\n    tag_97:\n        /* \"Campaign.sol\":3620:3633  string memory */\n      0x60\n        /* \"Campaign.sol\":3635:3648  string memory */\n      dup1\n        /* \"Campaign.sol\":3657:3675  Detail memory info */\n      0x00\n        /* \"Campaign.sol\":3678:3692  detailCampaign */\n      0x07\n        /* \"Campaign.sol\":3678:3698  detailCampaign[addr] */\n      0x00\n        /* \"Campaign.sol\":3693:3697  addr */\n      dup6\n        /* \"Campaign.sol\":3678:3698  detailCampaign[addr] */\n      0xffffffffffffffffffffffffffffffffffffffff\n      and\n      0xffffffffffffffffffffffffffffffffffffffff\n      and\n      dup2\n      mstore\n      0x20\n      add\n      swap1\n      dup2\n      mstore\n      0x20\n      add\n      0x00\n      keccak256\n        /* \"Campaign.sol\":3657:3698  Detail memory info = detailCampaign[addr] */\n      mload(0x40)\n      dup1\n      0x40\n      add\n      0x40\n      mstore\n      swap1\n      dup2\n      0x00\n      dup3\n      add\n      dup1\n      sload\n      tag_253\n      swap1\n      tag_129\n      jump\t// in\n    tag_253:\n      dup1\n      0x1f\n      add\n      0x20\n      dup1\n      swap2\n      div\n      mul\n      0x20\n      add\n      mload(0x40)\n      swap1\n      dup2\n      add\n      0x40\n      mstore\n      dup1\n      swap3\n      swap2\n      swap1\n      dup2\n      dup2\n      mstore\n      0x20\n      add\n      dup3\n      dup1\n      sload\n      tag_254\n      swap1\n      tag_129\n      jump\t// in\n    tag_254:\n      dup1\n      iszero\n      tag_255\n      jumpi\n      dup1\n      0x1f\n      lt\n      tag_256\n      jumpi\n      0x0100\n      dup1\n      dup4\n      sload\n      div\n      mul\n      dup4\n      mstore\n      swap2\n      0x20\n      add\n      swap2\n      jump(tag_255)\n    tag_256:\n      dup3\n      add\n      swap2\n      swap1\n      0x00\n      mstore\n      keccak256(0x00, 0x20)\n      swap1\n    tag_257:\n      dup2\n      sload\n      dup2\n      mstore\n      swap1\n      0x01\n      add\n      swap1\n      0x20\n      add\n      dup1\n      dup4\n      gt\n      tag_257\n      jumpi\n      dup3\n      swap1\n      sub\n      0x1f\n      and\n      dup3\n      add\n      swap2\n    tag_255:\n      pop\n      pop\n      pop\n      pop\n      pop\n      dup2\n      mstore\n      0x20\n      add\n      0x01\n      dup3\n      add\n      dup1\n      sload\n      tag_258\n      swap1\n      tag_129\n      jump\t// in\n    tag_258:\n      dup1\n      0x1f\n      add\n      0x20\n      dup1\n      swap2\n      div\n      mul\n      0x20\n      add\n      mload(0x40)\n      swap1\n      dup2\n      add\n      0x40\n      mstore\n      dup1\n      swap3\n      swap2\n      swap1\n      dup2\n      dup2\n      mstore\n      0x20\n      add\n      dup3\n      dup1\n      sload\n      tag_259\n      swap1\n      tag_129\n      jump\t// in\n    tag_259:\n      dup1\n      iszero\n      tag_260\n      jumpi\n      dup1\n      0x1f\n      lt\n      tag_261\n      jumpi\n      0x0100\n      dup1\n      dup4\n      sload\n      div\n      mul\n      dup4\n      mstore\n      swap2\n      0x20\n      add\n      swap2\n      jump(tag_260)\n    tag_261:\n      dup3\n      add\n      swap2\n      swap1\n      0x00\n      mstore\n      keccak256(0x00, 0x20)\n      swap1\n    tag_262:\n      dup2\n      sload\n      dup2\n      mstore\n      swap1\n      0x01\n      add\n      swap1\n      0x20\n      add\n      dup1\n      dup4\n      gt\n      tag_262\n      jumpi\n      dup3\n      swap1\n      sub\n      0x1f\n      and\n      dup3\n      add\n      swap2\n    tag_260:\n      pop\n      pop\n      pop\n      pop\n      pop\n      dup2\n      mstore\n      pop\n      pop\n      swap1\n      pop\n        /* \"Campaign.sol\":3716:3720  info */\n      dup1\n        /* \"Campaign.sol\":3716:3733  info.campaignName */\n      0x00\n      add\n      mload\n        /* \"Campaign.sol\":3735:3739  info */\n      dup2\n        /* \"Campaign.sol\":3735:3755  info.summaryCampaign */\n      0x20\n      add\n      mload\n        /* \"Campaign.sol\":3708:3756  return (info.campaignName, info.summaryCampaign) */\n      swap3\n      pop\n      swap3\n      pop\n      pop\n        /* \"Campaign.sol\":3567:3762  function getDetail(address addr) public view returns(string memory, string memory){... */\n      swap2\n      pop\n      swap2\n      jump\t// out\n        /* \"Campaign.sol\":568:608  mapping (address => bool) public donater */\n    tag_102:\n      mstore(0x20, 0x01)\n      dup1\n      0x00\n      mstore\n      keccak256(0x00, 0x40)\n      0x00\n      swap2\n      pop\n      sload\n      swap1\n      0x0100\n      exp\n      swap1\n      div\n      0xff\n      and\n      dup2\n      jump\t// out\n        /* \"Campaign.sol\":682:709  uint256 public donaterCount */\n    tag_107:\n      sload(0x04)\n      dup2\n      jump\t// out\n        /* \"Campaign.sol\":714:769  mapping (address => Infoorganiser) public infoOrganiser */\n    tag_112:\n      mstore(0x20, 0x05)\n      dup1\n      0x00\n      mstore\n      keccak256(0x00, 0x40)\n      0x00\n      swap2\n      pop\n      swap1\n      pop\n      dup1\n      0x00\n      add\n      dup1\n      sload\n      tag_263\n      swap1\n      tag_129\n      jump\t// in\n    tag_263:\n      dup1\n      0x1f\n      add\n      0x20\n      dup1\n      swap2\n      div\n      mul\n      0x20\n      add\n      mload(0x40)\n      swap1\n      dup2\n      add\n      0x40\n      mstore\n      dup1\n      swap3\n      swap2\n      swap1\n      dup2\n      dup2\n      mstore\n      0x20\n      add\n      dup3\n      dup1\n      sload\n      tag_264\n      swap1\n      tag_129\n      jump\t// in\n    tag_264:\n      dup1\n      iszero\n      tag_265\n      jumpi\n      dup1\n      0x1f\n      lt\n      tag_266\n      jumpi\n      0x0100\n      dup1\n      dup4\n      sload\n      div\n      mul\n      dup4\n      mstore\n      swap2\n      0x20\n      add\n      swap2\n      jump(tag_265)\n    tag_266:\n      dup3\n      add\n      swap2\n      swap1\n      0x00\n      mstore\n      keccak256(0x00, 0x20)\n      swap1\n    tag_267:\n      dup2\n      sload\n      dup2\n      mstore\n      swap1\n      0x01\n      add\n      swap1\n      0x20\n      add\n      dup1\n      dup4\n      gt\n      tag_267\n      jumpi\n      dup3\n      swap1\n      sub\n      0x1f\n      and\n      dup3\n      add\n      swap2\n    tag_265:\n      pop\n      pop\n      pop\n      pop\n      pop\n      swap1\n      dup1\n      0x01\n      add\n      dup1\n      sload\n      tag_268\n      swap1\n      tag_129\n      jump\t// in\n    tag_268:\n      dup1\n      0x1f\n      add\n      0x20\n      dup1\n      swap2\n      div\n      mul\n      0x20\n      add\n      mload(0x40)\n      swap1\n      dup2\n      add\n      0x40\n      mstore\n      dup1\n      swap3\n      swap2\n      swap1\n      dup2\n      dup2\n      mstore\n      0x20\n      add\n      dup3\n      dup1\n      sload\n      tag_269\n      swap1\n      tag_129\n      jump\t// in\n    tag_269:\n      dup1\n      iszero\n      tag_270\n      jumpi\n      dup1\n      0x1f\n      lt\n      tag_271\n      jumpi\n      0x0100\n      dup1\n      dup4\n      sload\n      div\n      mul\n      dup4\n      mstore\n      swap2\n      0x20\n      add\n      swap2\n      jump(tag_270)\n    tag_271:\n      dup3\n      add\n      swap2\n      swap1\n      0x00\n      mstore\n      keccak256(0x00, 0x20)\n      swap1\n    tag_272:\n      dup2\n      sload\n      dup2\n      mstore\n      swap1\n      0x01\n      add\n      swap1\n      0x20\n      add\n      dup1\n      dup4\n      gt\n      tag_272\n      jumpi\n      dup3\n      swap1\n      sub\n      0x1f\n      and\n      dup3\n      add\n      swap2\n    tag_270:\n      pop\n      pop\n      pop\n      pop\n      pop\n      swap1\n      dup1\n      0x02\n      add\n      dup1\n      sload\n      tag_273\n      swap1\n      tag_129\n      jump\t// in\n    tag_273:\n      dup1\n      0x1f\n      add\n      0x20\n      dup1\n      swap2\n      div\n      mul\n      0x20\n      add\n      mload(0x40)\n      swap1\n      dup2\n      add\n      0x40\n      mstore\n      dup1\n      swap3\n      swap2\n      swap1\n      dup2\n      dup2\n      mstore\n      0x20\n      add\n      dup3\n      dup1\n      sload\n      tag_274\n      swap1\n      tag_129\n      jump\t// in\n    tag_274:\n      dup1\n      iszero\n      tag_275\n      jumpi\n      dup1\n      0x1f\n      lt\n      tag_276\n      jumpi\n      0x0100\n      dup1\n      dup4\n      sload\n      div\n      mul\n      dup4\n      mstore\n      swap2\n      0x20\n      add\n      swap2\n      jump(tag_275)\n    tag_276:\n      dup3\n      add\n      swap2\n      swap1\n      0x00\n      mstore\n      keccak256(0x00, 0x20)\n      swap1\n    tag_277:\n      dup2\n      sload\n      dup2\n      mstore\n      swap1\n      0x01\n      add\n      swap1\n      0x20\n      add\n      dup1\n      dup4\n      gt\n      tag_277\n      jumpi\n      dup3\n      swap1\n      sub\n      0x1f\n      and\n      dup3\n      add\n      swap2\n    tag_275:\n      pop\n      pop\n      pop\n      pop\n      pop\n      swap1\n      dup1\n      0x03\n      add\n      dup1\n      sload\n      tag_278\n      swap1\n      tag_129\n      jump\t// in\n    tag_278:\n      dup1\n      0x1f\n      add\n      0x20\n      dup1\n      swap2\n      div\n      mul\n      0x20\n      add\n      mload(0x40)\n      swap1\n      dup2\n      add\n      0x40\n      mstore\n      dup1\n      swap3\n      swap2\n      swap1\n      dup2\n      dup2\n      mstore\n      0x20\n      add\n      dup3\n      dup1\n      sload\n      tag_279\n      swap1\n      tag_129\n      jump\t// in\n    tag_279:\n      dup1\n      iszero\n      tag_280\n      jumpi\n      dup1\n      0x1f\n      lt\n      tag_281\n      jumpi\n      0x0100\n      dup1\n      dup4\n      sload\n      div\n      mul\n      dup4\n      mstore\n      swap2\n      0x20\n      add\n      swap2\n      jump(tag_280)\n    tag_281:\n      dup3\n      add\n      swap2\n      swap1\n      0x00\n      mstore\n      keccak256(0x00, 0x20)\n      swap1\n    tag_282:\n      dup2\n      sload\n      dup2\n      mstore\n      swap1\n      0x01\n      add\n      swap1\n      0x20\n      add\n      dup1\n      dup4\n      gt\n      tag_282\n      jumpi\n      dup3\n      swap1\n      sub\n      0x1f\n      and\n      dup3\n      add\n      swap2\n    tag_280:\n      pop\n      pop\n      pop\n      pop\n      pop\n      swap1\n      dup1\n      0x04\n      add\n      dup1\n      sload\n      tag_283\n      swap1\n      tag_129\n      jump\t// in\n    tag_283:\n      dup1\n      0x1f\n      add\n      0x20\n      dup1\n      swap2\n      div\n      mul\n      0x20\n      add\n      mload(0x40)\n      swap1\n      dup2\n      add\n      0x40\n      mstore\n      dup1\n      swap3\n      swap2\n      swap1\n      dup2\n      dup2\n      mstore\n      0x20\n      add\n      dup3\n      dup1\n      sload\n      tag_284\n      swap1\n      tag_129\n      jump\t// in\n    tag_284:\n      dup1\n      iszero\n      tag_285\n      jumpi\n      dup1\n      0x1f\n      lt\n      tag_286\n      jumpi\n      0x0100\n      dup1\n      dup4\n      sload\n      div\n      mul\n      dup4\n      mstore\n      swap2\n      0x20\n      add\n      swap2\n      jump(tag_285)\n    tag_286:\n      dup3\n      add\n      swap2\n      swap1\n      0x00\n      mstore\n      keccak256(0x00, 0x20)\n      swap1\n    tag_287:\n      dup2\n      sload\n      dup2\n      mstore\n      swap1\n      0x01\n      add\n      swap1\n      0x20\n      add\n      dup1\n      dup4\n      gt\n      tag_287\n      jumpi\n      dup3\n      swap1\n      sub\n      0x1f\n      and\n      dup3\n      add\n      swap2\n    tag_285:\n      pop\n      pop\n      pop\n      pop\n      pop\n      swap1\n      dup1\n      0x05\n      add\n      dup1\n      sload\n      tag_288\n      swap1\n      tag_129\n      jump\t// in\n    tag_288:\n      dup1\n      0x1f\n      add\n      0x20\n      dup1\n      swap2\n      div\n      mul\n      0x20\n      add\n      mload(0x40)\n      swap1\n      dup2\n      add\n      0x40\n      mstore\n      dup1\n      swap3\n      swap2\n      swap1\n      dup2\n      dup2\n      mstore\n      0x20\n      add\n      dup3\n      dup1\n      sload\n      tag_289\n      swap1\n      tag_129\n      jump\t// in\n    tag_289:\n      dup1\n      iszero\n      tag_290\n      jumpi\n      dup1\n      0x1f\n      lt\n      tag_291\n      jumpi\n      0x0100\n      dup1\n      dup4\n      sload\n      div\n      mul\n      dup4\n      mstore\n      swap2\n      0x20\n      add\n      swap2\n      jump(tag_290)\n    tag_291:\n      dup3\n      add\n      swap2\n      swap1\n      0x00\n      mstore\n      keccak256(0x00, 0x20)\n      swap1\n    tag_292:\n      dup2\n      sload\n      dup2\n      mstore\n      swap1\n      0x01\n      add\n      swap1\n      0x20\n      add\n      dup1\n      dup4\n      gt\n      tag_292\n      jumpi\n      dup3\n      swap1\n      sub\n      0x1f\n      and\n      dup3\n      add\n      swap2\n    tag_290:\n      pop\n      pop\n      pop\n      pop\n      pop\n      swap1\n      pop\n      dup7\n      jump\t// out\n        /* \"Campaign.sol\":2813:3084  function setReference(string memory _name, string memory _phoneNumbers,string memory _addr, string memory _email, string memory _linkSocialmedia) public restricted {... */\n    tag_118:\n        /* \"Campaign.sol\":1758:1767  organiser */\n      0x00\n      dup1\n      sload\n      swap1\n      0x0100\n      exp\n      swap1\n      div\n      0xffffffffffffffffffffffffffffffffffffffff\n      and\n        /* \"Campaign.sol\":1744:1767  msg.sender == organiser */\n      0xffffffffffffffffffffffffffffffffffffffff\n      and\n        /* \"Campaign.sol\":1744:1754  msg.sender */\n      caller\n        /* \"Campaign.sol\":1744:1767  msg.sender == organiser */\n      0xffffffffffffffffffffffffffffffffffffffff\n      and\n      eq\n        /* \"Campaign.sol\":1736:1768  require(msg.sender == organiser) */\n      tag_294\n      jumpi\n      0x00\n      dup1\n      revert\n    tag_294:\n        /* \"Campaign.sol\":3014:3078  Inforeference(_name,_phoneNumbers,_addr,_email,_linkSocialmedia) */\n      mload(0x40)\n      dup1\n      0xa0\n      add\n      0x40\n      mstore\n      dup1\n        /* \"Campaign.sol\":3028:3033  _name */\n      dup7\n        /* \"Campaign.sol\":3014:3078  Inforeference(_name,_phoneNumbers,_addr,_email,_linkSocialmedia) */\n      dup2\n      mstore\n      0x20\n      add\n        /* \"Campaign.sol\":3034:3047  _phoneNumbers */\n      dup6\n        /* \"Campaign.sol\":3014:3078  Inforeference(_name,_phoneNumbers,_addr,_email,_linkSocialmedia) */\n      dup2\n      mstore\n      0x20\n      add\n        /* \"Campaign.sol\":3048:3053  _addr */\n      dup5\n        /* \"Campaign.sol\":3014:3078  Inforeference(_name,_phoneNumbers,_addr,_email,_linkSocialmedia) */\n      dup2\n      mstore\n      0x20\n      add\n        /* \"Campaign.sol\":3054:3060  _email */\n      dup4\n        /* \"Campaign.sol\":3014:3078  Inforeference(_name,_phoneNumbers,_addr,_email,_linkSocialmedia) */\n      dup2\n      mstore\n      0x20\n      add\n        /* \"Campaign.sol\":3061:3077  _linkSocialmedia */\n      dup3\n        /* \"Campaign.sol\":3014:3078  Inforeference(_name,_phoneNumbers,_addr,_email,_linkSocialmedia) */\n      dup2\n      mstore\n      pop\n        /* \"Campaign.sol\":2986:2999  infoReference */\n      0x06\n        /* \"Campaign.sol\":2986:3011  infoReference[msg.sender] */\n      0x00\n        /* \"Campaign.sol\":3000:3010  msg.sender */\n      caller\n        /* \"Campaign.sol\":2986:3011  infoReference[msg.sender] */\n      0xffffffffffffffffffffffffffffffffffffffff\n      and\n      0xffffffffffffffffffffffffffffffffffffffff\n      and\n      dup2\n      mstore\n      0x20\n      add\n      swap1\n      dup2\n      mstore\n      0x20\n      add\n      0x00\n      keccak256\n        /* \"Campaign.sol\":2986:3078  infoReference[msg.sender] = Inforeference(_name,_phoneNumbers,_addr,_email,_linkSocialmedia) */\n      0x00\n      dup3\n      add\n      mload\n      dup2\n      0x00\n      add\n      swap1\n      dup1\n      mload\n      swap1\n      0x20\n      add\n      swap1\n      tag_296\n      swap3\n      swap2\n      swap1\n      tag_158\n      jump\t// in\n    tag_296:\n      pop\n      0x20\n      dup3\n      add\n      mload\n      dup2\n      0x01\n      add\n      swap1\n      dup1\n      mload\n      swap1\n      0x20\n      add\n      swap1\n      tag_297\n      swap3\n      swap2\n      swap1\n      tag_158\n      jump\t// in\n    tag_297:\n      pop\n      0x40\n      dup3\n      add\n      mload\n      dup2\n      0x02\n      add\n      swap1\n      dup1\n      mload\n      swap1\n      0x20\n      add\n      swap1\n      tag_298\n      swap3\n      swap2\n      swap1\n      tag_158\n      jump\t// in\n    tag_298:\n      pop\n      0x60\n      dup3\n      add\n      mload\n      dup2\n      0x03\n      add\n      swap1\n      dup1\n      mload\n      swap1\n      0x20\n      add\n      swap1\n      tag_299\n      swap3\n      swap2\n      swap1\n      tag_158\n      jump\t// in\n    tag_299:\n      pop\n      0x80\n      dup3\n      add\n      mload\n      dup2\n      0x04\n      add\n      swap1\n      dup1\n      mload\n      swap1\n      0x20\n      add\n      swap1\n      tag_300\n      swap3\n      swap2\n      swap1\n      tag_158\n      jump\t// in\n    tag_300:\n      pop\n      swap1\n      pop\n      pop\n        /* \"Campaign.sol\":2813:3084  function setReference(string memory _name, string memory _phoneNumbers,string memory _addr, string memory _email, string memory _linkSocialmedia) public restricted {... */\n      pop\n      pop\n      pop\n      pop\n      pop\n      jump\t// out\n        /* \"Campaign.sol\":1906:1990  function setTargetdonation(uint target) public {... */\n    tag_122:\n        /* \"Campaign.sol\":1978:1984  target */\n      dup1\n        /* \"Campaign.sol\":1962:1976  targetDonation */\n      0x03\n        /* \"Campaign.sol\":1962:1984  targetDonation= target */\n      dup2\n      swap1\n      sstore\n      pop\n        /* \"Campaign.sol\":1906:1990  function setTargetdonation(uint target) public {... */\n      pop\n      jump\t// out\n        /* \"Campaign.sol\":4506:4810  function finaliseRequest(uint index) public... */\n    tag_125:\n        /* \"Campaign.sol\":1758:1767  organiser */\n      0x00\n      dup1\n      sload\n      swap1\n      0x0100\n      exp\n      swap1\n      div\n      0xffffffffffffffffffffffffffffffffffffffff\n      and\n        /* \"Campaign.sol\":1744:1767  msg.sender == organiser */\n      0xffffffffffffffffffffffffffffffffffffffff\n      and\n        /* \"Campaign.sol\":1744:1754  msg.sender */\n      caller\n        /* \"Campaign.sol\":1744:1767  msg.sender == organiser */\n      0xffffffffffffffffffffffffffffffffffffffff\n      and\n      eq\n        /* \"Campaign.sol\":1736:1768  require(msg.sender == organiser) */\n      tag_303\n      jumpi\n      0x00\n      dup1\n      revert\n    tag_303:\n        /* \"Campaign.sol\":4586:4609  Request storage request */\n      0x00\n        /* \"Campaign.sol\":4612:4620  requests */\n      0x08\n        /* \"Campaign.sol\":4612:4627  requests[index] */\n      0x00\n        /* \"Campaign.sol\":4621:4626  index */\n      dup4\n        /* \"Campaign.sol\":4612:4627  requests[index] */\n      dup2\n      mstore\n      0x20\n      add\n      swap1\n      dup2\n      mstore\n      0x20\n      add\n      0x00\n      keccak256\n        /* \"Campaign.sol\":4586:4627  Request storage request = requests[index] */\n      swap1\n      pop\n        /* \"Campaign.sol\":4684:4685  2 */\n      0x02\n        /* \"Campaign.sol\":4670:4682  donaterCount */\n      sload(0x04)\n        /* \"Campaign.sol\":4670:4685  donaterCount /2 */\n      tag_305\n      swap2\n      swap1\n      tag_306\n      jump\t// in\n    tag_305:\n        /* \"Campaign.sol\":4645:4652  request */\n      dup2\n        /* \"Campaign.sol\":4645:4666  request.approvalCount */\n      0x03\n      add\n      sload\n        /* \"Campaign.sol\":4645:4686  request.approvalCount > (donaterCount /2) */\n      gt\n        /* \"Campaign.sol\":4637:4687  require(request.approvalCount > (donaterCount /2)) */\n      tag_307\n      jumpi\n      0x00\n      dup1\n      revert\n    tag_307:\n        /* \"Campaign.sol\":4706:4713  request */\n      dup1\n        /* \"Campaign.sol\":4706:4722  request.complete */\n      0x02\n      add\n      0x14\n      swap1\n      sload\n      swap1\n      0x0100\n      exp\n      swap1\n      div\n      0xff\n      and\n        /* \"Campaign.sol\":4705:4722  !request.complete */\n      iszero\n        /* \"Campaign.sol\":4697:4723  require(!request.complete) */\n      tag_308\n      jumpi\n      0x00\n      dup1\n      revert\n    tag_308:\n        /* \"Campaign.sol\":4733:4740  request */\n      dup1\n        /* \"Campaign.sol\":4733:4750  request.recipient */\n      0x02\n      add\n      0x00\n      swap1\n      sload\n      swap1\n      0x0100\n      exp\n      swap1\n      div\n      0xffffffffffffffffffffffffffffffffffffffff\n      and\n        /* \"Campaign.sol\":4733:4759  request.recipient.transfer */\n      0xffffffffffffffffffffffffffffffffffffffff\n      and\n        /* \"Campaign.sol\":4733:4770  request.recipient.transfer(msg.value) */\n      0x08fc\n        /* \"Campaign.sol\":4760:4769  msg.value */\n      callvalue\n        /* \"Campaign.sol\":4733:4770  request.recipient.transfer(msg.value) */\n      swap1\n      dup2\n      iszero\n      mul\n      swap1\n      mload(0x40)\n      0x00\n      mload(0x40)\n      dup1\n      dup4\n      sub\n      dup2\n      dup6\n      dup9\n      dup9\n      call\n      swap4\n      pop\n      pop\n      pop\n      pop\n      iszero\n      dup1\n      iszero\n      tag_310\n      jumpi\n      returndatasize\n      0x00\n      dup1\n      returndatacopy\n      revert(0x00, returndatasize)\n    tag_310:\n      pop\n        /* \"Campaign.sol\":4799:4803  true */\n      0x01\n        /* \"Campaign.sol\":4780:4787  request */\n      dup2\n        /* \"Campaign.sol\":4780:4796  request.complete */\n      0x02\n      add\n      0x14\n        /* \"Campaign.sol\":4780:4803  request.complete = true */\n      0x0100\n      exp\n      dup2\n      sload\n      dup2\n      0xff\n      mul\n      not\n      and\n      swap1\n      dup4\n      iszero\n      iszero\n      mul\n      or\n      swap1\n      sstore\n      pop\n        /* \"Campaign.sol\":1777:1778  _ */\n      pop\n        /* \"Campaign.sol\":4506:4810  function finaliseRequest(uint index) public... */\n      pop\n      jump\t// out\n        /* \"Campaign.sol\":1996:2170  function donate() public payable{... */\n    tag_127:\n        /* \"Campaign.sol\":2057:2072  minimumDonation */\n      sload(0x02)\n        /* \"Campaign.sol\":2045:2054  msg.value */\n      callvalue\n        /* \"Campaign.sol\":2045:2072  msg.value >=minimumDonation */\n      lt\n      iszero\n        /* \"Campaign.sol\":2037:2073  require(msg.value >=minimumDonation) */\n      tag_312\n      jumpi\n      0x00\n      dup1\n      revert\n    tag_312:\n        /* \"Campaign.sol\":2086:2093  donater */\n      0x01\n        /* \"Campaign.sol\":2086:2105  donater[msg.sender] */\n      0x00\n        /* \"Campaign.sol\":2094:2104  msg.sender */\n      caller\n        /* \"Campaign.sol\":2086:2105  donater[msg.sender] */\n      0xffffffffffffffffffffffffffffffffffffffff\n      and\n      0xffffffffffffffffffffffffffffffffffffffff\n      and\n      dup2\n      mstore\n      0x20\n      add\n      swap1\n      dup2\n      mstore\n      0x20\n      add\n      0x00\n      keccak256\n      0x00\n      swap1\n      sload\n      swap1\n      0x0100\n      exp\n      swap1\n      div\n      0xff\n      and\n        /* \"Campaign.sol\":2082:2129  if(!donater[msg.sender]) {... */\n      tag_313\n      jumpi\n        /* \"Campaign.sol\":2112:2124  donaterCount */\n      0x04\n      0x00\n        /* \"Campaign.sol\":2112:2126  donaterCount++ */\n      dup2\n      sload\n      dup1\n      swap3\n      swap2\n      swap1\n      tag_314\n      swap1\n      tag_216\n      jump\t// in\n    tag_314:\n      swap2\n      swap1\n      pop\n      sstore\n      pop\n        /* \"Campaign.sol\":2082:2129  if(!donater[msg.sender]) {... */\n    tag_313:\n        /* \"Campaign.sol\":2159:2163  true */\n      0x01\n        /* \"Campaign.sol\":2137:2144  donater */\n      dup1\n        /* \"Campaign.sol\":2137:2156  donater[msg.sender] */\n      0x00\n        /* \"Campaign.sol\":2145:2155  msg.sender */\n      caller\n        /* \"Campaign.sol\":2137:2156  donater[msg.sender] */\n      0xffffffffffffffffffffffffffffffffffffffff\n      and\n      0xffffffffffffffffffffffffffffffffffffffff\n      and\n      dup2\n      mstore\n      0x20\n      add\n      swap1\n      dup2\n      mstore\n      0x20\n      add\n      0x00\n      keccak256\n      0x00\n        /* \"Campaign.sol\":2137:2163  donater[msg.sender] = true */\n      0x0100\n      exp\n      dup2\n      sload\n      dup2\n      0xff\n      mul\n      not\n      and\n      swap1\n      dup4\n      iszero\n      iszero\n      mul\n      or\n      swap1\n      sstore\n      pop\n        /* \"Campaign.sol\":1996:2170  function donate() public payable{... */\n      jump\t// out\n    tag_158:\n      dup3\n      dup1\n      sload\n      tag_315\n      swap1\n      tag_129\n      jump\t// in\n    tag_315:\n      swap1\n      0x00\n      mstore\n      keccak256(0x00, 0x20)\n      swap1\n      0x1f\n      add\n      0x20\n      swap1\n      div\n      dup2\n      add\n      swap3\n      dup3\n      tag_317\n      jumpi\n      0x00\n      dup6\n      sstore\n      jump(tag_316)\n    tag_317:\n      dup3\n      0x1f\n      lt\n      tag_318\n      jumpi\n      dup1\n      mload\n      not(0xff)\n      and\n      dup4\n      dup1\n      add\n      or\n      dup6\n      sstore\n      jump(tag_316)\n    tag_318:\n      dup3\n      dup1\n      add\n      0x01\n      add\n      dup6\n      sstore\n      dup3\n      iszero\n      tag_316\n      jumpi\n      swap2\n      dup3\n      add\n    tag_319:\n      dup3\n      dup2\n      gt\n      iszero\n      tag_320\n      jumpi\n      dup3\n      mload\n      dup3\n      sstore\n      swap2\n      0x20\n      add\n      swap2\n      swap1\n      0x01\n      add\n      swap1\n      jump(tag_319)\n    tag_320:\n    tag_316:\n      pop\n      swap1\n      pop\n      tag_321\n      swap2\n      swap1\n      tag_322\n      jump\t// in\n    tag_321:\n      pop\n      swap1\n      jump\t// out\n    tag_322:\n    tag_323:\n      dup1\n      dup3\n      gt\n      iszero\n      tag_324\n      jumpi\n      0x00\n      dup2\n      0x00\n      swap1\n      sstore\n      pop\n      0x01\n      add\n      jump(tag_323)\n    tag_324:\n      pop\n      swap1\n      jump\t// out\n        /* \"#utility.yul\":7:352   */\n    tag_326:\n      0x00\n        /* \"#utility.yul\":110:176   */\n      tag_328\n        /* \"#utility.yul\":126:175   */\n      tag_329\n        /* \"#utility.yul\":168:174   */\n      dup5\n        /* \"#utility.yul\":126:175   */\n      tag_330\n      jump\t// in\n    tag_329:\n        /* \"#utility.yul\":110:176   */\n      tag_331\n      jump\t// in\n    tag_328:\n        /* \"#utility.yul\":101:176   */\n      swap1\n      pop\n        /* \"#utility.yul\":199:205   */\n      dup3\n        /* \"#utility.yul\":192:197   */\n      dup2\n        /* \"#utility.yul\":185:206   */\n      mstore\n        /* \"#utility.yul\":237:241   */\n      0x20\n        /* \"#utility.yul\":230:235   */\n      dup2\n        /* \"#utility.yul\":226:242   */\n      add\n        /* \"#utility.yul\":275:278   */\n      dup5\n        /* \"#utility.yul\":266:272   */\n      dup5\n        /* \"#utility.yul\":261:264   */\n      dup5\n        /* \"#utility.yul\":257:273   */\n      add\n        /* \"#utility.yul\":254:279   */\n      gt\n        /* \"#utility.yul\":251:253   */\n      iszero\n      tag_332\n      jumpi\n        /* \"#utility.yul\":292:293   */\n      0x00\n        /* \"#utility.yul\":289:290   */\n      dup1\n        /* \"#utility.yul\":282:294   */\n      revert\n        /* \"#utility.yul\":251:253   */\n    tag_332:\n        /* \"#utility.yul\":305:346   */\n      tag_333\n        /* \"#utility.yul\":339:345   */\n      dup5\n        /* \"#utility.yul\":334:337   */\n      dup3\n        /* \"#utility.yul\":329:332   */\n      dup6\n        /* \"#utility.yul\":305:346   */\n      tag_334\n      jump\t// in\n    tag_333:\n        /* \"#utility.yul\":91:352   */\n      pop\n      swap4\n      swap3\n      pop\n      pop\n      pop\n      jump\t// out\n        /* \"#utility.yul\":358:497   */\n    tag_335:\n      0x00\n        /* \"#utility.yul\":442:448   */\n      dup2\n        /* \"#utility.yul\":429:449   */\n      calldataload\n        /* \"#utility.yul\":420:449   */\n      swap1\n      pop\n        /* \"#utility.yul\":458:491   */\n      tag_337\n        /* \"#utility.yul\":485:490   */\n      dup2\n        /* \"#utility.yul\":458:491   */\n      tag_338\n      jump\t// in\n    tag_337:\n        /* \"#utility.yul\":410:497   */\n      swap3\n      swap2\n      pop\n      pop\n      jump\t// out\n        /* \"#utility.yul\":503:658   */\n    tag_339:\n      0x00\n        /* \"#utility.yul\":595:601   */\n      dup2\n        /* \"#utility.yul\":582:602   */\n      calldataload\n        /* \"#utility.yul\":573:602   */\n      swap1\n      pop\n        /* \"#utility.yul\":611:652   */\n      tag_341\n        /* \"#utility.yul\":646:651   */\n      dup2\n        /* \"#utility.yul\":611:652   */\n      tag_342\n      jump\t// in\n    tag_341:\n        /* \"#utility.yul\":563:658   */\n      swap3\n      swap2\n      pop\n      pop\n      jump\t// out\n        /* \"#utility.yul\":678:951   */\n    tag_343:\n      0x00\n        /* \"#utility.yul\":783:786   */\n      dup3\n        /* \"#utility.yul\":776:780   */\n      0x1f\n        /* \"#utility.yul\":768:774   */\n      dup4\n        /* \"#utility.yul\":764:781   */\n      add\n        /* \"#utility.yul\":760:787   */\n      slt\n        /* \"#utility.yul\":750:752   */\n      tag_345\n      jumpi\n        /* \"#utility.yul\":801:802   */\n      0x00\n        /* \"#utility.yul\":798:799   */\n      dup1\n        /* \"#utility.yul\":791:803   */\n      revert\n        /* \"#utility.yul\":750:752   */\n    tag_345:\n        /* \"#utility.yul\":841:847   */\n      dup2\n        /* \"#utility.yul\":828:848   */\n      calldataload\n        /* \"#utility.yul\":866:945   */\n      tag_346\n        /* \"#utility.yul\":941:944   */\n      dup5\n        /* \"#utility.yul\":933:939   */\n      dup3\n        /* \"#utility.yul\":926:930   */\n      0x20\n        /* \"#utility.yul\":918:924   */\n      dup7\n        /* \"#utility.yul\":914:931   */\n      add\n        /* \"#utility.yul\":866:945   */\n      tag_326\n      jump\t// in\n    tag_346:\n        /* \"#utility.yul\":857:945   */\n      swap2\n      pop\n        /* \"#utility.yul\":740:951   */\n      pop\n      swap3\n      swap2\n      pop\n      pop\n      jump\t// out\n        /* \"#utility.yul\":957:1096   */\n    tag_347:\n      0x00\n        /* \"#utility.yul\":1041:1047   */\n      dup2\n        /* \"#utility.yul\":1028:1048   */\n      calldataload\n        /* \"#utility.yul\":1019:1048   */\n      swap1\n      pop\n        /* \"#utility.yul\":1057:1090   */\n      tag_349\n        /* \"#utility.yul\":1084:1089   */\n      dup2\n        /* \"#utility.yul\":1057:1090   */\n      tag_350\n      jump\t// in\n    tag_349:\n        /* \"#utility.yul\":1009:1096   */\n      swap3\n      swap2\n      pop\n      pop\n      jump\t// out\n        /* \"#utility.yul\":1102:1364   */\n    tag_34:\n      0x00\n        /* \"#utility.yul\":1210:1212   */\n      0x20\n        /* \"#utility.yul\":1198:1207   */\n      dup3\n        /* \"#utility.yul\":1189:1196   */\n      dup5\n        /* \"#utility.yul\":1185:1208   */\n      sub\n        /* \"#utility.yul\":1181:1213   */\n      slt\n        /* \"#utility.yul\":1178:1180   */\n      iszero\n      tag_352\n      jumpi\n        /* \"#utility.yul\":1226:1227   */\n      0x00\n        /* \"#utility.yul\":1223:1224   */\n      dup1\n        /* \"#utility.yul\":1216:1228   */\n      revert\n        /* \"#utility.yul\":1178:1180   */\n    tag_352:\n        /* \"#utility.yul\":1269:1270   */\n      0x00\n        /* \"#utility.yul\":1294:1347   */\n      tag_353\n        /* \"#utility.yul\":1339:1346   */\n      dup5\n        /* \"#utility.yul\":1330:1336   */\n      dup3\n        /* \"#utility.yul\":1319:1328   */\n      dup6\n        /* \"#utility.yul\":1315:1337   */\n      add\n        /* \"#utility.yul\":1294:1347   */\n      tag_335\n      jump\t// in\n    tag_353:\n        /* \"#utility.yul\":1284:1347   */\n      swap2\n      pop\n        /* \"#utility.yul\":1240:1357   */\n      pop\n        /* \"#utility.yul\":1168:1364   */\n      swap3\n      swap2\n      pop\n      pop\n      jump\t// out\n        /* \"#utility.yul\":1370:2003   */\n    tag_41:\n      0x00\n      dup1\n        /* \"#utility.yul\":1515:1517   */\n      0x40\n        /* \"#utility.yul\":1503:1512   */\n      dup4\n        /* \"#utility.yul\":1494:1501   */\n      dup6\n        /* \"#utility.yul\":1490:1513   */\n      sub\n        /* \"#utility.yul\":1486:1518   */\n      slt\n        /* \"#utility.yul\":1483:1485   */\n      iszero\n      tag_355\n      jumpi\n        /* \"#utility.yul\":1531:1532   */\n      0x00\n        /* \"#utility.yul\":1528:1529   */\n      dup1\n        /* \"#utility.yul\":1521:1533   */\n      revert\n        /* \"#utility.yul\":1483:1485   */\n    tag_355:\n        /* \"#utility.yul\":1602:1603   */\n      0x00\n        /* \"#utility.yul\":1591:1600   */\n      dup4\n        /* \"#utility.yul\":1587:1604   */\n      add\n        /* \"#utility.yul\":1574:1605   */\n      calldataload\n        /* \"#utility.yul\":1632:1650   */\n      0xffffffffffffffff\n        /* \"#utility.yul\":1624:1630   */\n      dup2\n        /* \"#utility.yul\":1621:1651   */\n      gt\n        /* \"#utility.yul\":1618:1620   */\n      iszero\n      tag_356\n      jumpi\n        /* \"#utility.yul\":1664:1665   */\n      0x00\n        /* \"#utility.yul\":1661:1662   */\n      dup1\n        /* \"#utility.yul\":1654:1666   */\n      revert\n        /* \"#utility.yul\":1618:1620   */\n    tag_356:\n        /* \"#utility.yul\":1692:1755   */\n      tag_357\n        /* \"#utility.yul\":1747:1754   */\n      dup6\n        /* \"#utility.yul\":1738:1744   */\n      dup3\n        /* \"#utility.yul\":1727:1736   */\n      dup7\n        /* \"#utility.yul\":1723:1745   */\n      add\n        /* \"#utility.yul\":1692:1755   */\n      tag_343\n      jump\t// in\n    tag_357:\n        /* \"#utility.yul\":1682:1755   */\n      swap3\n      pop\n        /* \"#utility.yul\":1545:1765   */\n      pop\n        /* \"#utility.yul\":1832:1834   */\n      0x20\n        /* \"#utility.yul\":1821:1830   */\n      dup4\n        /* \"#utility.yul\":1817:1835   */\n      add\n        /* \"#utility.yul\":1804:1836   */\n      calldataload\n        /* \"#utility.yul\":1863:1881   */\n      0xffffffffffffffff\n        /* \"#utility.yul\":1855:1861   */\n      dup2\n        /* \"#utility.yul\":1852:1882   */\n      gt\n        /* \"#utility.yul\":1849:1851   */\n      iszero\n      tag_358\n      jumpi\n        /* \"#utility.yul\":1895:1896   */\n      0x00\n        /* \"#utility.yul\":1892:1893   */\n      dup1\n        /* \"#utility.yul\":1885:1897   */\n      revert\n        /* \"#utility.yul\":1849:1851   */\n    tag_358:\n        /* \"#utility.yul\":1923:1986   */\n      tag_359\n        /* \"#utility.yul\":1978:1985   */\n      dup6\n        /* \"#utility.yul\":1969:1975   */\n      dup3\n        /* \"#utility.yul\":1958:1967   */\n      dup7\n        /* \"#utility.yul\":1954:1976   */\n      add\n        /* \"#utility.yul\":1923:1986   */\n      tag_343\n      jump\t// in\n    tag_359:\n        /* \"#utility.yul\":1913:1986   */\n      swap2\n      pop\n        /* \"#utility.yul\":1775:1996   */\n      pop\n        /* \"#utility.yul\":1473:2003   */\n      swap3\n      pop\n      swap3\n      swap1\n      pop\n      jump\t// out\n        /* \"#utility.yul\":2009:3418   */\n    tag_117:\n      0x00\n      dup1\n      0x00\n      dup1\n      0x00\n        /* \"#utility.yul\":2235:2238   */\n      0xa0\n        /* \"#utility.yul\":2223:2232   */\n      dup7\n        /* \"#utility.yul\":2214:2221   */\n      dup9\n        /* \"#utility.yul\":2210:2233   */\n      sub\n        /* \"#utility.yul\":2206:2239   */\n      slt\n        /* \"#utility.yul\":2203:2205   */\n      iszero\n      tag_361\n      jumpi\n        /* \"#utility.yul\":2252:2253   */\n      0x00\n        /* \"#utility.yul\":2249:2250   */\n      dup1\n        /* \"#utility.yul\":2242:2254   */\n      revert\n        /* \"#utility.yul\":2203:2205   */\n    tag_361:\n        /* \"#utility.yul\":2323:2324   */\n      0x00\n        /* \"#utility.yul\":2312:2321   */\n      dup7\n        /* \"#utility.yul\":2308:2325   */\n      add\n        /* \"#utility.yul\":2295:2326   */\n      calldataload\n        /* \"#utility.yul\":2353:2371   */\n      0xffffffffffffffff\n        /* \"#utility.yul\":2345:2351   */\n      dup2\n        /* \"#utility.yul\":2342:2372   */\n      gt\n        /* \"#utility.yul\":2339:2341   */\n      iszero\n      tag_362\n      jumpi\n        /* \"#utility.yul\":2385:2386   */\n      0x00\n        /* \"#utility.yul\":2382:2383   */\n      dup1\n        /* \"#utility.yul\":2375:2387   */\n      revert\n        /* \"#utility.yul\":2339:2341   */\n    tag_362:\n        /* \"#utility.yul\":2413:2476   */\n      tag_363\n        /* \"#utility.yul\":2468:2475   */\n      dup9\n        /* \"#utility.yul\":2459:2465   */\n      dup3\n        /* \"#utility.yul\":2448:2457   */\n      dup10\n        /* \"#utility.yul\":2444:2466   */\n      add\n        /* \"#utility.yul\":2413:2476   */\n      tag_343\n      jump\t// in\n    tag_363:\n        /* \"#utility.yul\":2403:2476   */\n      swap6\n      pop\n        /* \"#utility.yul\":2266:2486   */\n      pop\n        /* \"#utility.yul\":2553:2555   */\n      0x20\n        /* \"#utility.yul\":2542:2551   */\n      dup7\n        /* \"#utility.yul\":2538:2556   */\n      add\n        /* \"#utility.yul\":2525:2557   */\n      calldataload\n        /* \"#utility.yul\":2584:2602   */\n      0xffffffffffffffff\n        /* \"#utility.yul\":2576:2582   */\n      dup2\n        /* \"#utility.yul\":2573:2603   */\n      gt\n        /* \"#utility.yul\":2570:2572   */\n      iszero\n      tag_364\n      jumpi\n        /* \"#utility.yul\":2616:2617   */\n      0x00\n        /* \"#utility.yul\":2613:2614   */\n      dup1\n        /* \"#utility.yul\":2606:2618   */\n      revert\n        /* \"#utility.yul\":2570:2572   */\n    tag_364:\n        /* \"#utility.yul\":2644:2707   */\n      tag_365\n        /* \"#utility.yul\":2699:2706   */\n      dup9\n        /* \"#utility.yul\":2690:2696   */\n      dup3\n        /* \"#utility.yul\":2679:2688   */\n      dup10\n        /* \"#utility.yul\":2675:2697   */\n      add\n        /* \"#utility.yul\":2644:2707   */\n      tag_343\n      jump\t// in\n    tag_365:\n        /* \"#utility.yul\":2634:2707   */\n      swap5\n      pop\n        /* \"#utility.yul\":2496:2717   */\n      pop\n        /* \"#utility.yul\":2784:2786   */\n      0x40\n        /* \"#utility.yul\":2773:2782   */\n      dup7\n        /* \"#utility.yul\":2769:2787   */\n      add\n        /* \"#utility.yul\":2756:2788   */\n      calldataload\n        /* \"#utility.yul\":2815:2833   */\n      0xffffffffffffffff\n        /* \"#utility.yul\":2807:2813   */\n      dup2\n        /* \"#utility.yul\":2804:2834   */\n      gt\n        /* \"#utility.yul\":2801:2803   */\n      iszero\n      tag_366\n      jumpi\n        /* \"#utility.yul\":2847:2848   */\n      0x00\n        /* \"#utility.yul\":2844:2845   */\n      dup1\n        /* \"#utility.yul\":2837:2849   */\n      revert\n        /* \"#utility.yul\":2801:2803   */\n    tag_366:\n        /* \"#utility.yul\":2875:2938   */\n      tag_367\n        /* \"#utility.yul\":2930:2937   */\n      dup9\n        /* \"#utility.yul\":2921:2927   */\n      dup3\n        /* \"#utility.yul\":2910:2919   */\n      dup10\n        /* \"#utility.yul\":2906:2928   */\n      add\n        /* \"#utility.yul\":2875:2938   */\n      tag_343\n      jump\t// in\n    tag_367:\n        /* \"#utility.yul\":2865:2938   */\n      swap4\n      pop\n        /* \"#utility.yul\":2727:2948   */\n      pop\n        /* \"#utility.yul\":3015:3017   */\n      0x60\n        /* \"#utility.yul\":3004:3013   */\n      dup7\n        /* \"#utility.yul\":3000:3018   */\n      add\n        /* \"#utility.yul\":2987:3019   */\n      calldataload\n        /* \"#utility.yul\":3046:3064   */\n      0xffffffffffffffff\n        /* \"#utility.yul\":3038:3044   */\n      dup2\n        /* \"#utility.yul\":3035:3065   */\n      gt\n        /* \"#utility.yul\":3032:3034   */\n      iszero\n      tag_368\n      jumpi\n        /* \"#utility.yul\":3078:3079   */\n      0x00\n        /* \"#utility.yul\":3075:3076   */\n      dup1\n        /* \"#utility.yul\":3068:3080   */\n      revert\n        /* \"#utility.yul\":3032:3034   */\n    tag_368:\n        /* \"#utility.yul\":3106:3169   */\n      tag_369\n        /* \"#utility.yul\":3161:3168   */\n      dup9\n        /* \"#utility.yul\":3152:3158   */\n      dup3\n        /* \"#utility.yul\":3141:3150   */\n      dup10\n        /* \"#utility.yul\":3137:3159   */\n      add\n        /* \"#utility.yul\":3106:3169   */\n      tag_343\n      jump\t// in\n    tag_369:\n        /* \"#utility.yul\":3096:3169   */\n      swap3\n      pop\n        /* \"#utility.yul\":2958:3179   */\n      pop\n        /* \"#utility.yul\":3246:3249   */\n      0x80\n        /* \"#utility.yul\":3235:3244   */\n      dup7\n        /* \"#utility.yul\":3231:3250   */\n      add\n        /* \"#utility.yul\":3218:3251   */\n      calldataload\n        /* \"#utility.yul\":3278:3296   */\n      0xffffffffffffffff\n        /* \"#utility.yul\":3270:3276   */\n      dup2\n        /* \"#utility.yul\":3267:3297   */\n      gt\n        /* \"#utility.yul\":3264:3266   */\n      iszero\n      tag_370\n      jumpi\n        /* \"#utility.yul\":3310:3311   */\n      0x00\n        /* \"#utility.yul\":3307:3308   */\n      dup1\n        /* \"#utility.yul\":3300:3312   */\n      revert\n        /* \"#utility.yul\":3264:3266   */\n    tag_370:\n        /* \"#utility.yul\":3338:3401   */\n      tag_371\n        /* \"#utility.yul\":3393:3400   */\n      dup9\n        /* \"#utility.yul\":3384:3390   */\n      dup3\n        /* \"#utility.yul\":3373:3382   */\n      dup10\n        /* \"#utility.yul\":3369:3391   */\n      add\n        /* \"#utility.yul\":3338:3401   */\n      tag_343\n      jump\t// in\n    tag_371:\n        /* \"#utility.yul\":3328:3401   */\n      swap2\n      pop\n        /* \"#utility.yul\":3189:3411   */\n      pop\n        /* \"#utility.yul\":2193:3418   */\n      swap3\n      swap6\n      pop\n      swap3\n      swap6\n      swap1\n      swap4\n      pop\n      jump\t// out\n        /* \"#utility.yul\":3424:5092   */\n    tag_62:\n      0x00\n      dup1\n      0x00\n      dup1\n      0x00\n      dup1\n        /* \"#utility.yul\":3677:3680   */\n      0xc0\n        /* \"#utility.yul\":3665:3674   */\n      dup8\n        /* \"#utility.yul\":3656:3663   */\n      dup10\n        /* \"#utility.yul\":3652:3675   */\n      sub\n        /* \"#utility.yul\":3648:3681   */\n      slt\n        /* \"#utility.yul\":3645:3647   */\n      iszero\n      tag_373\n      jumpi\n        /* \"#utility.yul\":3694:3695   */\n      0x00\n        /* \"#utility.yul\":3691:3692   */\n      dup1\n        /* \"#utility.yul\":3684:3696   */\n      revert\n        /* \"#utility.yul\":3645:3647   */\n    tag_373:\n        /* \"#utility.yul\":3765:3766   */\n      0x00\n        /* \"#utility.yul\":3754:3763   */\n      dup8\n        /* \"#utility.yul\":3750:3767   */\n      add\n        /* \"#utility.yul\":3737:3768   */\n      calldataload\n        /* \"#utility.yul\":3795:3813   */\n      0xffffffffffffffff\n        /* \"#utility.yul\":3787:3793   */\n      dup2\n        /* \"#utility.yul\":3784:3814   */\n      gt\n        /* \"#utility.yul\":3781:3783   */\n      iszero\n      tag_374\n      jumpi\n        /* \"#utility.yul\":3827:3828   */\n      0x00\n        /* \"#utility.yul\":3824:3825   */\n      dup1\n        /* \"#utility.yul\":3817:3829   */\n      revert\n        /* \"#utility.yul\":3781:3783   */\n    tag_374:\n        /* \"#utility.yul\":3855:3918   */\n      tag_375\n        /* \"#utility.yul\":3910:3917   */\n      dup10\n        /* \"#utility.yul\":3901:3907   */\n      dup3\n        /* \"#utility.yul\":3890:3899   */\n      dup11\n        /* \"#utility.yul\":3886:3908   */\n      add\n        /* \"#utility.yul\":3855:3918   */\n      tag_343\n      jump\t// in\n    tag_375:\n        /* \"#utility.yul\":3845:3918   */\n      swap7\n      pop\n        /* \"#utility.yul\":3708:3928   */\n      pop\n        /* \"#utility.yul\":3995:3997   */\n      0x20\n        /* \"#utility.yul\":3984:3993   */\n      dup8\n        /* \"#utility.yul\":3980:3998   */\n      add\n        /* \"#utility.yul\":3967:3999   */\n      calldataload\n        /* \"#utility.yul\":4026:4044   */\n      0xffffffffffffffff\n        /* \"#utility.yul\":4018:4024   */\n      dup2\n        /* \"#utility.yul\":4015:4045   */\n      gt\n        /* \"#utility.yul\":4012:4014   */\n      iszero\n      tag_376\n      jumpi\n        /* \"#utility.yul\":4058:4059   */\n      0x00\n        /* \"#utility.yul\":4055:4056   */\n      dup1\n        /* \"#utility.yul\":4048:4060   */\n      revert\n        /* \"#utility.yul\":4012:4014   */\n    tag_376:\n        /* \"#utility.yul\":4086:4149   */\n      tag_377\n        /* \"#utility.yul\":4141:4148   */\n      dup10\n        /* \"#utility.yul\":4132:4138   */\n      dup3\n        /* \"#utility.yul\":4121:4130   */\n      dup11\n        /* \"#utility.yul\":4117:4139   */\n      add\n        /* \"#utility.yul\":4086:4149   */\n      tag_343\n      jump\t// in\n    tag_377:\n        /* \"#utility.yul\":4076:4149   */\n      swap6\n      pop\n        /* \"#utility.yul\":3938:4159   */\n      pop\n        /* \"#utility.yul\":4226:4228   */\n      0x40\n        /* \"#utility.yul\":4215:4224   */\n      dup8\n        /* \"#utility.yul\":4211:4229   */\n      add\n        /* \"#utility.yul\":4198:4230   */\n      calldataload\n        /* \"#utility.yul\":4257:4275   */\n      0xffffffffffffffff\n        /* \"#utility.yul\":4249:4255   */\n      dup2\n        /* \"#utility.yul\":4246:4276   */\n      gt\n        /* \"#utility.yul\":4243:4245   */\n      iszero\n      tag_378\n      jumpi\n        /* \"#utility.yul\":4289:4290   */\n      0x00\n        /* \"#utility.yul\":4286:4287   */\n      dup1\n        /* \"#utility.yul\":4279:4291   */\n      revert\n        /* \"#utility.yul\":4243:4245   */\n    tag_378:\n        /* \"#utility.yul\":4317:4380   */\n      tag_379\n        /* \"#utility.yul\":4372:4379   */\n      dup10\n        /* \"#utility.yul\":4363:4369   */\n      dup3\n        /* \"#utility.yul\":4352:4361   */\n      dup11\n        /* \"#utility.yul\":4348:4370   */\n      add\n        /* \"#utility.yul\":4317:4380   */\n      tag_343\n      jump\t// in\n    tag_379:\n        /* \"#utility.yul\":4307:4380   */\n      swap5\n      pop\n        /* \"#utility.yul\":4169:4390   */\n      pop\n        /* \"#utility.yul\":4457:4459   */\n      0x60\n        /* \"#utility.yul\":4446:4455   */\n      dup8\n        /* \"#utility.yul\":4442:4460   */\n      add\n        /* \"#utility.yul\":4429:4461   */\n      calldataload\n        /* \"#utility.yul\":4488:4506   */\n      0xffffffffffffffff\n        /* \"#utility.yul\":4480:4486   */\n      dup2\n        /* \"#utility.yul\":4477:4507   */\n      gt\n        /* \"#utility.yul\":4474:4476   */\n      iszero\n      tag_380\n      jumpi\n        /* \"#utility.yul\":4520:4521   */\n      0x00\n        /* \"#utility.yul\":4517:4518   */\n      dup1\n        /* \"#utility.yul\":4510:4522   */\n      revert\n        /* \"#utility.yul\":4474:4476   */\n    tag_380:\n        /* \"#utility.yul\":4548:4611   */\n      tag_381\n        /* \"#utility.yul\":4603:4610   */\n      dup10\n        /* \"#utility.yul\":4594:4600   */\n      dup3\n        /* \"#utility.yul\":4583:4592   */\n      dup11\n        /* \"#utility.yul\":4579:4601   */\n      add\n        /* \"#utility.yul\":4548:4611   */\n      tag_343\n      jump\t// in\n    tag_381:\n        /* \"#utility.yul\":4538:4611   */\n      swap4\n      pop\n        /* \"#utility.yul\":4400:4621   */\n      pop\n        /* \"#utility.yul\":4688:4691   */\n      0x80\n        /* \"#utility.yul\":4677:4686   */\n      dup8\n        /* \"#utility.yul\":4673:4692   */\n      add\n        /* \"#utility.yul\":4660:4693   */\n      calldataload\n        /* \"#utility.yul\":4720:4738   */\n      0xffffffffffffffff\n        /* \"#utility.yul\":4712:4718   */\n      dup2\n        /* \"#utility.yul\":4709:4739   */\n      gt\n        /* \"#utility.yul\":4706:4708   */\n      iszero\n      tag_382\n      jumpi\n        /* \"#utility.yul\":4752:4753   */\n      0x00\n        /* \"#utility.yul\":4749:4750   */\n      dup1\n        /* \"#utility.yul\":4742:4754   */\n      revert\n        /* \"#utility.yul\":4706:4708   */\n    tag_382:\n        /* \"#utility.yul\":4780:4843   */\n      tag_383\n        /* \"#utility.yul\":4835:4842   */\n      dup10\n        /* \"#utility.yul\":4826:4832   */\n      dup3\n        /* \"#utility.yul\":4815:4824   */\n      dup11\n        /* \"#utility.yul\":4811:4833   */\n      add\n        /* \"#utility.yul\":4780:4843   */\n      tag_343\n      jump\t// in\n    tag_383:\n        /* \"#utility.yul\":4770:4843   */\n      swap3\n      pop\n        /* \"#utility.yul\":4631:4853   */\n      pop\n        /* \"#utility.yul\":4920:4923   */\n      0xa0\n        /* \"#utility.yul\":4909:4918   */\n      dup8\n        /* \"#utility.yul\":4905:4924   */\n      add\n        /* \"#utility.yul\":4892:4925   */\n      calldataload\n        /* \"#utility.yul\":4952:4970   */\n      0xffffffffffffffff\n        /* \"#utility.yul\":4944:4950   */\n      dup2\n        /* \"#utility.yul\":4941:4971   */\n      gt\n        /* \"#utility.yul\":4938:4940   */\n      iszero\n      tag_384\n      jumpi\n        /* \"#utility.yul\":4984:4985   */\n      0x00\n        /* \"#utility.yul\":4981:4982   */\n      dup1\n        /* \"#utility.yul\":4974:4986   */\n      revert\n        /* \"#utility.yul\":4938:4940   */\n    tag_384:\n        /* \"#utility.yul\":5012:5075   */\n      tag_385\n        /* \"#utility.yul\":5067:5074   */\n      dup10\n        /* \"#utility.yul\":5058:5064   */\n      dup3\n        /* \"#utility.yul\":5047:5056   */\n      dup11\n        /* \"#utility.yul\":5043:5065   */\n      add\n        /* \"#utility.yul\":5012:5075   */\n      tag_343\n      jump\t// in\n    tag_385:\n        /* \"#utility.yul\":5002:5075   */\n      swap2\n      pop\n        /* \"#utility.yul\":4863:5085   */\n      pop\n        /* \"#utility.yul\":3635:5092   */\n      swap3\n      swap6\n      pop\n      swap3\n      swap6\n      pop\n      swap3\n      swap6\n      jump\t// out\n        /* \"#utility.yul\":5098:5779   */\n    tag_78:\n      0x00\n      dup1\n      0x00\n        /* \"#utility.yul\":5258:5260   */\n      0x60\n        /* \"#utility.yul\":5246:5255   */\n      dup5\n        /* \"#utility.yul\":5237:5244   */\n      dup7\n        /* \"#utility.yul\":5233:5256   */\n      sub\n        /* \"#utility.yul\":5229:5261   */\n      slt\n        /* \"#utility.yul\":5226:5228   */\n      iszero\n      tag_387\n      jumpi\n        /* \"#utility.yul\":5274:5275   */\n      0x00\n        /* \"#utility.yul\":5271:5272   */\n      dup1\n        /* \"#utility.yul\":5264:5276   */\n      revert\n        /* \"#utility.yul\":5226:5228   */\n    tag_387:\n        /* \"#utility.yul\":5345:5346   */\n      0x00\n        /* \"#utility.yul\":5334:5343   */\n      dup5\n        /* \"#utility.yul\":5330:5347   */\n      add\n        /* \"#utility.yul\":5317:5348   */\n      calldataload\n        /* \"#utility.yul\":5375:5393   */\n      0xffffffffffffffff\n        /* \"#utility.yul\":5367:5373   */\n      dup2\n        /* \"#utility.yul\":5364:5394   */\n      gt\n        /* \"#utility.yul\":5361:5363   */\n      iszero\n      tag_388\n      jumpi\n        /* \"#utility.yul\":5407:5408   */\n      0x00\n        /* \"#utility.yul\":5404:5405   */\n      dup1\n        /* \"#utility.yul\":5397:5409   */\n      revert\n        /* \"#utility.yul\":5361:5363   */\n    tag_388:\n        /* \"#utility.yul\":5435:5498   */\n      tag_389\n        /* \"#utility.yul\":5490:5497   */\n      dup7\n        /* \"#utility.yul\":5481:5487   */\n      dup3\n        /* \"#utility.yul\":5470:5479   */\n      dup8\n        /* \"#utility.yul\":5466:5488   */\n      add\n        /* \"#utility.yul\":5435:5498   */\n      tag_343\n      jump\t// in\n    tag_389:\n        /* \"#utility.yul\":5425:5498   */\n      swap4\n      pop\n        /* \"#utility.yul\":5288:5508   */\n      pop\n        /* \"#utility.yul\":5547:5549   */\n      0x20\n        /* \"#utility.yul\":5573:5626   */\n      tag_390\n        /* \"#utility.yul\":5618:5625   */\n      dup7\n        /* \"#utility.yul\":5609:5615   */\n      dup3\n        /* \"#utility.yul\":5598:5607   */\n      dup8\n        /* \"#utility.yul\":5594:5616   */\n      add\n        /* \"#utility.yul\":5573:5626   */\n      tag_347\n      jump\t// in\n    tag_390:\n        /* \"#utility.yul\":5563:5626   */\n      swap3\n      pop\n        /* \"#utility.yul\":5518:5636   */\n      pop\n        /* \"#utility.yul\":5675:5677   */\n      0x40\n        /* \"#utility.yul\":5701:5762   */\n      tag_391\n        /* \"#utility.yul\":5754:5761   */\n      dup7\n        /* \"#utility.yul\":5745:5751   */\n      dup3\n        /* \"#utility.yul\":5734:5743   */\n      dup8\n        /* \"#utility.yul\":5730:5752   */\n      add\n        /* \"#utility.yul\":5701:5762   */\n      tag_339\n      jump\t// in\n    tag_391:\n        /* \"#utility.yul\":5691:5762   */\n      swap2\n      pop\n        /* \"#utility.yul\":5646:5772   */\n      pop\n        /* \"#utility.yul\":5216:5779   */\n      swap3\n      pop\n      swap3\n      pop\n      swap3\n      jump\t// out\n        /* \"#utility.yul\":5785:6047   */\n    tag_72:\n      0x00\n        /* \"#utility.yul\":5893:5895   */\n      0x20\n        /* \"#utility.yul\":5881:5890   */\n      dup3\n        /* \"#utility.yul\":5872:5879   */\n      dup5\n        /* \"#utility.yul\":5868:5891   */\n      sub\n        /* \"#utility.yul\":5864:5896   */\n      slt\n        /* \"#utility.yul\":5861:5863   */\n      iszero\n      tag_393\n      jumpi\n        /* \"#utility.yul\":5909:5910   */\n      0x00\n        /* \"#utility.yul\":5906:5907   */\n      dup1\n        /* \"#utility.yul\":5899:5911   */\n      revert\n        /* \"#utility.yul\":5861:5863   */\n    tag_393:\n        /* \"#utility.yul\":5952:5953   */\n      0x00\n        /* \"#utility.yul\":5977:6030   */\n      tag_394\n        /* \"#utility.yul\":6022:6029   */\n      dup5\n        /* \"#utility.yul\":6013:6019   */\n      dup3\n        /* \"#utility.yul\":6002:6011   */\n      dup6\n        /* \"#utility.yul\":5998:6020   */\n      add\n        /* \"#utility.yul\":5977:6030   */\n      tag_347\n      jump\t// in\n    tag_394:\n        /* \"#utility.yul\":5967:6030   */\n      swap2\n      pop\n        /* \"#utility.yul\":5923:6040   */\n      pop\n        /* \"#utility.yul\":5851:6047   */\n      swap3\n      swap2\n      pop\n      pop\n      jump\t// out\n        /* \"#utility.yul\":6053:6195   */\n    tag_395:\n        /* \"#utility.yul\":6156:6188   */\n      tag_397\n        /* \"#utility.yul\":6182:6187   */\n      dup2\n        /* \"#utility.yul\":6156:6188   */\n      tag_398\n      jump\t// in\n    tag_397:\n        /* \"#utility.yul\":6151:6154   */\n      dup3\n        /* \"#utility.yul\":6144:6189   */\n      mstore\n        /* \"#utility.yul\":6134:6195   */\n      pop\n      pop\n      jump\t// out\n        /* \"#utility.yul\":6201:6319   */\n    tag_399:\n        /* \"#utility.yul\":6288:6312   */\n      tag_401\n        /* \"#utility.yul\":6306:6311   */\n      dup2\n        /* \"#utility.yul\":6288:6312   */\n      tag_402\n      jump\t// in\n    tag_401:\n        /* \"#utility.yul\":6283:6286   */\n      dup3\n        /* \"#utility.yul\":6276:6313   */\n      mstore\n        /* \"#utility.yul\":6266:6319   */\n      pop\n      pop\n      jump\t// out\n        /* \"#utility.yul\":6325:6434   */\n    tag_403:\n        /* \"#utility.yul\":6406:6427   */\n      tag_405\n        /* \"#utility.yul\":6421:6426   */\n      dup2\n        /* \"#utility.yul\":6406:6427   */\n      tag_406\n      jump\t// in\n    tag_405:\n        /* \"#utility.yul\":6401:6404   */\n      dup3\n        /* \"#utility.yul\":6394:6428   */\n      mstore\n        /* \"#utility.yul\":6384:6434   */\n      pop\n      pop\n      jump\t// out\n        /* \"#utility.yul\":6440:6804   */\n    tag_407:\n      0x00\n        /* \"#utility.yul\":6556:6595   */\n      tag_409\n        /* \"#utility.yul\":6589:6594   */\n      dup3\n        /* \"#utility.yul\":6556:6595   */\n      tag_410\n      jump\t// in\n    tag_409:\n        /* \"#utility.yul\":6611:6682   */\n      tag_411\n        /* \"#utility.yul\":6675:6681   */\n      dup2\n        /* \"#utility.yul\":6670:6673   */\n      dup6\n        /* \"#utility.yul\":6611:6682   */\n      tag_412\n      jump\t// in\n    tag_411:\n        /* \"#utility.yul\":6604:6682   */\n      swap4\n      pop\n        /* \"#utility.yul\":6691:6743   */\n      tag_413\n        /* \"#utility.yul\":6736:6742   */\n      dup2\n        /* \"#utility.yul\":6731:6734   */\n      dup6\n        /* \"#utility.yul\":6724:6728   */\n      0x20\n        /* \"#utility.yul\":6717:6722   */\n      dup7\n        /* \"#utility.yul\":6713:6729   */\n      add\n        /* \"#utility.yul\":6691:6743   */\n      tag_414\n      jump\t// in\n    tag_413:\n        /* \"#utility.yul\":6768:6797   */\n      tag_415\n        /* \"#utility.yul\":6790:6796   */\n      dup2\n        /* \"#utility.yul\":6768:6797   */\n      tag_416\n      jump\t// in\n    tag_415:\n        /* \"#utility.yul\":6763:6766   */\n      dup5\n        /* \"#utility.yul\":6759:6798   */\n      add\n        /* \"#utility.yul\":6752:6798   */\n      swap2\n      pop\n        /* \"#utility.yul\":6532:6804   */\n      pop\n      swap3\n      swap2\n      pop\n      pop\n      jump\t// out\n        /* \"#utility.yul\":6810:6928   */\n    tag_417:\n        /* \"#utility.yul\":6897:6921   */\n      tag_419\n        /* \"#utility.yul\":6915:6920   */\n      dup2\n        /* \"#utility.yul\":6897:6921   */\n      tag_420\n      jump\t// in\n    tag_419:\n        /* \"#utility.yul\":6892:6895   */\n      dup3\n        /* \"#utility.yul\":6885:6922   */\n      mstore\n        /* \"#utility.yul\":6875:6928   */\n      pop\n      pop\n      jump\t// out\n        /* \"#utility.yul\":6934:7156   */\n    tag_68:\n      0x00\n        /* \"#utility.yul\":7065:7067   */\n      0x20\n        /* \"#utility.yul\":7054:7063   */\n      dup3\n        /* \"#utility.yul\":7050:7068   */\n      add\n        /* \"#utility.yul\":7042:7068   */\n      swap1\n      pop\n        /* \"#utility.yul\":7078:7149   */\n      tag_422\n        /* \"#utility.yul\":7146:7147   */\n      0x00\n        /* \"#utility.yul\":7135:7144   */\n      dup4\n        /* \"#utility.yul\":7131:7148   */\n      add\n        /* \"#utility.yul\":7122:7128   */\n      dup5\n        /* \"#utility.yul\":7078:7149   */\n      tag_399\n      jump\t// in\n    tag_422:\n        /* \"#utility.yul\":7032:7156   */\n      swap3\n      swap2\n      pop\n      pop\n      jump\t// out\n        /* \"#utility.yul\":7162:7372   */\n    tag_104:\n      0x00\n        /* \"#utility.yul\":7287:7289   */\n      0x20\n        /* \"#utility.yul\":7276:7285   */\n      dup3\n        /* \"#utility.yul\":7272:7290   */\n      add\n        /* \"#utility.yul\":7264:7290   */\n      swap1\n      pop\n        /* \"#utility.yul\":7300:7365   */\n      tag_424\n        /* \"#utility.yul\":7362:7363   */\n      0x00\n        /* \"#utility.yul\":7351:7360   */\n      dup4\n        /* \"#utility.yul\":7347:7364   */\n      add\n        /* \"#utility.yul\":7338:7344   */\n      dup5\n        /* \"#utility.yul\":7300:7365   */\n      tag_403\n      jump\t// in\n    tag_424:\n        /* \"#utility.yul\":7254:7372   */\n      swap3\n      swap2\n      pop\n      pop\n      jump\t// out\n        /* \"#utility.yul\":7378:7892   */\n    tag_58:\n      0x00\n        /* \"#utility.yul\":7577:7579   */\n      0x40\n        /* \"#utility.yul\":7566:7575   */\n      dup3\n        /* \"#utility.yul\":7562:7580   */\n      add\n        /* \"#utility.yul\":7554:7580   */\n      swap1\n      pop\n        /* \"#utility.yul\":7626:7635   */\n      dup2\n        /* \"#utility.yul\":7620:7624   */\n      dup2\n        /* \"#utility.yul\":7616:7636   */\n      sub\n        /* \"#utility.yul\":7612:7613   */\n      0x00\n        /* \"#utility.yul\":7601:7610   */\n      dup4\n        /* \"#utility.yul\":7597:7614   */\n      add\n        /* \"#utility.yul\":7590:7637   */\n      mstore\n        /* \"#utility.yul\":7654:7732   */\n      tag_426\n        /* \"#utility.yul\":7727:7731   */\n      dup2\n        /* \"#utility.yul\":7718:7724   */\n      dup6\n        /* \"#utility.yul\":7654:7732   */\n      tag_407\n      jump\t// in\n    tag_426:\n        /* \"#utility.yul\":7646:7732   */\n      swap1\n      pop\n        /* \"#utility.yul\":7779:7788   */\n      dup2\n        /* \"#utility.yul\":7773:7777   */\n      dup2\n        /* \"#utility.yul\":7769:7789   */\n      sub\n        /* \"#utility.yul\":7764:7766   */\n      0x20\n        /* \"#utility.yul\":7753:7762   */\n      dup4\n        /* \"#utility.yul\":7749:7767   */\n      add\n        /* \"#utility.yul\":7742:7790   */\n      mstore\n        /* \"#utility.yul\":7807:7885   */\n      tag_427\n        /* \"#utility.yul\":7880:7884   */\n      dup2\n        /* \"#utility.yul\":7871:7877   */\n      dup5\n        /* \"#utility.yul\":7807:7885   */\n      tag_407\n      jump\t// in\n    tag_427:\n        /* \"#utility.yul\":7799:7885   */\n      swap1\n      pop\n        /* \"#utility.yul\":7544:7892   */\n      swap4\n      swap3\n      pop\n      pop\n      pop\n      jump\t// out\n        /* \"#utility.yul\":7898:9017   */\n    tag_37:\n      0x00\n        /* \"#utility.yul\":8241:8244   */\n      0xa0\n        /* \"#utility.yul\":8230:8239   */\n      dup3\n        /* \"#utility.yul\":8226:8245   */\n      add\n        /* \"#utility.yul\":8218:8245   */\n      swap1\n      pop\n        /* \"#utility.yul\":8291:8300   */\n      dup2\n        /* \"#utility.yul\":8285:8289   */\n      dup2\n        /* \"#utility.yul\":8281:8301   */\n      sub\n        /* \"#utility.yul\":8277:8278   */\n      0x00\n        /* \"#utility.yul\":8266:8275   */\n      dup4\n        /* \"#utility.yul\":8262:8279   */\n      add\n        /* \"#utility.yul\":8255:8302   */\n      mstore\n        /* \"#utility.yul\":8319:8397   */\n      tag_429\n        /* \"#utility.yul\":8392:8396   */\n      dup2\n        /* \"#utility.yul\":8383:8389   */\n      dup9\n        /* \"#utility.yul\":8319:8397   */\n      tag_407\n      jump\t// in\n    tag_429:\n        /* \"#utility.yul\":8311:8397   */\n      swap1\n      pop\n        /* \"#utility.yul\":8444:8453   */\n      dup2\n        /* \"#utility.yul\":8438:8442   */\n      dup2\n        /* \"#utility.yul\":8434:8454   */\n      sub\n        /* \"#utility.yul\":8429:8431   */\n      0x20\n        /* \"#utility.yul\":8418:8427   */\n      dup4\n        /* \"#utility.yul\":8414:8432   */\n      add\n        /* \"#utility.yul\":8407:8455   */\n      mstore\n        /* \"#utility.yul\":8472:8550   */\n      tag_430\n        /* \"#utility.yul\":8545:8549   */\n      dup2\n        /* \"#utility.yul\":8536:8542   */\n      dup8\n        /* \"#utility.yul\":8472:8550   */\n      tag_407\n      jump\t// in\n    tag_430:\n        /* \"#utility.yul\":8464:8550   */\n      swap1\n      pop\n        /* \"#utility.yul\":8597:8606   */\n      dup2\n        /* \"#utility.yul\":8591:8595   */\n      dup2\n        /* \"#utility.yul\":8587:8607   */\n      sub\n        /* \"#utility.yul\":8582:8584   */\n      0x40\n        /* \"#utility.yul\":8571:8580   */\n      dup4\n        /* \"#utility.yul\":8567:8585   */\n      add\n        /* \"#utility.yul\":8560:8608   */\n      mstore\n        /* \"#utility.yul\":8625:8703   */\n      tag_431\n        /* \"#utility.yul\":8698:8702   */\n      dup2\n        /* \"#utility.yul\":8689:8695   */\n      dup7\n        /* \"#utility.yul\":8625:8703   */\n      tag_407\n      jump\t// in\n    tag_431:\n        /* \"#utility.yul\":8617:8703   */\n      swap1\n      pop\n        /* \"#utility.yul\":8750:8759   */\n      dup2\n        /* \"#utility.yul\":8744:8748   */\n      dup2\n        /* \"#utility.yul\":8740:8760   */\n      sub\n        /* \"#utility.yul\":8735:8737   */\n      0x60\n        /* \"#utility.yul\":8724:8733   */\n      dup4\n        /* \"#utility.yul\":8720:8738   */\n      add\n        /* \"#utility.yul\":8713:8761   */\n      mstore\n        /* \"#utility.yul\":8778:8856   */\n      tag_432\n        /* \"#utility.yul\":8851:8855   */\n      dup2\n        /* \"#utility.yul\":8842:8848   */\n      dup6\n        /* \"#utility.yul\":8778:8856   */\n      tag_407\n      jump\t// in\n    tag_432:\n        /* \"#utility.yul\":8770:8856   */\n      swap1\n      pop\n        /* \"#utility.yul\":8904:8913   */\n      dup2\n        /* \"#utility.yul\":8898:8902   */\n      dup2\n        /* \"#utility.yul\":8894:8914   */\n      sub\n        /* \"#utility.yul\":8888:8891   */\n      0x80\n        /* \"#utility.yul\":8877:8886   */\n      dup4\n        /* \"#utility.yul\":8873:8892   */\n      add\n        /* \"#utility.yul\":8866:8915   */\n      mstore\n        /* \"#utility.yul\":8932:9010   */\n      tag_433\n        /* \"#utility.yul\":9005:9009   */\n      dup2\n        /* \"#utility.yul\":8996:9002   */\n      dup5\n        /* \"#utility.yul\":8932:9010   */\n      tag_407\n      jump\t// in\n    tag_433:\n        /* \"#utility.yul\":8924:9010   */\n      swap1\n      pop\n        /* \"#utility.yul\":8208:9017   */\n      swap7\n      swap6\n      pop\n      pop\n      pop\n      pop\n      pop\n      pop\n      jump\t// out\n        /* \"#utility.yul\":9023:10344   */\n    tag_93:\n      0x00\n        /* \"#utility.yul\":9414:9417   */\n      0xc0\n        /* \"#utility.yul\":9403:9412   */\n      dup3\n        /* \"#utility.yul\":9399:9418   */\n      add\n        /* \"#utility.yul\":9391:9418   */\n      swap1\n      pop\n        /* \"#utility.yul\":9464:9473   */\n      dup2\n        /* \"#utility.yul\":9458:9462   */\n      dup2\n        /* \"#utility.yul\":9454:9474   */\n      sub\n        /* \"#utility.yul\":9450:9451   */\n      0x00\n        /* \"#utility.yul\":9439:9448   */\n      dup4\n        /* \"#utility.yul\":9435:9452   */\n      add\n        /* \"#utility.yul\":9428:9475   */\n      mstore\n        /* \"#utility.yul\":9492:9570   */\n      tag_435\n        /* \"#utility.yul\":9565:9569   */\n      dup2\n        /* \"#utility.yul\":9556:9562   */\n      dup10\n        /* \"#utility.yul\":9492:9570   */\n      tag_407\n      jump\t// in\n    tag_435:\n        /* \"#utility.yul\":9484:9570   */\n      swap1\n      pop\n        /* \"#utility.yul\":9617:9626   */\n      dup2\n        /* \"#utility.yul\":9611:9615   */\n      dup2\n        /* \"#utility.yul\":9607:9627   */\n      sub\n        /* \"#utility.yul\":9602:9604   */\n      0x20\n        /* \"#utility.yul\":9591:9600   */\n      dup4\n        /* \"#utility.yul\":9587:9605   */\n      add\n        /* \"#utility.yul\":9580:9628   */\n      mstore\n        /* \"#utility.yul\":9645:9723   */\n      tag_436\n        /* \"#utility.yul\":9718:9722   */\n      dup2\n        /* \"#utility.yul\":9709:9715   */\n      dup9\n        /* \"#utility.yul\":9645:9723   */\n      tag_407\n      jump\t// in\n    tag_436:\n        /* \"#utility.yul\":9637:9723   */\n      swap1\n      pop\n        /* \"#utility.yul\":9770:9779   */\n      dup2\n        /* \"#utility.yul\":9764:9768   */\n      dup2\n        /* \"#utility.yul\":9760:9780   */\n      sub\n        /* \"#utility.yul\":9755:9757   */\n      0x40\n        /* \"#utility.yul\":9744:9753   */\n      dup4\n        /* \"#utility.yul\":9740:9758   */\n      add\n        /* \"#utility.yul\":9733:9781   */\n      mstore\n        /* \"#utility.yul\":9798:9876   */\n      tag_437\n        /* \"#utility.yul\":9871:9875   */\n      dup2\n        /* \"#utility.yul\":9862:9868   */\n      dup8\n        /* \"#utility.yul\":9798:9876   */\n      tag_407\n      jump\t// in\n    tag_437:\n        /* \"#utility.yul\":9790:9876   */\n      swap1\n      pop\n        /* \"#utility.yul\":9923:9932   */\n      dup2\n        /* \"#utility.yul\":9917:9921   */\n      dup2\n        /* \"#utility.yul\":9913:9933   */\n      sub\n        /* \"#utility.yul\":9908:9910   */\n      0x60\n        /* \"#utility.yul\":9897:9906   */\n      dup4\n        /* \"#utility.yul\":9893:9911   */\n      add\n        /* \"#utility.yul\":9886:9934   */\n      mstore\n        /* \"#utility.yul\":9951:10029   */\n      tag_438\n        /* \"#utility.yul\":10024:10028   */\n      dup2\n        /* \"#utility.yul\":10015:10021   */\n      dup7\n        /* \"#utility.yul\":9951:10029   */\n      tag_407\n      jump\t// in\n    tag_438:\n        /* \"#utility.yul\":9943:10029   */\n      swap1\n      pop\n        /* \"#utility.yul\":10077:10086   */\n      dup2\n        /* \"#utility.yul\":10071:10075   */\n      dup2\n        /* \"#utility.yul\":10067:10087   */\n      sub\n        /* \"#utility.yul\":10061:10064   */\n      0x80\n        /* \"#utility.yul\":10050:10059   */\n      dup4\n        /* \"#utility.yul\":10046:10065   */\n      add\n        /* \"#utility.yul\":10039:10088   */\n      mstore\n        /* \"#utility.yul\":10105:10183   */\n      tag_439\n        /* \"#utility.yul\":10178:10182   */\n      dup2\n        /* \"#utility.yul\":10169:10175   */\n      dup6\n        /* \"#utility.yul\":10105:10183   */\n      tag_407\n      jump\t// in\n    tag_439:\n        /* \"#utility.yul\":10097:10183   */\n      swap1\n      pop\n        /* \"#utility.yul\":10231:10240   */\n      dup2\n        /* \"#utility.yul\":10225:10229   */\n      dup2\n        /* \"#utility.yul\":10221:10241   */\n      sub\n        /* \"#utility.yul\":10215:10218   */\n      0xa0\n        /* \"#utility.yul\":10204:10213   */\n      dup4\n        /* \"#utility.yul\":10200:10219   */\n      add\n        /* \"#utility.yul\":10193:10242   */\n      mstore\n        /* \"#utility.yul\":10259:10337   */\n      tag_440\n        /* \"#utility.yul\":10332:10336   */\n      dup2\n        /* \"#utility.yul\":10323:10329   */\n      dup5\n        /* \"#utility.yul\":10259:10337   */\n      tag_407\n      jump\t// in\n    tag_440:\n        /* \"#utility.yul\":10251:10337   */\n      swap1\n      pop\n        /* \"#utility.yul\":9381:10344   */\n      swap8\n      swap7\n      pop\n      pop\n      pop\n      pop\n      pop\n      pop\n      pop\n      jump\t// out\n        /* \"#utility.yul\":10350:11125   */\n    tag_75:\n      0x00\n        /* \"#utility.yul\":10623:10626   */\n      0xa0\n        /* \"#utility.yul\":10612:10621   */\n      dup3\n        /* \"#utility.yul\":10608:10627   */\n      add\n        /* \"#utility.yul\":10600:10627   */\n      swap1\n      pop\n        /* \"#utility.yul\":10673:10682   */\n      dup2\n        /* \"#utility.yul\":10667:10671   */\n      dup2\n        /* \"#utility.yul\":10663:10683   */\n      sub\n        /* \"#utility.yul\":10659:10660   */\n      0x00\n        /* \"#utility.yul\":10648:10657   */\n      dup4\n        /* \"#utility.yul\":10644:10661   */\n      add\n        /* \"#utility.yul\":10637:10684   */\n      mstore\n        /* \"#utility.yul\":10701:10779   */\n      tag_442\n        /* \"#utility.yul\":10774:10778   */\n      dup2\n        /* \"#utility.yul\":10765:10771   */\n      dup9\n        /* \"#utility.yul\":10701:10779   */\n      tag_407\n      jump\t// in\n    tag_442:\n        /* \"#utility.yul\":10693:10779   */\n      swap1\n      pop\n        /* \"#utility.yul\":10789:10861   */\n      tag_443\n        /* \"#utility.yul\":10857:10859   */\n      0x20\n        /* \"#utility.yul\":10846:10855   */\n      dup4\n        /* \"#utility.yul\":10842:10860   */\n      add\n        /* \"#utility.yul\":10833:10839   */\n      dup8\n        /* \"#utility.yul\":10789:10861   */\n      tag_417\n      jump\t// in\n    tag_443:\n        /* \"#utility.yul\":10871:10959   */\n      tag_444\n        /* \"#utility.yul\":10955:10957   */\n      0x40\n        /* \"#utility.yul\":10944:10953   */\n      dup4\n        /* \"#utility.yul\":10940:10958   */\n      add\n        /* \"#utility.yul\":10931:10937   */\n      dup7\n        /* \"#utility.yul\":10871:10959   */\n      tag_395\n      jump\t// in\n    tag_444:\n        /* \"#utility.yul\":10969:11035   */\n      tag_445\n        /* \"#utility.yul\":11031:11033   */\n      0x60\n        /* \"#utility.yul\":11020:11029   */\n      dup4\n        /* \"#utility.yul\":11016:11034   */\n      add\n        /* \"#utility.yul\":11007:11013   */\n      dup6\n        /* \"#utility.yul\":10969:11035   */\n      tag_403\n      jump\t// in\n    tag_445:\n        /* \"#utility.yul\":11045:11118   */\n      tag_446\n        /* \"#utility.yul\":11113:11116   */\n      0x80\n        /* \"#utility.yul\":11102:11111   */\n      dup4\n        /* \"#utility.yul\":11098:11117   */\n      add\n        /* \"#utility.yul\":11089:11095   */\n      dup5\n        /* \"#utility.yul\":11045:11118   */\n      tag_417\n      jump\t// in\n    tag_446:\n        /* \"#utility.yul\":10590:11125   */\n      swap7\n      swap6\n      pop\n      pop\n      pop\n      pop\n      pop\n      pop\n      jump\t// out\n        /* \"#utility.yul\":11131:11353   */\n    tag_30:\n      0x00\n        /* \"#utility.yul\":11262:11264   */\n      0x20\n        /* \"#utility.yul\":11251:11260   */\n      dup3\n        /* \"#utility.yul\":11247:11265   */\n      add\n        /* \"#utility.yul\":11239:11265   */\n      swap1\n      pop\n        /* \"#utility.yul\":11275:11346   */\n      tag_448\n        /* \"#utility.yul\":11343:11344   */\n      0x00\n        /* \"#utility.yul\":11332:11341   */\n      dup4\n        /* \"#utility.yul\":11328:11345   */\n      add\n        /* \"#utility.yul\":11319:11325   */\n      dup5\n        /* \"#utility.yul\":11275:11346   */\n      tag_417\n      jump\t// in\n    tag_448:\n        /* \"#utility.yul\":11229:11353   */\n      swap3\n      swap2\n      pop\n      pop\n      jump\t// out\n        /* \"#utility.yul\":11359:11912   */\n    tag_47:\n      0x00\n        /* \"#utility.yul\":11574:11577   */\n      0x80\n        /* \"#utility.yul\":11563:11572   */\n      dup3\n        /* \"#utility.yul\":11559:11578   */\n      add\n        /* \"#utility.yul\":11551:11578   */\n      swap1\n      pop\n        /* \"#utility.yul\":11588:11659   */\n      tag_450\n        /* \"#utility.yul\":11656:11657   */\n      0x00\n        /* \"#utility.yul\":11645:11654   */\n      dup4\n        /* \"#utility.yul\":11641:11658   */\n      add\n        /* \"#utility.yul\":11632:11638   */\n      dup8\n        /* \"#utility.yul\":11588:11659   */\n      tag_417\n      jump\t// in\n    tag_450:\n        /* \"#utility.yul\":11669:11741   */\n      tag_451\n        /* \"#utility.yul\":11737:11739   */\n      0x20\n        /* \"#utility.yul\":11726:11735   */\n      dup4\n        /* \"#utility.yul\":11722:11740   */\n      add\n        /* \"#utility.yul\":11713:11719   */\n      dup7\n        /* \"#utility.yul\":11669:11741   */\n      tag_417\n      jump\t// in\n    tag_451:\n        /* \"#utility.yul\":11751:11823   */\n      tag_452\n        /* \"#utility.yul\":11819:11821   */\n      0x40\n        /* \"#utility.yul\":11808:11817   */\n      dup4\n        /* \"#utility.yul\":11804:11822   */\n      add\n        /* \"#utility.yul\":11795:11801   */\n      dup6\n        /* \"#utility.yul\":11751:11823   */\n      tag_417\n      jump\t// in\n    tag_452:\n        /* \"#utility.yul\":11833:11905   */\n      tag_453\n        /* \"#utility.yul\":11901:11903   */\n      0x60\n        /* \"#utility.yul\":11890:11899   */\n      dup4\n        /* \"#utility.yul\":11886:11904   */\n      add\n        /* \"#utility.yul\":11877:11883   */\n      dup5\n        /* \"#utility.yul\":11833:11905   */\n      tag_399\n      jump\t// in\n    tag_453:\n        /* \"#utility.yul\":11541:11912   */\n      swap6\n      swap5\n      pop\n      pop\n      pop\n      pop\n      pop\n      jump\t// out\n        /* \"#utility.yul\":11918:12047   */\n    tag_331:\n      0x00\n        /* \"#utility.yul\":11979:11999   */\n      tag_455\n      tag_456\n      jump\t// in\n    tag_455:\n        /* \"#utility.yul\":11969:11999   */\n      swap1\n      pop\n        /* \"#utility.yul\":12008:12041   */\n      tag_457\n        /* \"#utility.yul\":12036:12040   */\n      dup3\n        /* \"#utility.yul\":12028:12034   */\n      dup3\n        /* \"#utility.yul\":12008:12041   */\n      tag_458\n      jump\t// in\n    tag_457:\n        /* \"#utility.yul\":11959:12047   */\n      swap2\n      swap1\n      pop\n      jump\t// out\n        /* \"#utility.yul\":12053:12128   */\n    tag_456:\n      0x00\n        /* \"#utility.yul\":12119:12121   */\n      0x40\n        /* \"#utility.yul\":12113:12122   */\n      mload\n        /* \"#utility.yul\":12103:12122   */\n      swap1\n      pop\n        /* \"#utility.yul\":12093:12128   */\n      swap1\n      jump\t// out\n        /* \"#utility.yul\":12134:12442   */\n    tag_330:\n      0x00\n        /* \"#utility.yul\":12286:12304   */\n      0xffffffffffffffff\n        /* \"#utility.yul\":12278:12284   */\n      dup3\n        /* \"#utility.yul\":12275:12305   */\n      gt\n        /* \"#utility.yul\":12272:12274   */\n      iszero\n      tag_461\n      jumpi\n        /* \"#utility.yul\":12308:12326   */\n      tag_462\n      tag_463\n      jump\t// in\n    tag_462:\n        /* \"#utility.yul\":12272:12274   */\n    tag_461:\n        /* \"#utility.yul\":12346:12375   */\n      tag_464\n        /* \"#utility.yul\":12368:12374   */\n      dup3\n        /* \"#utility.yul\":12346:12375   */\n      tag_416\n      jump\t// in\n    tag_464:\n        /* \"#utility.yul\":12338:12375   */\n      swap1\n      pop\n        /* \"#utility.yul\":12430:12434   */\n      0x20\n        /* \"#utility.yul\":12424:12428   */\n      dup2\n        /* \"#utility.yul\":12420:12435   */\n      add\n        /* \"#utility.yul\":12412:12435   */\n      swap1\n      pop\n        /* \"#utility.yul\":12201:12442   */\n      swap2\n      swap1\n      pop\n      jump\t// out\n        /* \"#utility.yul\":12448:12547   */\n    tag_410:\n      0x00\n        /* \"#utility.yul\":12534:12539   */\n      dup2\n        /* \"#utility.yul\":12528:12540   */\n      mload\n        /* \"#utility.yul\":12518:12540   */\n      swap1\n      pop\n        /* \"#utility.yul\":12507:12547   */\n      swap2\n      swap1\n      pop\n      jump\t// out\n        /* \"#utility.yul\":12553:12722   */\n    tag_412:\n      0x00\n        /* \"#utility.yul\":12671:12677   */\n      dup3\n        /* \"#utility.yul\":12666:12669   */\n      dup3\n        /* \"#utility.yul\":12659:12678   */\n      mstore\n        /* \"#utility.yul\":12711:12715   */\n      0x20\n        /* \"#utility.yul\":12706:12709   */\n      dup3\n        /* \"#utility.yul\":12702:12716   */\n      add\n        /* \"#utility.yul\":12687:12716   */\n      swap1\n      pop\n        /* \"#utility.yul\":12649:12722   */\n      swap3\n      swap2\n      pop\n      pop\n      jump\t// out\n        /* \"#utility.yul\":12728:12913   */\n    tag_306:\n      0x00\n        /* \"#utility.yul\":12785:12805   */\n      tag_468\n        /* \"#utility.yul\":12803:12804   */\n      dup3\n        /* \"#utility.yul\":12785:12805   */\n      tag_420\n      jump\t// in\n    tag_468:\n        /* \"#utility.yul\":12780:12805   */\n      swap2\n      pop\n        /* \"#utility.yul\":12819:12839   */\n      tag_469\n        /* \"#utility.yul\":12837:12838   */\n      dup4\n        /* \"#utility.yul\":12819:12839   */\n      tag_420\n      jump\t// in\n    tag_469:\n        /* \"#utility.yul\":12814:12839   */\n      swap3\n      pop\n        /* \"#utility.yul\":12858:12859   */\n      dup3\n        /* \"#utility.yul\":12848:12850   */\n      tag_470\n      jumpi\n        /* \"#utility.yul\":12863:12881   */\n      tag_471\n      tag_472\n      jump\t// in\n    tag_471:\n        /* \"#utility.yul\":12848:12850   */\n    tag_470:\n        /* \"#utility.yul\":12905:12906   */\n      dup3\n        /* \"#utility.yul\":12902:12903   */\n      dup3\n        /* \"#utility.yul\":12898:12907   */\n      div\n        /* \"#utility.yul\":12893:12907   */\n      swap1\n      pop\n        /* \"#utility.yul\":12770:12913   */\n      swap3\n      swap2\n      pop\n      pop\n      jump\t// out\n        /* \"#utility.yul\":12919:13015   */\n    tag_402:\n      0x00\n        /* \"#utility.yul\":12985:13009   */\n      tag_474\n        /* \"#utility.yul\":13003:13008   */\n      dup3\n        /* \"#utility.yul\":12985:13009   */\n      tag_475\n      jump\t// in\n    tag_474:\n        /* \"#utility.yul\":12974:13009   */\n      swap1\n      pop\n        /* \"#utility.yul\":12964:13015   */\n      swap2\n      swap1\n      pop\n      jump\t// out\n        /* \"#utility.yul\":13021:13125   */\n    tag_398:\n      0x00\n        /* \"#utility.yul\":13095:13119   */\n      tag_477\n        /* \"#utility.yul\":13113:13118   */\n      dup3\n        /* \"#utility.yul\":13095:13119   */\n      tag_475\n      jump\t// in\n    tag_477:\n        /* \"#utility.yul\":13084:13119   */\n      swap1\n      pop\n        /* \"#utility.yul\":13074:13125   */\n      swap2\n      swap1\n      pop\n      jump\t// out\n        /* \"#utility.yul\":13131:13221   */\n    tag_406:\n      0x00\n        /* \"#utility.yul\":13208:13213   */\n      dup2\n        /* \"#utility.yul\":13201:13214   */\n      iszero\n        /* \"#utility.yul\":13194:13215   */\n      iszero\n        /* \"#utility.yul\":13183:13215   */\n      swap1\n      pop\n        /* \"#utility.yul\":13173:13221   */\n      swap2\n      swap1\n      pop\n      jump\t// out\n        /* \"#utility.yul\":13227:13353   */\n    tag_475:\n      0x00\n        /* \"#utility.yul\":13304:13346   */\n      0xffffffffffffffffffffffffffffffffffffffff\n        /* \"#utility.yul\":13297:13302   */\n      dup3\n        /* \"#utility.yul\":13293:13347   */\n      and\n        /* \"#utility.yul\":13282:13347   */\n      swap1\n      pop\n        /* \"#utility.yul\":13272:13353   */\n      swap2\n      swap1\n      pop\n      jump\t// out\n        /* \"#utility.yul\":13359:13436   */\n    tag_420:\n      0x00\n        /* \"#utility.yul\":13425:13430   */\n      dup2\n        /* \"#utility.yul\":13414:13430   */\n      swap1\n      pop\n        /* \"#utility.yul\":13404:13436   */\n      swap2\n      swap1\n      pop\n      jump\t// out\n        /* \"#utility.yul\":13442:13596   */\n    tag_334:\n        /* \"#utility.yul\":13526:13532   */\n      dup3\n        /* \"#utility.yul\":13521:13524   */\n      dup2\n        /* \"#utility.yul\":13516:13519   */\n      dup4\n        /* \"#utility.yul\":13503:13533   */\n      calldatacopy\n        /* \"#utility.yul\":13588:13589   */\n      0x00\n        /* \"#utility.yul\":13579:13585   */\n      dup4\n        /* \"#utility.yul\":13574:13577   */\n      dup4\n        /* \"#utility.yul\":13570:13586   */\n      add\n        /* \"#utility.yul\":13563:13590   */\n      mstore\n        /* \"#utility.yul\":13493:13596   */\n      pop\n      pop\n      pop\n      jump\t// out\n        /* \"#utility.yul\":13602:13909   */\n    tag_414:\n        /* \"#utility.yul\":13670:13671   */\n      0x00\n        /* \"#utility.yul\":13680:13793   */\n    tag_483:\n        /* \"#utility.yul\":13694:13700   */\n      dup4\n        /* \"#utility.yul\":13691:13692   */\n      dup2\n        /* \"#utility.yul\":13688:13701   */\n      lt\n        /* \"#utility.yul\":13680:13793   */\n      iszero\n      tag_485\n      jumpi\n        /* \"#utility.yul\":13779:13780   */\n      dup1\n        /* \"#utility.yul\":13774:13777   */\n      dup3\n        /* \"#utility.yul\":13770:13781   */\n      add\n        /* \"#utility.yul\":13764:13782   */\n      mload\n        /* \"#utility.yul\":13760:13761   */\n      dup2\n        /* \"#utility.yul\":13755:13758   */\n      dup5\n        /* \"#utility.yul\":13751:13762   */\n      add\n        /* \"#utility.yul\":13744:13783   */\n      mstore\n        /* \"#utility.yul\":13716:13718   */\n      0x20\n        /* \"#utility.yul\":13713:13714   */\n      dup2\n        /* \"#utility.yul\":13709:13719   */\n      add\n        /* \"#utility.yul\":13704:13719   */\n      swap1\n      pop\n        /* \"#utility.yul\":13680:13793   */\n      jump(tag_483)\n    tag_485:\n        /* \"#utility.yul\":13811:13817   */\n      dup4\n        /* \"#utility.yul\":13808:13809   */\n      dup2\n        /* \"#utility.yul\":13805:13818   */\n      gt\n        /* \"#utility.yul\":13802:13804   */\n      iszero\n      tag_486\n      jumpi\n        /* \"#utility.yul\":13891:13892   */\n      0x00\n        /* \"#utility.yul\":13882:13888   */\n      dup5\n        /* \"#utility.yul\":13877:13880   */\n      dup5\n        /* \"#utility.yul\":13873:13889   */\n      add\n        /* \"#utility.yul\":13866:13893   */\n      mstore\n        /* \"#utility.yul\":13802:13804   */\n    tag_486:\n        /* \"#utility.yul\":13651:13909   */\n      pop\n      pop\n      pop\n      pop\n      jump\t// out\n        /* \"#utility.yul\":13915:14235   */\n    tag_129:\n      0x00\n        /* \"#utility.yul\":13996:13997   */\n      0x02\n        /* \"#utility.yul\":13990:13994   */\n      dup3\n        /* \"#utility.yul\":13986:13998   */\n      div\n        /* \"#utility.yul\":13976:13998   */\n      swap1\n      pop\n        /* \"#utility.yul\":14043:14044   */\n      0x01\n        /* \"#utility.yul\":14037:14041   */\n      dup3\n        /* \"#utility.yul\":14033:14045   */\n      and\n        /* \"#utility.yul\":14064:14082   */\n      dup1\n        /* \"#utility.yul\":14054:14056   */\n      tag_488\n      jumpi\n        /* \"#utility.yul\":14120:14124   */\n      0x7f\n        /* \"#utility.yul\":14112:14118   */\n      dup3\n        /* \"#utility.yul\":14108:14125   */\n      and\n        /* \"#utility.yul\":14098:14125   */\n      swap2\n      pop\n        /* \"#utility.yul\":14054:14056   */\n    tag_488:\n        /* \"#utility.yul\":14182:14184   */\n      0x20\n        /* \"#utility.yul\":14174:14180   */\n      dup3\n        /* \"#utility.yul\":14171:14185   */\n      lt\n        /* \"#utility.yul\":14151:14169   */\n      dup2\n        /* \"#utility.yul\":14148:14186   */\n      eq\n        /* \"#utility.yul\":14145:14147   */\n      iszero\n      tag_489\n      jumpi\n        /* \"#utility.yul\":14201:14219   */\n      tag_490\n      tag_491\n      jump\t// in\n    tag_490:\n        /* \"#utility.yul\":14145:14147   */\n    tag_489:\n        /* \"#utility.yul\":13966:14235   */\n      pop\n      swap2\n      swap1\n      pop\n      jump\t// out\n        /* \"#utility.yul\":14241:14522   */\n    tag_458:\n        /* \"#utility.yul\":14324:14351   */\n      tag_493\n        /* \"#utility.yul\":14346:14350   */\n      dup3\n        /* \"#utility.yul\":14324:14351   */\n      tag_416\n      jump\t// in\n    tag_493:\n        /* \"#utility.yul\":14316:14322   */\n      dup2\n        /* \"#utility.yul\":14312:14352   */\n      add\n        /* \"#utility.yul\":14454:14460   */\n      dup2\n        /* \"#utility.yul\":14442:14452   */\n      dup2\n        /* \"#utility.yul\":14439:14461   */\n      lt\n        /* \"#utility.yul\":14418:14436   */\n      0xffffffffffffffff\n        /* \"#utility.yul\":14406:14416   */\n      dup3\n        /* \"#utility.yul\":14403:14437   */\n      gt\n        /* \"#utility.yul\":14400:14462   */\n      or\n        /* \"#utility.yul\":14397:14399   */\n      iszero\n      tag_494\n      jumpi\n        /* \"#utility.yul\":14465:14483   */\n      tag_495\n      tag_463\n      jump\t// in\n    tag_495:\n        /* \"#utility.yul\":14397:14399   */\n    tag_494:\n        /* \"#utility.yul\":14505:14515   */\n      dup1\n        /* \"#utility.yul\":14501:14503   */\n      0x40\n        /* \"#utility.yul\":14494:14516   */\n      mstore\n        /* \"#utility.yul\":14284:14522   */\n      pop\n      pop\n      pop\n      jump\t// out\n        /* \"#utility.yul\":14528:14761   */\n    tag_216:\n      0x00\n        /* \"#utility.yul\":14590:14614   */\n      tag_497\n        /* \"#utility.yul\":14608:14613   */\n      dup3\n        /* \"#utility.yul\":14590:14614   */\n      tag_420\n      jump\t// in\n    tag_497:\n        /* \"#utility.yul\":14581:14614   */\n      swap2\n      pop\n        /* \"#utility.yul\":14636:14702   */\n      0xffffffffffffffffffffffffffffffffffffffffffffffffffffffffffffffff\n        /* \"#utility.yul\":14629:14634   */\n      dup3\n        /* \"#utility.yul\":14626:14703   */\n      eq\n        /* \"#utility.yul\":14623:14625   */\n      iszero\n      tag_498\n      jumpi\n        /* \"#utility.yul\":14706:14724   */\n      tag_499\n      tag_500\n      jump\t// in\n    tag_499:\n        /* \"#utility.yul\":14623:14625   */\n    tag_498:\n        /* \"#utility.yul\":14753:14754   */\n      0x01\n        /* \"#utility.yul\":14746:14751   */\n      dup3\n        /* \"#utility.yul\":14742:14755   */\n      add\n        /* \"#utility.yul\":14735:14755   */\n      swap1\n      pop\n        /* \"#utility.yul\":14571:14761   */\n      swap2\n      swap1\n      pop\n      jump\t// out\n        /* \"#utility.yul\":14767:14947   */\n    tag_500:\n        /* \"#utility.yul\":14815:14892   */\n      0x4e487b7100000000000000000000000000000000000000000000000000000000\n        /* \"#utility.yul\":14812:14813   */\n      0x00\n        /* \"#utility.yul\":14805:14893   */\n      mstore\n        /* \"#utility.yul\":14912:14916   */\n      0x11\n        /* \"#utility.yul\":14909:14910   */\n      0x04\n        /* \"#utility.yul\":14902:14917   */\n      mstore\n        /* \"#utility.yul\":14936:14940   */\n      0x24\n        /* \"#utility.yul\":14933:14934   */\n      0x00\n        /* \"#utility.yul\":14926:14941   */\n      revert\n        /* \"#utility.yul\":14953:15133   */\n    tag_472:\n        /* \"#utility.yul\":15001:15078   */\n      0x4e487b7100000000000000000000000000000000000000000000000000000000\n        /* \"#utility.yul\":14998:14999   */\n      0x00\n        /* \"#utility.yul\":14991:15079   */\n      mstore\n        /* \"#utility.yul\":15098:15102   */\n      0x12\n        /* \"#utility.yul\":15095:15096   */\n      0x04\n        /* \"#utility.yul\":15088:15103   */\n      mstore\n        /* \"#utility.yul\":15122:15126   */\n      0x24\n        /* \"#utility.yul\":15119:15120   */\n      0x00\n        /* \"#utility.yul\":15112:15127   */\n      revert\n        /* \"#utility.yul\":15139:15319   */\n    tag_491:\n        /* \"#utility.yul\":15187:15264   */\n      0x4e487b7100000000000000000000000000000000000000000000000000000000\n        /* \"#utility.yul\":15184:15185   */\n      0x00\n        /* \"#utility.yul\":15177:15265   */\n      mstore\n        /* \"#utility.yul\":15284:15288   */\n      0x22\n        /* \"#utility.yul\":15281:15282   */\n      0x04\n        /* \"#utility.yul\":15274:15289   */\n      mstore\n        /* \"#utility.yul\":15308:15312   */\n      0x24\n        /* \"#utility.yul\":15305:15306   */\n      0x00\n        /* \"#utility.yul\":15298:15313   */\n      revert\n        /* \"#utility.yul\":15325:15505   */\n    tag_463:\n        /* \"#utility.yul\":15373:15450   */\n      0x4e487b7100000000000000000000000000000000000000000000000000000000\n        /* \"#utility.yul\":15370:15371   */\n      0x00\n        /* \"#utility.yul\":15363:15451   */\n      mstore\n        /* \"#utility.yul\":15470:15474   */\n      0x41\n        /* \"#utility.yul\":15467:15468   */\n      0x04\n        /* \"#utility.yul\":15460:15475   */\n      mstore\n        /* \"#utility.yul\":15494:15498   */\n      0x24\n        /* \"#utility.yul\":15491:15492   */\n      0x00\n        /* \"#utility.yul\":15484:15499   */\n      revert\n        /* \"#utility.yul\":15511:15613   */\n    tag_416:\n      0x00\n        /* \"#utility.yul\":15603:15605   */\n      0x1f\n        /* \"#utility.yul\":15599:15606   */\n      not\n        /* \"#utility.yul\":15594:15596   */\n      0x1f\n        /* \"#utility.yul\":15587:15592   */\n      dup4\n        /* \"#utility.yul\":15583:15597   */\n      add\n        /* \"#utility.yul\":15579:15607   */\n      and\n        /* \"#utility.yul\":15569:15607   */\n      swap1\n      pop\n        /* \"#utility.yul\":15559:15613   */\n      swap2\n      swap1\n      pop\n      jump\t// out\n        /* \"#utility.yul\":15619:15741   */\n    tag_338:\n        /* \"#utility.yul\":15692:15716   */\n      tag_507\n        /* \"#utility.yul\":15710:15715   */\n      dup2\n        /* \"#utility.yul\":15692:15716   */\n      tag_402\n      jump\t// in\n    tag_507:\n        /* \"#utility.yul\":15685:15690   */\n      dup2\n        /* \"#utility.yul\":15682:15717   */\n      eq\n        /* \"#utility.yul\":15672:15674   */\n      tag_508\n      jumpi\n        /* \"#utility.yul\":15731:15732   */\n      0x00\n        /* \"#utility.yul\":15728:15729   */\n      dup1\n        /* \"#utility.yul\":15721:15733   */\n      revert\n        /* \"#utility.yul\":15672:15674   */\n    tag_508:\n        /* \"#utility.yul\":15662:15741   */\n      pop\n      jump\t// out\n        /* \"#utility.yul\":15747:15885   */\n    tag_342:\n        /* \"#utility.yul\":15828:15860   */\n      tag_510\n        /* \"#utility.yul\":15854:15859   */\n      dup2\n        /* \"#utility.yul\":15828:15860   */\n      tag_398\n      jump\t// in\n    tag_510:\n        /* \"#utility.yul\":15821:15826   */\n      dup2\n        /* \"#utility.yul\":15818:15861   */\n      eq\n        /* \"#utility.yul\":15808:15810   */\n      tag_511\n      jumpi\n        /* \"#utility.yul\":15875:15876   */\n      0x00\n        /* \"#utility.yul\":15872:15873   */\n      dup1\n        /* \"#utility.yul\":15865:15877   */\n      revert\n        /* \"#utility.yul\":15808:15810   */\n    tag_511:\n        /* \"#utility.yul\":15798:15885   */\n      pop\n      jump\t// out\n        /* \"#utility.yul\":15891:16013   */\n    tag_350:\n        /* \"#utility.yul\":15964:15988   */\n      tag_513\n        /* \"#utility.yul\":15982:15987   */\n      dup2\n        /* \"#utility.yul\":15964:15988   */\n      tag_420\n      jump\t// in\n    tag_513:\n        /* \"#utility.yul\":15957:15962   */\n      dup2\n        /* \"#utility.yul\":15954:15989   */\n      eq\n        /* \"#utility.yul\":15944:15946   */\n      tag_514\n      jumpi\n        /* \"#utility.yul\":16003:16004   */\n      0x00\n        /* \"#utility.yul\":16000:16001   */\n      dup1\n        /* \"#utility.yul\":15993:16005   */\n      revert\n        /* \"#utility.yul\":15944:15946   */\n    tag_514:\n        /* \"#utility.yul\":15934:16013   */\n      pop\n      jump\t// out\n\n    auxdata: 0xa2646970667358221220217467d8c8f8a5d92f30f169aa34f339bdac82d0c3ed4b2fd6590b82446f5e2164736f6c63430008030033\n}\n",
    "bytecode": {
      "linkReferences": {},
      "object": "608060405260006009553480156200001657600080fd5b5060405162002ae538038062002ae583398181016040528101906200003c9190620000b9565b806000806101000a81548173ffffffffffffffffffffffffffffffffffffffff021916908373ffffffffffffffffffffffffffffffffffffffff1602179055508160028190555050506200016c565b6000815190506200009c8162000138565b92915050565b600081519050620000b38162000152565b92915050565b60008060408385031215620000cd57600080fd5b6000620000dd85828601620000a2565b9250506020620000f0858286016200008b565b9150509250929050565b600062000107826200010e565b9050919050565b600073ffffffffffffffffffffffffffffffffffffffff82169050919050565b6000819050919050565b6200014381620000fa565b81146200014f57600080fd5b50565b6200015d816200012e565b81146200016957600080fd5b50565b612969806200017c6000396000f3fe60806040526004361061012a5760003560e01c806396d8f4f3116100ab578063c216c95c1161006f578063c216c95c14610433578063c4ed07761461045e578063c7137e5c146104a0578063d2ef23ad146104c9578063e7b668b4146104f2578063ed88c68e1461050e5761012a565b806396d8f4f3146103225780639eedaf2e1461034d578063a4f4697514610376578063a746ee2e146103b8578063be4f6e57146103f65761012a565b80634ad31cd7116100f25780634ad31cd7146102335780634eebdc50146102715780637e5374861461029a57806381d12c58146102c55780638a9cfd55146103065761012a565b806308a87b791461012f5780631d7ae8571461015a578063252599831461019b5780634051ddac146101c457806341d57616146101f2575b600080fd5b34801561013b57600080fd5b50610144610518565b60405161015191906125d6565b60405180910390f35b34801561016657600080fd5b50610181600480360381019061017c919061206c565b61051e565b60405161019295949392919061247b565b60405180910390f35b3480156101a757600080fd5b506101c260048036038101906101bd9190612095565b6107fc565b005b3480156101d057600080fd5b506101d96108e9565b6040516101e994939291906125f1565b60405180910390f35b3480156101fe57600080fd5b506102196004803603810190610214919061206c565b610925565b60405161022a95949392919061247b565b60405180910390f35b34801561023f57600080fd5b5061025a6004803603810190610255919061206c565b610c82565b604051610268929190612444565b60405180910390f35b34801561027d57600080fd5b50610298600480360381019061029391906121f0565b610db6565b005b3480156102a657600080fd5b506102af610f33565b6040516102bc919061240e565b60405180910390f35b3480156102d157600080fd5b506102ec60048036038101906102e79190612370565b610f57565b6040516102fd95949392919061257c565b60405180910390f35b610320600480360381019061031b9190612309565b611042565b005b34801561032e57600080fd5b5061033761115d565b60405161034491906125d6565b60405180910390f35b34801561035957600080fd5b50610374600480360381019061036f9190612370565b611163565b005b34801561038257600080fd5b5061039d6004803603810190610398919061206c565b6112a6565b6040516103af969594939291906124f1565b60405180910390f35b3480156103c457600080fd5b506103df60048036038101906103da919061206c565b61169d565b6040516103ed929190612444565b60405180910390f35b34801561040257600080fd5b5061041d6004803603810190610418919061206c565b611826565b60405161042a9190612429565b60405180910390f35b34801561043f57600080fd5b50610448611846565b60405161045591906125d6565b60405180910390f35b34801561046a57600080fd5b506104856004803603810190610480919061206c565b61184c565b604051610497969594939291906124f1565b60405180910390f35b3480156104ac57600080fd5b506104c760048036038101906104c29190612101565b611bb8565b005b3480156104d557600080fd5b506104f060048036038101906104eb9190612370565b611d11565b005b61050c60048036038101906105079190612370565b611d1b565b005b610516611e50565b005b60035481565b600660205280600052604060002060009150905080600001805461054190612775565b80601f016020809104026020016040519081016040528092919081815260200182805461056d90612775565b80156105ba5780601f1061058f576101008083540402835291602001916105ba565b820191906000526020600020905b81548152906001019060200180831161059d57829003601f168201915b5050505050908060010180546105cf90612775565b80601f01602080910402602001604051908101604052809291908181526020018280546105fb90612775565b80156106485780601f1061061d57610100808354040283529160200191610648565b820191906000526020600020905b81548152906001019060200180831161062b57829003601f168201915b50505050509080600201805461065d90612775565b80601f016020809104026020016040519081016040528092919081815260200182805461068990612775565b80156106d65780601f106106ab576101008083540402835291602001916106d6565b820191906000526020600020905b8154815290600101906020018083116106b957829003601f168201915b5050505050908060030180546106eb90612775565b80601f016020809104026020016040519081016040528092919081815260200182805461071790612775565b80156107645780601f1061073957610100808354040283529160200191610764565b820191906000526020600020905b81548152906001019060200180831161074757829003601f168201915b50505050509080600401805461077990612775565b80601f01602080910402602001604051908101604052809291908181526020018280546107a590612775565b80156107f25780601f106107c7576101008083540402835291602001916107f2565b820191906000526020600020905b8154815290600101906020018083116107d557829003601f168201915b5050505050905085565b60008054906101000a900473ffffffffffffffffffffffffffffffffffffffff1673ffffffffffffffffffffffffffffffffffffffff163373ffffffffffffffffffffffffffffffffffffffff161461085457600080fd5b604051806040016040528083815260200182815250600760003373ffffffffffffffffffffffffffffffffffffffff1673ffffffffffffffffffffffffffffffffffffffff16815260200190815260200160002060008201518160000190805190602001906108c4929190611f22565b5060208201518160010190805190602001906108e1929190611f22565b509050505050565b6000806000806002544760045460008054906101000a900473ffffffffffffffffffffffffffffffffffffffff16935093509350935090919293565b60608060608060606000600660008873ffffffffffffffffffffffffffffffffffffffff1673ffffffffffffffffffffffffffffffffffffffff1681526020019081526020016000206040518060a001604052908160008201805461098990612775565b80601f01602080910402602001604051908101604052809291908181526020018280546109b590612775565b8015610a025780601f106109d757610100808354040283529160200191610a02565b820191906000526020600020905b8154815290600101906020018083116109e557829003601f168201915b50505050508152602001600182018054610a1b90612775565b80601f0160208091040260200160405190810160405280929190818152602001828054610a4790612775565b8015610a945780601f10610a6957610100808354040283529160200191610a94565b820191906000526020600020905b815481529060010190602001808311610a7757829003601f168201915b50505050508152602001600282018054610aad90612775565b80601f0160208091040260200160405190810160405280929190818152602001828054610ad990612775565b8015610b265780601f10610afb57610100808354040283529160200191610b26565b820191906000526020600020905b815481529060010190602001808311610b0957829003601f168201915b50505050508152602001600382018054610b3f90612775565b80601f0160208091040260200160405190810160405280929190818152602001828054610b6b90612775565b8015610bb85780601f10610b8d57610100808354040283529160200191610bb8565b820191906000526020600020905b815481529060010190602001808311610b9b57829003601f168201915b50505050508152602001600482018054610bd190612775565b80601f0160208091040260200160405190810160405280929190818152602001828054610bfd90612775565b8015610c4a5780601f10610c1f57610100808354040283529160200191610c4a565b820191906000526020600020905b815481529060010190602001808311610c2d57829003601f168201915b505050505081525050905080600001518160200151826040015183606001518460800151955095509550955095505091939590929450565b6007602052806000526040600020600091509050806000018054610ca590612775565b80601f0160208091040260200160405190810160405280929190818152602001828054610cd190612775565b8015610d1e5780601f10610cf357610100808354040283529160200191610d1e565b820191906000526020600020905b815481529060010190602001808311610d0157829003601f168201915b505050505090806001018054610d3390612775565b80601f0160208091040260200160405190810160405280929190818152602001828054610d5f90612775565b8015610dac5780601f10610d8157610100808354040283529160200191610dac565b820191906000526020600020905b815481529060010190602001808311610d8f57829003601f168201915b5050505050905082565b60008054906101000a900473ffffffffffffffffffffffffffffffffffffffff1673ffffffffffffffffffffffffffffffffffffffff163373ffffffffffffffffffffffffffffffffffffffff1614610e0e57600080fd5b6040518060c0016040528087815260200186815260200185815260200184815260200183815260200182815250600560003373ffffffffffffffffffffffffffffffffffffffff1673ffffffffffffffffffffffffffffffffffffffff1681526020019081526020016000206000820151816000019080519060200190610e96929190611f22565b506020820151816001019080519060200190610eb3929190611f22565b506040820151816002019080519060200190610ed0929190611f22565b506060820151816003019080519060200190610eed929190611f22565b506080820151816004019080519060200190610f0a929190611f22565b5060a0820151816005019080519060200190610f27929190611f22565b50905050505050505050565b60008054906101000a900473ffffffffffffffffffffffffffffffffffffffff1681565b6008602052806000526040600020600091509050806000018054610f7a90612775565b80601f0160208091040260200160405190810160405280929190818152602001828054610fa690612775565b8015610ff35780601f10610fc857610100808354040283529160200191610ff3565b820191906000526020600020905b815481529060010190602001808311610fd657829003601f168201915b5050505050908060010154908060020160009054906101000a900473ffffffffffffffffffffffffffffffffffffffff16908060020160149054906101000a900460ff16908060030154905085565b60008054906101000a900473ffffffffffffffffffffffffffffffffffffffff1673ffffffffffffffffffffffffffffffffffffffff163373ffffffffffffffffffffffffffffffffffffffff161461109a57600080fd5b60006008600060095481526020019081526020016000209050838160000190805190602001906110cb929190611f22565b50828160010181905550818160020160006101000a81548173ffffffffffffffffffffffffffffffffffffffff021916908373ffffffffffffffffffffffffffffffffffffffff16021790555060008160020160146101000a81548160ff0219169083151502179055506000816003018190555060096000815480929190611152906127d8565b919050555050505050565b60025481565b6000600860008381526020019081526020016000209050600160003373ffffffffffffffffffffffffffffffffffffffff1673ffffffffffffffffffffffffffffffffffffffff16815260200190815260200160002060009054906101000a900460ff166111d057600080fd5b6008600083815260200190815260200160002060040160003373ffffffffffffffffffffffffffffffffffffffff1673ffffffffffffffffffffffffffffffffffffffff16815260200190815260200160002060009054906101000a900460ff161561123b57600080fd5b8060040160003373ffffffffffffffffffffffffffffffffffffffff1673ffffffffffffffffffffffffffffffffffffffff16815260200190815260200160002060009054906101000a90505080600301600081548092919061129d906127d8565b91905055505050565b6060806060806060806000600560008973ffffffffffffffffffffffffffffffffffffffff1673ffffffffffffffffffffffffffffffffffffffff1681526020019081526020016000206040518060c001604052908160008201805461130b90612775565b80601f016020809104026020016040519081016040528092919081815260200182805461133790612775565b80156113845780601f1061135957610100808354040283529160200191611384565b820191906000526020600020905b81548152906001019060200180831161136757829003601f168201915b5050505050815260200160018201805461139d90612775565b80601f01602080910402602001604051908101604052809291908181526020018280546113c990612775565b80156114165780601f106113eb57610100808354040283529160200191611416565b820191906000526020600020905b8154815290600101906020018083116113f957829003601f168201915b5050505050815260200160028201805461142f90612775565b80601f016020809104026020016040519081016040528092919081815260200182805461145b90612775565b80156114a85780601f1061147d576101008083540402835291602001916114a8565b820191906000526020600020905b81548152906001019060200180831161148b57829003601f168201915b505050505081526020016003820180546114c190612775565b80601f01602080910402602001604051908101604052809291908181526020018280546114ed90612775565b801561153a5780601f1061150f5761010080835404028352916020019161153a565b820191906000526020600020905b81548152906001019060200180831161151d57829003601f168201915b5050505050815260200160048201805461155390612775565b80601f016020809104026020016040519081016040528092919081815260200182805461157f90612775565b80156115cc5780601f106115a1576101008083540402835291602001916115cc565b820191906000526020600020905b8154815290600101906020018083116115af57829003601f168201915b505050505081526020016005820180546115e590612775565b80601f016020809104026020016040519081016040528092919081815260200182805461161190612775565b801561165e5780601f106116335761010080835404028352916020019161165e565b820191906000526020600020905b81548152906001019060200180831161164157829003601f168201915b5050505050815250509050806000015181602001518260400151836060015184608001518560a001519650965096509650965096505091939550919395565b6060806000600760008573ffffffffffffffffffffffffffffffffffffffff1673ffffffffffffffffffffffffffffffffffffffff1681526020019081526020016000206040518060400160405290816000820180546116fc90612775565b80601f016020809104026020016040519081016040528092919081815260200182805461172890612775565b80156117755780601f1061174a57610100808354040283529160200191611775565b820191906000526020600020905b81548152906001019060200180831161175857829003601f168201915b5050505050815260200160018201805461178e90612775565b80601f01602080910402602001604051908101604052809291908181526020018280546117ba90612775565b80156118075780601f106117dc57610100808354040283529160200191611807565b820191906000526020600020905b8154815290600101906020018083116117ea57829003601f168201915b5050505050815250509050806000015181602001519250925050915091565b60016020528060005260406000206000915054906101000a900460ff1681565b60045481565b600560205280600052604060002060009150905080600001805461186f90612775565b80601f016020809104026020016040519081016040528092919081815260200182805461189b90612775565b80156118e85780601f106118bd576101008083540402835291602001916118e8565b820191906000526020600020905b8154815290600101906020018083116118cb57829003601f168201915b5050505050908060010180546118fd90612775565b80601f016020809104026020016040519081016040528092919081815260200182805461192990612775565b80156119765780601f1061194b57610100808354040283529160200191611976565b820191906000526020600020905b81548152906001019060200180831161195957829003601f168201915b50505050509080600201805461198b90612775565b80601f01602080910402602001604051908101604052809291908181526020018280546119b790612775565b8015611a045780601f106119d957610100808354040283529160200191611a04565b820191906000526020600020905b8154815290600101906020018083116119e757829003601f168201915b505050505090806003018054611a1990612775565b80601f0160208091040260200160405190810160405280929190818152602001828054611a4590612775565b8015611a925780601f10611a6757610100808354040283529160200191611a92565b820191906000526020600020905b815481529060010190602001808311611a7557829003601f168201915b505050505090806004018054611aa790612775565b80601f0160208091040260200160405190810160405280929190818152602001828054611ad390612775565b8015611b205780601f10611af557610100808354040283529160200191611b20565b820191906000526020600020905b815481529060010190602001808311611b0357829003601f168201915b505050505090806005018054611b3590612775565b80601f0160208091040260200160405190810160405280929190818152602001828054611b6190612775565b8015611bae5780601f10611b8357610100808354040283529160200191611bae565b820191906000526020600020905b815481529060010190602001808311611b9157829003601f168201915b5050505050905086565b60008054906101000a900473ffffffffffffffffffffffffffffffffffffffff1673ffffffffffffffffffffffffffffffffffffffff163373ffffffffffffffffffffffffffffffffffffffff1614611c1057600080fd5b6040518060a0016040528086815260200185815260200184815260200183815260200182815250600660003373ffffffffffffffffffffffffffffffffffffffff1673ffffffffffffffffffffffffffffffffffffffff1681526020019081526020016000206000820151816000019080519060200190611c92929190611f22565b506020820151816001019080519060200190611caf929190611f22565b506040820151816002019080519060200190611ccc929190611f22565b506060820151816003019080519060200190611ce9929190611f22565b506080820151816004019080519060200190611d06929190611f22565b509050505050505050565b8060038190555050565b60008054906101000a900473ffffffffffffffffffffffffffffffffffffffff1673ffffffffffffffffffffffffffffffffffffffff163373ffffffffffffffffffffffffffffffffffffffff1614611d7357600080fd5b60006008600083815260200190815260200160002090506002600454611d9991906126a8565b816003015411611da857600080fd5b8060020160149054906101000a900460ff1615611dc457600080fd5b8060020160009054906101000a900473ffffffffffffffffffffffffffffffffffffffff1673ffffffffffffffffffffffffffffffffffffffff166108fc349081150290604051600060405180830381858888f19350505050158015611e2e573d6000803e3d6000fd5b5060018160020160146101000a81548160ff0219169083151502179055505050565b600254341015611e5f57600080fd5b600160003373ffffffffffffffffffffffffffffffffffffffff1673ffffffffffffffffffffffffffffffffffffffff16815260200190815260200160002060009054906101000a900460ff16611ec95760046000815480929190611ec3906127d8565b91905055505b60018060003373ffffffffffffffffffffffffffffffffffffffff1673ffffffffffffffffffffffffffffffffffffffff16815260200190815260200160002060006101000a81548160ff021916908315150217905550565b828054611f2e90612775565b90600052602060002090601f016020900481019282611f505760008555611f97565b82601f10611f6957805160ff1916838001178555611f97565b82800160010185558215611f97579182015b82811115611f96578251825591602001919060010190611f7b565b5b509050611fa49190611fa8565b5090565b5b80821115611fc1576000816000905550600101611fa9565b5090565b6000611fd8611fd38461265b565b612636565b905082815260208101848484011115611ff057600080fd5b611ffb848285612733565b509392505050565b600081359050612012816128ee565b92915050565b60008135905061202781612905565b92915050565b600082601f83011261203e57600080fd5b813561204e848260208601611fc5565b91505092915050565b6000813590506120668161291c565b92915050565b60006020828403121561207e57600080fd5b600061208c84828501612003565b91505092915050565b600080604083850312156120a857600080fd5b600083013567ffffffffffffffff8111156120c257600080fd5b6120ce8582860161202d565b925050602083013567ffffffffffffffff8111156120eb57600080fd5b6120f78582860161202d565b9150509250929050565b600080600080600060a0868803121561211957600080fd5b600086013567ffffffffffffffff81111561213357600080fd5b61213f8882890161202d565b955050602086013567ffffffffffffffff81111561215c57600080fd5b6121688882890161202d565b945050604086013567ffffffffffffffff81111561218557600080fd5b6121918882890161202d565b935050606086013567ffffffffffffffff8111156121ae57600080fd5b6121ba8882890161202d565b925050608086013567ffffffffffffffff8111156121d757600080fd5b6121e38882890161202d565b9150509295509295909350565b60008060008060008060c0878903121561220957600080fd5b600087013567ffffffffffffffff81111561222357600080fd5b61222f89828a0161202d565b965050602087013567ffffffffffffffff81111561224c57600080fd5b61225889828a0161202d565b955050604087013567ffffffffffffffff81111561227557600080fd5b61228189828a0161202d565b945050606087013567ffffffffffffffff81111561229e57600080fd5b6122aa89828a0161202d565b935050608087013567ffffffffffffffff8111156122c757600080fd5b6122d389828a0161202d565b92505060a087013567ffffffffffffffff8111156122f057600080fd5b6122fc89828a0161202d565b9150509295509295509295565b60008060006060848603121561231e57600080fd5b600084013567ffffffffffffffff81111561233857600080fd5b6123448682870161202d565b935050602061235586828701612057565b925050604061236686828701612018565b9150509250925092565b60006020828403121561238257600080fd5b600061239084828501612057565b91505092915050565b6123a2816126eb565b82525050565b6123b1816126d9565b82525050565b6123c0816126fd565b82525050565b60006123d18261268c565b6123db8185612697565b93506123eb818560208601612742565b6123f4816128dd565b840191505092915050565b61240881612729565b82525050565b600060208201905061242360008301846123a8565b92915050565b600060208201905061243e60008301846123b7565b92915050565b6000604082019050818103600083015261245e81856123c6565b9050818103602083015261247281846123c6565b90509392505050565b600060a082019050818103600083015261249581886123c6565b905081810360208301526124a981876123c6565b905081810360408301526124bd81866123c6565b905081810360608301526124d181856123c6565b905081810360808301526124e581846123c6565b90509695505050505050565b600060c082019050818103600083015261250b81896123c6565b9050818103602083015261251f81886123c6565b9050818103604083015261253381876123c6565b9050818103606083015261254781866123c6565b9050818103608083015261255b81856123c6565b905081810360a083015261256f81846123c6565b9050979650505050505050565b600060a082019050818103600083015261259681886123c6565b90506125a560208301876123ff565b6125b26040830186612399565b6125bf60608301856123b7565b6125cc60808301846123ff565b9695505050505050565b60006020820190506125eb60008301846123ff565b92915050565b600060808201905061260660008301876123ff565b61261360208301866123ff565b61262060408301856123ff565b61262d60608301846123a8565b95945050505050565b6000612640612651565b905061264c82826127a7565b919050565b6000604051905090565b600067ffffffffffffffff821115612676576126756128ae565b5b61267f826128dd565b9050602081019050919050565b600081519050919050565b600082825260208201905092915050565b60006126b382612729565b91506126be83612729565b9250826126ce576126cd612850565b5b828204905092915050565b60006126e482612709565b9050919050565b60006126f682612709565b9050919050565b60008115159050919050565b600073ffffffffffffffffffffffffffffffffffffffff82169050919050565b6000819050919050565b82818337600083830152505050565b60005b83811015612760578082015181840152602081019050612745565b8381111561276f576000848401525b50505050565b6000600282049050600182168061278d57607f821691505b602082108114156127a1576127a061287f565b5b50919050565b6127b0826128dd565b810181811067ffffffffffffffff821117156127cf576127ce6128ae565b5b80604052505050565b60006127e382612729565b91507fffffffffffffffffffffffffffffffffffffffffffffffffffffffffffffffff82141561281657612815612821565b5b600182019050919050565b7f4e487b7100000000000000000000000000000000000000000000000000000000600052601160045260246000fd5b7f4e487b7100000000000000000000000000000000000000000000000000000000600052601260045260246000fd5b7f4e487b7100000000000000000000000000000000000000000000000000000000600052602260045260246000fd5b7f4e487b7100000000000000000000000000000000000000000000000000000000600052604160045260246000fd5b6000601f19601f8301169050919050565b6128f7816126d9565b811461290257600080fd5b50565b61290e816126eb565b811461291957600080fd5b50565b61292581612729565b811461293057600080fd5b5056fea2646970667358221220217467d8c8f8a5d92f30f169aa34f339bdac82d0c3ed4b2fd6590b82446f5e2164736f6c63430008030033",
      "opcodes": "PUSH1 0x80 PUSH1 0x40 MSTORE PUSH1 0x0 PUSH1 0x9 SSTORE CALLVALUE DUP1 ISZERO PUSH3 0x16 JUMPI PUSH1 0x0 DUP1 REVERT JUMPDEST POP PUSH1 0x40 MLOAD PUSH3 0x2AE5 CODESIZE SUB DUP1 PUSH3 0x2AE5 DUP4 CODECOPY DUP2 DUP2 ADD PUSH1 0x40 MSTORE DUP2 ADD SWAP1 PUSH3 0x3C SWAP2 SWAP1 PUSH3 0xB9 JUMP JUMPDEST DUP1 PUSH1 0x0 DUP1 PUSH2 0x100 EXP DUP2 SLOAD DUP2 PUSH20 0xFFFFFFFFFFFFFFFFFFFFFFFFFFFFFFFFFFFFFFFF MUL NOT AND SWAP1 DUP4 PUSH20 0xFFFFFFFFFFFFFFFFFFFFFFFFFFFFFFFFFFFFFFFF AND MUL OR SWAP1 SSTORE POP DUP2 PUSH1 0x2 DUP2 SWAP1 SSTORE POP POP POP PUSH3 0x16C JUMP JUMPDEST PUSH1 0x0 DUP2 MLOAD SWAP1 POP PUSH3 0x9C DUP2 PUSH3 0x138 JUMP JUMPDEST SWAP3 SWAP2 POP POP JUMP JUMPDEST PUSH1 0x0 DUP2 MLOAD SWAP1 POP PUSH3 0xB3 DUP2 PUSH3 0x152 JUMP JUMPDEST SWAP3 SWAP2 POP POP JUMP JUMPDEST PUSH1 0x0 DUP1 PUSH1 0x40 DUP4 DUP6 SUB SLT ISZERO PUSH3 0xCD JUMPI PUSH1 0x0 DUP1 REVERT JUMPDEST PUSH1 0x0 PUSH3 0xDD DUP6 DUP3 DUP7 ADD PUSH3 0xA2 JUMP JUMPDEST SWAP3 POP POP PUSH1 0x20 PUSH3 0xF0 DUP6 DUP3 DUP7 ADD PUSH3 0x8B JUMP JUMPDEST SWAP2 POP POP SWAP3 POP SWAP3 SWAP1 POP JUMP JUMPDEST PUSH1 0x0 PUSH3 0x107 DUP3 PUSH3 0x10E JUMP JUMPDEST SWAP1 POP SWAP2 SWAP1 POP JUMP JUMPDEST PUSH1 0x0 PUSH20 0xFFFFFFFFFFFFFFFFFFFFFFFFFFFFFFFFFFFFFFFF DUP3 AND SWAP1 POP SWAP2 SWAP1 POP JUMP JUMPDEST PUSH1 0x0 DUP2 SWAP1 POP SWAP2 SWAP1 POP JUMP JUMPDEST PUSH3 0x143 DUP2 PUSH3 0xFA JUMP JUMPDEST DUP2 EQ PUSH3 0x14F JUMPI PUSH1 0x0 DUP1 REVERT JUMPDEST POP JUMP JUMPDEST PUSH3 0x15D DUP2 PUSH3 0x12E JUMP JUMPDEST DUP2 EQ PUSH3 0x169 JUMPI PUSH1 0x0 DUP1 REVERT JUMPDEST POP JUMP JUMPDEST PUSH2 0x2969 DUP1 PUSH3 0x17C PUSH1 0x0 CODECOPY PUSH1 0x0 RETURN INVALID PUSH1 0x80 PUSH1 0x40 MSTORE PUSH1 0x4 CALLDATASIZE LT PUSH2 0x12A JUMPI PUSH1 0x0 CALLDATALOAD PUSH1 0xE0 SHR DUP1 PUSH4 0x96D8F4F3 GT PUSH2 0xAB JUMPI DUP1 PUSH4 0xC216C95C GT PUSH2 0x6F JUMPI DUP1 PUSH4 0xC216C95C EQ PUSH2 0x433 JUMPI DUP1 PUSH4 0xC4ED0776 EQ PUSH2 0x45E JUMPI DUP1 PUSH4 0xC7137E5C EQ PUSH2 0x4A0 JUMPI DUP1 PUSH4 0xD2EF23AD EQ PUSH2 0x4C9 JUMPI DUP1 PUSH4 0xE7B668B4 EQ PUSH2 0x4F2 JUMPI DUP1 PUSH4 0xED88C68E EQ PUSH2 0x50E JUMPI PUSH2 0x12A JUMP JUMPDEST DUP1 PUSH4 0x96D8F4F3 EQ PUSH2 0x322 JUMPI DUP1 PUSH4 0x9EEDAF2E EQ PUSH2 0x34D JUMPI DUP1 PUSH4 0xA4F46975 EQ PUSH2 0x376 JUMPI DUP1 PUSH4 0xA746EE2E EQ PUSH2 0x3B8 JUMPI DUP1 PUSH4 0xBE4F6E57 EQ PUSH2 0x3F6 JUMPI PUSH2 0x12A JUMP JUMPDEST DUP1 PUSH4 0x4AD31CD7 GT PUSH2 0xF2 JUMPI DUP1 PUSH4 0x4AD31CD7 EQ PUSH2 0x233 JUMPI DUP1 PUSH4 0x4EEBDC50 EQ PUSH2 0x271 JUMPI DUP1 PUSH4 0x7E537486 EQ PUSH2 0x29A JUMPI DUP1 PUSH4 0x81D12C58 EQ PUSH2 0x2C5 JUMPI DUP1 PUSH4 0x8A9CFD55 EQ PUSH2 0x306 JUMPI PUSH2 0x12A JUMP JUMPDEST DUP1 PUSH4 0x8A87B79 EQ PUSH2 0x12F JUMPI DUP1 PUSH4 0x1D7AE857 EQ PUSH2 0x15A JUMPI DUP1 PUSH4 0x25259983 EQ PUSH2 0x19B JUMPI DUP1 PUSH4 0x4051DDAC EQ PUSH2 0x1C4 JUMPI DUP1 PUSH4 0x41D57616 EQ PUSH2 0x1F2 JUMPI JUMPDEST PUSH1 0x0 DUP1 REVERT JUMPDEST CALLVALUE DUP1 ISZERO PUSH2 0x13B JUMPI PUSH1 0x0 DUP1 REVERT JUMPDEST POP PUSH2 0x144 PUSH2 0x518 JUMP JUMPDEST PUSH1 0x40 MLOAD PUSH2 0x151 SWAP2 SWAP1 PUSH2 0x25D6 JUMP JUMPDEST PUSH1 0x40 MLOAD DUP1 SWAP2 SUB SWAP1 RETURN JUMPDEST CALLVALUE DUP1 ISZERO PUSH2 0x166 JUMPI PUSH1 0x0 DUP1 REVERT JUMPDEST POP PUSH2 0x181 PUSH1 0x4 DUP1 CALLDATASIZE SUB DUP2 ADD SWAP1 PUSH2 0x17C SWAP2 SWAP1 PUSH2 0x206C JUMP JUMPDEST PUSH2 0x51E JUMP JUMPDEST PUSH1 0x40 MLOAD PUSH2 0x192 SWAP6 SWAP5 SWAP4 SWAP3 SWAP2 SWAP1 PUSH2 0x247B JUMP JUMPDEST PUSH1 0x40 MLOAD DUP1 SWAP2 SUB SWAP1 RETURN JUMPDEST CALLVALUE DUP1 ISZERO PUSH2 0x1A7 JUMPI PUSH1 0x0 DUP1 REVERT JUMPDEST POP PUSH2 0x1C2 PUSH1 0x4 DUP1 CALLDATASIZE SUB DUP2 ADD SWAP1 PUSH2 0x1BD SWAP2 SWAP1 PUSH2 0x2095 JUMP JUMPDEST PUSH2 0x7FC JUMP JUMPDEST STOP JUMPDEST CALLVALUE DUP1 ISZERO PUSH2 0x1D0 JUMPI PUSH1 0x0 DUP1 REVERT JUMPDEST POP PUSH2 0x1D9 PUSH2 0x8E9 JUMP JUMPDEST PUSH1 0x40 MLOAD PUSH2 0x1E9 SWAP5 SWAP4 SWAP3 SWAP2 SWAP1 PUSH2 0x25F1 JUMP JUMPDEST PUSH1 0x40 MLOAD DUP1 SWAP2 SUB SWAP1 RETURN JUMPDEST CALLVALUE DUP1 ISZERO PUSH2 0x1FE JUMPI PUSH1 0x0 DUP1 REVERT JUMPDEST POP PUSH2 0x219 PUSH1 0x4 DUP1 CALLDATASIZE SUB DUP2 ADD SWAP1 PUSH2 0x214 SWAP2 SWAP1 PUSH2 0x206C JUMP JUMPDEST PUSH2 0x925 JUMP JUMPDEST PUSH1 0x40 MLOAD PUSH2 0x22A SWAP6 SWAP5 SWAP4 SWAP3 SWAP2 SWAP1 PUSH2 0x247B JUMP JUMPDEST PUSH1 0x40 MLOAD DUP1 SWAP2 SUB SWAP1 RETURN JUMPDEST CALLVALUE DUP1 ISZERO PUSH2 0x23F JUMPI PUSH1 0x0 DUP1 REVERT JUMPDEST POP PUSH2 0x25A PUSH1 0x4 DUP1 CALLDATASIZE SUB DUP2 ADD SWAP1 PUSH2 0x255 SWAP2 SWAP1 PUSH2 0x206C JUMP JUMPDEST PUSH2 0xC82 JUMP JUMPDEST PUSH1 0x40 MLOAD PUSH2 0x268 SWAP3 SWAP2 SWAP1 PUSH2 0x2444 JUMP JUMPDEST PUSH1 0x40 MLOAD DUP1 SWAP2 SUB SWAP1 RETURN JUMPDEST CALLVALUE DUP1 ISZERO PUSH2 0x27D JUMPI PUSH1 0x0 DUP1 REVERT JUMPDEST POP PUSH2 0x298 PUSH1 0x4 DUP1 CALLDATASIZE SUB DUP2 ADD SWAP1 PUSH2 0x293 SWAP2 SWAP1 PUSH2 0x21F0 JUMP JUMPDEST PUSH2 0xDB6 JUMP JUMPDEST STOP JUMPDEST CALLVALUE DUP1 ISZERO PUSH2 0x2A6 JUMPI PUSH1 0x0 DUP1 REVERT JUMPDEST POP PUSH2 0x2AF PUSH2 0xF33 JUMP JUMPDEST PUSH1 0x40 MLOAD PUSH2 0x2BC SWAP2 SWAP1 PUSH2 0x240E JUMP JUMPDEST PUSH1 0x40 MLOAD DUP1 SWAP2 SUB SWAP1 RETURN JUMPDEST CALLVALUE DUP1 ISZERO PUSH2 0x2D1 JUMPI PUSH1 0x0 DUP1 REVERT JUMPDEST POP PUSH2 0x2EC PUSH1 0x4 DUP1 CALLDATASIZE SUB DUP2 ADD SWAP1 PUSH2 0x2E7 SWAP2 SWAP1 PUSH2 0x2370 JUMP JUMPDEST PUSH2 0xF57 JUMP JUMPDEST PUSH1 0x40 MLOAD PUSH2 0x2FD SWAP6 SWAP5 SWAP4 SWAP3 SWAP2 SWAP1 PUSH2 0x257C JUMP JUMPDEST PUSH1 0x40 MLOAD DUP1 SWAP2 SUB SWAP1 RETURN JUMPDEST PUSH2 0x320 PUSH1 0x4 DUP1 CALLDATASIZE SUB DUP2 ADD SWAP1 PUSH2 0x31B SWAP2 SWAP1 PUSH2 0x2309 JUMP JUMPDEST PUSH2 0x1042 JUMP JUMPDEST STOP JUMPDEST CALLVALUE DUP1 ISZERO PUSH2 0x32E JUMPI PUSH1 0x0 DUP1 REVERT JUMPDEST POP PUSH2 0x337 PUSH2 0x115D JUMP JUMPDEST PUSH1 0x40 MLOAD PUSH2 0x344 SWAP2 SWAP1 PUSH2 0x25D6 JUMP JUMPDEST PUSH1 0x40 MLOAD DUP1 SWAP2 SUB SWAP1 RETURN JUMPDEST CALLVALUE DUP1 ISZERO PUSH2 0x359 JUMPI PUSH1 0x0 DUP1 REVERT JUMPDEST POP PUSH2 0x374 PUSH1 0x4 DUP1 CALLDATASIZE SUB DUP2 ADD SWAP1 PUSH2 0x36F SWAP2 SWAP1 PUSH2 0x2370 JUMP JUMPDEST PUSH2 0x1163 JUMP JUMPDEST STOP JUMPDEST CALLVALUE DUP1 ISZERO PUSH2 0x382 JUMPI PUSH1 0x0 DUP1 REVERT JUMPDEST POP PUSH2 0x39D PUSH1 0x4 DUP1 CALLDATASIZE SUB DUP2 ADD SWAP1 PUSH2 0x398 SWAP2 SWAP1 PUSH2 0x206C JUMP JUMPDEST PUSH2 0x12A6 JUMP JUMPDEST PUSH1 0x40 MLOAD PUSH2 0x3AF SWAP7 SWAP6 SWAP5 SWAP4 SWAP3 SWAP2 SWAP1 PUSH2 0x24F1 JUMP JUMPDEST PUSH1 0x40 MLOAD DUP1 SWAP2 SUB SWAP1 RETURN JUMPDEST CALLVALUE DUP1 ISZERO PUSH2 0x3C4 JUMPI PUSH1 0x0 DUP1 REVERT JUMPDEST POP PUSH2 0x3DF PUSH1 0x4 DUP1 CALLDATASIZE SUB DUP2 ADD SWAP1 PUSH2 0x3DA SWAP2 SWAP1 PUSH2 0x206C JUMP JUMPDEST PUSH2 0x169D JUMP JUMPDEST PUSH1 0x40 MLOAD PUSH2 0x3ED SWAP3 SWAP2 SWAP1 PUSH2 0x2444 JUMP JUMPDEST PUSH1 0x40 MLOAD DUP1 SWAP2 SUB SWAP1 RETURN JUMPDEST CALLVALUE DUP1 ISZERO PUSH2 0x402 JUMPI PUSH1 0x0 DUP1 REVERT JUMPDEST POP PUSH2 0x41D PUSH1 0x4 DUP1 CALLDATASIZE SUB DUP2 ADD SWAP1 PUSH2 0x418 SWAP2 SWAP1 PUSH2 0x206C JUMP JUMPDEST PUSH2 0x1826 JUMP JUMPDEST PUSH1 0x40 MLOAD PUSH2 0x42A SWAP2 SWAP1 PUSH2 0x2429 JUMP JUMPDEST PUSH1 0x40 MLOAD DUP1 SWAP2 SUB SWAP1 RETURN JUMPDEST CALLVALUE DUP1 ISZERO PUSH2 0x43F JUMPI PUSH1 0x0 DUP1 REVERT JUMPDEST POP PUSH2 0x448 PUSH2 0x1846 JUMP JUMPDEST PUSH1 0x40 MLOAD PUSH2 0x455 SWAP2 SWAP1 PUSH2 0x25D6 JUMP JUMPDEST PUSH1 0x40 MLOAD DUP1 SWAP2 SUB SWAP1 RETURN JUMPDEST CALLVALUE DUP1 ISZERO PUSH2 0x46A JUMPI PUSH1 0x0 DUP1 REVERT JUMPDEST POP PUSH2 0x485 PUSH1 0x4 DUP1 CALLDATASIZE SUB DUP2 ADD SWAP1 PUSH2 0x480 SWAP2 SWAP1 PUSH2 0x206C JUMP JUMPDEST PUSH2 0x184C JUMP JUMPDEST PUSH1 0x40 MLOAD PUSH2 0x497 SWAP7 SWAP6 SWAP5 SWAP4 SWAP3 SWAP2 SWAP1 PUSH2 0x24F1 JUMP JUMPDEST PUSH1 0x40 MLOAD DUP1 SWAP2 SUB SWAP1 RETURN JUMPDEST CALLVALUE DUP1 ISZERO PUSH2 0x4AC JUMPI PUSH1 0x0 DUP1 REVERT JUMPDEST POP PUSH2 0x4C7 PUSH1 0x4 DUP1 CALLDATASIZE SUB DUP2 ADD SWAP1 PUSH2 0x4C2 SWAP2 SWAP1 PUSH2 0x2101 JUMP JUMPDEST PUSH2 0x1BB8 JUMP JUMPDEST STOP JUMPDEST CALLVALUE DUP1 ISZERO PUSH2 0x4D5 JUMPI PUSH1 0x0 DUP1 REVERT JUMPDEST POP PUSH2 0x4F0 PUSH1 0x4 DUP1 CALLDATASIZE SUB DUP2 ADD SWAP1 PUSH2 0x4EB SWAP2 SWAP1 PUSH2 0x2370 JUMP JUMPDEST PUSH2 0x1D11 JUMP JUMPDEST STOP JUMPDEST PUSH2 0x50C PUSH1 0x4 DUP1 CALLDATASIZE SUB DUP2 ADD SWAP1 PUSH2 0x507 SWAP2 SWAP1 PUSH2 0x2370 JUMP JUMPDEST PUSH2 0x1D1B JUMP JUMPDEST STOP JUMPDEST PUSH2 0x516 PUSH2 0x1E50 JUMP JUMPDEST STOP JUMPDEST PUSH1 0x3 SLOAD DUP2 JUMP JUMPDEST PUSH1 0x6 PUSH1 0x20 MSTORE DUP1 PUSH1 0x0 MSTORE PUSH1 0x40 PUSH1 0x0 KECCAK256 PUSH1 0x0 SWAP2 POP SWAP1 POP DUP1 PUSH1 0x0 ADD DUP1 SLOAD PUSH2 0x541 SWAP1 PUSH2 0x2775 JUMP JUMPDEST DUP1 PUSH1 0x1F ADD PUSH1 0x20 DUP1 SWAP2 DIV MUL PUSH1 0x20 ADD PUSH1 0x40 MLOAD SWAP1 DUP2 ADD PUSH1 0x40 MSTORE DUP1 SWAP3 SWAP2 SWAP1 DUP2 DUP2 MSTORE PUSH1 0x20 ADD DUP3 DUP1 SLOAD PUSH2 0x56D SWAP1 PUSH2 0x2775 JUMP JUMPDEST DUP1 ISZERO PUSH2 0x5BA JUMPI DUP1 PUSH1 0x1F LT PUSH2 0x58F JUMPI PUSH2 0x100 DUP1 DUP4 SLOAD DIV MUL DUP4 MSTORE SWAP2 PUSH1 0x20 ADD SWAP2 PUSH2 0x5BA JUMP JUMPDEST DUP3 ADD SWAP2 SWAP1 PUSH1 0x0 MSTORE PUSH1 0x20 PUSH1 0x0 KECCAK256 SWAP1 JUMPDEST DUP2 SLOAD DUP2 MSTORE SWAP1 PUSH1 0x1 ADD SWAP1 PUSH1 0x20 ADD DUP1 DUP4 GT PUSH2 0x59D JUMPI DUP3 SWAP1 SUB PUSH1 0x1F AND DUP3 ADD SWAP2 JUMPDEST POP POP POP POP POP SWAP1 DUP1 PUSH1 0x1 ADD DUP1 SLOAD PUSH2 0x5CF SWAP1 PUSH2 0x2775 JUMP JUMPDEST DUP1 PUSH1 0x1F ADD PUSH1 0x20 DUP1 SWAP2 DIV MUL PUSH1 0x20 ADD PUSH1 0x40 MLOAD SWAP1 DUP2 ADD PUSH1 0x40 MSTORE DUP1 SWAP3 SWAP2 SWAP1 DUP2 DUP2 MSTORE PUSH1 0x20 ADD DUP3 DUP1 SLOAD PUSH2 0x5FB SWAP1 PUSH2 0x2775 JUMP JUMPDEST DUP1 ISZERO PUSH2 0x648 JUMPI DUP1 PUSH1 0x1F LT PUSH2 0x61D JUMPI PUSH2 0x100 DUP1 DUP4 SLOAD DIV MUL DUP4 MSTORE SWAP2 PUSH1 0x20 ADD SWAP2 PUSH2 0x648 JUMP JUMPDEST DUP3 ADD SWAP2 SWAP1 PUSH1 0x0 MSTORE PUSH1 0x20 PUSH1 0x0 KECCAK256 SWAP1 JUMPDEST DUP2 SLOAD DUP2 MSTORE SWAP1 PUSH1 0x1 ADD SWAP1 PUSH1 0x20 ADD DUP1 DUP4 GT PUSH2 0x62B JUMPI DUP3 SWAP1 SUB PUSH1 0x1F AND DUP3 ADD SWAP2 JUMPDEST POP POP POP POP POP SWAP1 DUP1 PUSH1 0x2 ADD DUP1 SLOAD PUSH2 0x65D SWAP1 PUSH2 0x2775 JUMP JUMPDEST DUP1 PUSH1 0x1F ADD PUSH1 0x20 DUP1 SWAP2 DIV MUL PUSH1 0x20 ADD PUSH1 0x40 MLOAD SWAP1 DUP2 ADD PUSH1 0x40 MSTORE DUP1 SWAP3 SWAP2 SWAP1 DUP2 DUP2 MSTORE PUSH1 0x20 ADD DUP3 DUP1 SLOAD PUSH2 0x689 SWAP1 PUSH2 0x2775 JUMP JUMPDEST DUP1 ISZERO PUSH2 0x6D6 JUMPI DUP1 PUSH1 0x1F LT PUSH2 0x6AB JUMPI PUSH2 0x100 DUP1 DUP4 SLOAD DIV MUL DUP4 MSTORE SWAP2 PUSH1 0x20 ADD SWAP2 PUSH2 0x6D6 JUMP JUMPDEST DUP3 ADD SWAP2 SWAP1 PUSH1 0x0 MSTORE PUSH1 0x20 PUSH1 0x0 KECCAK256 SWAP1 JUMPDEST DUP2 SLOAD DUP2 MSTORE SWAP1 PUSH1 0x1 ADD SWAP1 PUSH1 0x20 ADD DUP1 DUP4 GT PUSH2 0x6B9 JUMPI DUP3 SWAP1 SUB PUSH1 0x1F AND DUP3 ADD SWAP2 JUMPDEST POP POP POP POP POP SWAP1 DUP1 PUSH1 0x3 ADD DUP1 SLOAD PUSH2 0x6EB SWAP1 PUSH2 0x2775 JUMP JUMPDEST DUP1 PUSH1 0x1F ADD PUSH1 0x20 DUP1 SWAP2 DIV MUL PUSH1 0x20 ADD PUSH1 0x40 MLOAD SWAP1 DUP2 ADD PUSH1 0x40 MSTORE DUP1 SWAP3 SWAP2 SWAP1 DUP2 DUP2 MSTORE PUSH1 0x20 ADD DUP3 DUP1 SLOAD PUSH2 0x717 SWAP1 PUSH2 0x2775 JUMP JUMPDEST DUP1 ISZERO PUSH2 0x764 JUMPI DUP1 PUSH1 0x1F LT PUSH2 0x739 JUMPI PUSH2 0x100 DUP1 DUP4 SLOAD DIV MUL DUP4 MSTORE SWAP2 PUSH1 0x20 ADD SWAP2 PUSH2 0x764 JUMP JUMPDEST DUP3 ADD SWAP2 SWAP1 PUSH1 0x0 MSTORE PUSH1 0x20 PUSH1 0x0 KECCAK256 SWAP1 JUMPDEST DUP2 SLOAD DUP2 MSTORE SWAP1 PUSH1 0x1 ADD SWAP1 PUSH1 0x20 ADD DUP1 DUP4 GT PUSH2 0x747 JUMPI DUP3 SWAP1 SUB PUSH1 0x1F AND DUP3 ADD SWAP2 JUMPDEST POP POP POP POP POP SWAP1 DUP1 PUSH1 0x4 ADD DUP1 SLOAD PUSH2 0x779 SWAP1 PUSH2 0x2775 JUMP JUMPDEST DUP1 PUSH1 0x1F ADD PUSH1 0x20 DUP1 SWAP2 DIV MUL PUSH1 0x20 ADD PUSH1 0x40 MLOAD SWAP1 DUP2 ADD PUSH1 0x40 MSTORE DUP1 SWAP3 SWAP2 SWAP1 DUP2 DUP2 MSTORE PUSH1 0x20 ADD DUP3 DUP1 SLOAD PUSH2 0x7A5 SWAP1 PUSH2 0x2775 JUMP JUMPDEST DUP1 ISZERO PUSH2 0x7F2 JUMPI DUP1 PUSH1 0x1F LT PUSH2 0x7C7 JUMPI PUSH2 0x100 DUP1 DUP4 SLOAD DIV MUL DUP4 MSTORE SWAP2 PUSH1 0x20 ADD SWAP2 PUSH2 0x7F2 JUMP JUMPDEST DUP3 ADD SWAP2 SWAP1 PUSH1 0x0 MSTORE PUSH1 0x20 PUSH1 0x0 KECCAK256 SWAP1 JUMPDEST DUP2 SLOAD DUP2 MSTORE SWAP1 PUSH1 0x1 ADD SWAP1 PUSH1 0x20 ADD DUP1 DUP4 GT PUSH2 0x7D5 JUMPI DUP3 SWAP1 SUB PUSH1 0x1F AND DUP3 ADD SWAP2 JUMPDEST POP POP POP POP POP SWAP1 POP DUP6 JUMP JUMPDEST PUSH1 0x0 DUP1 SLOAD SWAP1 PUSH2 0x100 EXP SWAP1 DIV PUSH20 0xFFFFFFFFFFFFFFFFFFFFFFFFFFFFFFFFFFFFFFFF AND PUSH20 0xFFFFFFFFFFFFFFFFFFFFFFFFFFFFFFFFFFFFFFFF AND CALLER PUSH20 0xFFFFFFFFFFFFFFFFFFFFFFFFFFFFFFFFFFFFFFFF AND EQ PUSH2 0x854 JUMPI PUSH1 0x0 DUP1 REVERT JUMPDEST PUSH1 0x40 MLOAD DUP1 PUSH1 0x40 ADD PUSH1 0x40 MSTORE DUP1 DUP4 DUP2 MSTORE PUSH1 0x20 ADD DUP3 DUP2 MSTORE POP PUSH1 0x7 PUSH1 0x0 CALLER PUSH20 0xFFFFFFFFFFFFFFFFFFFFFFFFFFFFFFFFFFFFFFFF AND PUSH20 0xFFFFFFFFFFFFFFFFFFFFFFFFFFFFFFFFFFFFFFFF AND DUP2 MSTORE PUSH1 0x20 ADD SWAP1 DUP2 MSTORE PUSH1 0x20 ADD PUSH1 0x0 KECCAK256 PUSH1 0x0 DUP3 ADD MLOAD DUP2 PUSH1 0x0 ADD SWAP1 DUP1 MLOAD SWAP1 PUSH1 0x20 ADD SWAP1 PUSH2 0x8C4 SWAP3 SWAP2 SWAP1 PUSH2 0x1F22 JUMP JUMPDEST POP PUSH1 0x20 DUP3 ADD MLOAD DUP2 PUSH1 0x1 ADD SWAP1 DUP1 MLOAD SWAP1 PUSH1 0x20 ADD SWAP1 PUSH2 0x8E1 SWAP3 SWAP2 SWAP1 PUSH2 0x1F22 JUMP JUMPDEST POP SWAP1 POP POP POP POP JUMP JUMPDEST PUSH1 0x0 DUP1 PUSH1 0x0 DUP1 PUSH1 0x2 SLOAD SELFBALANCE PUSH1 0x4 SLOAD PUSH1 0x0 DUP1 SLOAD SWAP1 PUSH2 0x100 EXP SWAP1 DIV PUSH20 0xFFFFFFFFFFFFFFFFFFFFFFFFFFFFFFFFFFFFFFFF AND SWAP4 POP SWAP4 POP SWAP4 POP SWAP4 POP SWAP1 SWAP2 SWAP3 SWAP4 JUMP JUMPDEST PUSH1 0x60 DUP1 PUSH1 0x60 DUP1 PUSH1 0x60 PUSH1 0x0 PUSH1 0x6 PUSH1 0x0 DUP9 PUSH20 0xFFFFFFFFFFFFFFFFFFFFFFFFFFFFFFFFFFFFFFFF AND PUSH20 0xFFFFFFFFFFFFFFFFFFFFFFFFFFFFFFFFFFFFFFFF AND DUP2 MSTORE PUSH1 0x20 ADD SWAP1 DUP2 MSTORE PUSH1 0x20 ADD PUSH1 0x0 KECCAK256 PUSH1 0x40 MLOAD DUP1 PUSH1 0xA0 ADD PUSH1 0x40 MSTORE SWAP1 DUP2 PUSH1 0x0 DUP3 ADD DUP1 SLOAD PUSH2 0x989 SWAP1 PUSH2 0x2775 JUMP JUMPDEST DUP1 PUSH1 0x1F ADD PUSH1 0x20 DUP1 SWAP2 DIV MUL PUSH1 0x20 ADD PUSH1 0x40 MLOAD SWAP1 DUP2 ADD PUSH1 0x40 MSTORE DUP1 SWAP3 SWAP2 SWAP1 DUP2 DUP2 MSTORE PUSH1 0x20 ADD DUP3 DUP1 SLOAD PUSH2 0x9B5 SWAP1 PUSH2 0x2775 JUMP JUMPDEST DUP1 ISZERO PUSH2 0xA02 JUMPI DUP1 PUSH1 0x1F LT PUSH2 0x9D7 JUMPI PUSH2 0x100 DUP1 DUP4 SLOAD DIV MUL DUP4 MSTORE SWAP2 PUSH1 0x20 ADD SWAP2 PUSH2 0xA02 JUMP JUMPDEST DUP3 ADD SWAP2 SWAP1 PUSH1 0x0 MSTORE PUSH1 0x20 PUSH1 0x0 KECCAK256 SWAP1 JUMPDEST DUP2 SLOAD DUP2 MSTORE SWAP1 PUSH1 0x1 ADD SWAP1 PUSH1 0x20 ADD DUP1 DUP4 GT PUSH2 0x9E5 JUMPI DUP3 SWAP1 SUB PUSH1 0x1F AND DUP3 ADD SWAP2 JUMPDEST POP POP POP POP POP DUP2 MSTORE PUSH1 0x20 ADD PUSH1 0x1 DUP3 ADD DUP1 SLOAD PUSH2 0xA1B SWAP1 PUSH2 0x2775 JUMP JUMPDEST DUP1 PUSH1 0x1F ADD PUSH1 0x20 DUP1 SWAP2 DIV MUL PUSH1 0x20 ADD PUSH1 0x40 MLOAD SWAP1 DUP2 ADD PUSH1 0x40 MSTORE DUP1 SWAP3 SWAP2 SWAP1 DUP2 DUP2 MSTORE PUSH1 0x20 ADD DUP3 DUP1 SLOAD PUSH2 0xA47 SWAP1 PUSH2 0x2775 JUMP JUMPDEST DUP1 ISZERO PUSH2 0xA94 JUMPI DUP1 PUSH1 0x1F LT PUSH2 0xA69 JUMPI PUSH2 0x100 DUP1 DUP4 SLOAD DIV MUL DUP4 MSTORE SWAP2 PUSH1 0x20 ADD SWAP2 PUSH2 0xA94 JUMP JUMPDEST DUP3 ADD SWAP2 SWAP1 PUSH1 0x0 MSTORE PUSH1 0x20 PUSH1 0x0 KECCAK256 SWAP1 JUMPDEST DUP2 SLOAD DUP2 MSTORE SWAP1 PUSH1 0x1 ADD SWAP1 PUSH1 0x20 ADD DUP1 DUP4 GT PUSH2 0xA77 JUMPI DUP3 SWAP1 SUB PUSH1 0x1F AND DUP3 ADD SWAP2 JUMPDEST POP POP POP POP POP DUP2 MSTORE PUSH1 0x20 ADD PUSH1 0x2 DUP3 ADD DUP1 SLOAD PUSH2 0xAAD SWAP1 PUSH2 0x2775 JUMP JUMPDEST DUP1 PUSH1 0x1F ADD PUSH1 0x20 DUP1 SWAP2 DIV MUL PUSH1 0x20 ADD PUSH1 0x40 MLOAD SWAP1 DUP2 ADD PUSH1 0x40 MSTORE DUP1 SWAP3 SWAP2 SWAP1 DUP2 DUP2 MSTORE PUSH1 0x20 ADD DUP3 DUP1 SLOAD PUSH2 0xAD9 SWAP1 PUSH2 0x2775 JUMP JUMPDEST DUP1 ISZERO PUSH2 0xB26 JUMPI DUP1 PUSH1 0x1F LT PUSH2 0xAFB JUMPI PUSH2 0x100 DUP1 DUP4 SLOAD DIV MUL DUP4 MSTORE SWAP2 PUSH1 0x20 ADD SWAP2 PUSH2 0xB26 JUMP JUMPDEST DUP3 ADD SWAP2 SWAP1 PUSH1 0x0 MSTORE PUSH1 0x20 PUSH1 0x0 KECCAK256 SWAP1 JUMPDEST DUP2 SLOAD DUP2 MSTORE SWAP1 PUSH1 0x1 ADD SWAP1 PUSH1 0x20 ADD DUP1 DUP4 GT PUSH2 0xB09 JUMPI DUP3 SWAP1 SUB PUSH1 0x1F AND DUP3 ADD SWAP2 JUMPDEST POP POP POP POP POP DUP2 MSTORE PUSH1 0x20 ADD PUSH1 0x3 DUP3 ADD DUP1 SLOAD PUSH2 0xB3F SWAP1 PUSH2 0x2775 JUMP JUMPDEST DUP1 PUSH1 0x1F ADD PUSH1 0x20 DUP1 SWAP2 DIV MUL PUSH1 0x20 ADD PUSH1 0x40 MLOAD SWAP1 DUP2 ADD PUSH1 0x40 MSTORE DUP1 SWAP3 SWAP2 SWAP1 DUP2 DUP2 MSTORE PUSH1 0x20 ADD DUP3 DUP1 SLOAD PUSH2 0xB6B SWAP1 PUSH2 0x2775 JUMP JUMPDEST DUP1 ISZERO PUSH2 0xBB8 JUMPI DUP1 PUSH1 0x1F LT PUSH2 0xB8D JUMPI PUSH2 0x100 DUP1 DUP4 SLOAD DIV MUL DUP4 MSTORE SWAP2 PUSH1 0x20 ADD SWAP2 PUSH2 0xBB8 JUMP JUMPDEST DUP3 ADD SWAP2 SWAP1 PUSH1 0x0 MSTORE PUSH1 0x20 PUSH1 0x0 KECCAK256 SWAP1 JUMPDEST DUP2 SLOAD DUP2 MSTORE SWAP1 PUSH1 0x1 ADD SWAP1 PUSH1 0x20 ADD DUP1 DUP4 GT PUSH2 0xB9B JUMPI DUP3 SWAP1 SUB PUSH1 0x1F AND DUP3 ADD SWAP2 JUMPDEST POP POP POP POP POP DUP2 MSTORE PUSH1 0x20 ADD PUSH1 0x4 DUP3 ADD DUP1 SLOAD PUSH2 0xBD1 SWAP1 PUSH2 0x2775 JUMP JUMPDEST DUP1 PUSH1 0x1F ADD PUSH1 0x20 DUP1 SWAP2 DIV MUL PUSH1 0x20 ADD PUSH1 0x40 MLOAD SWAP1 DUP2 ADD PUSH1 0x40 MSTORE DUP1 SWAP3 SWAP2 SWAP1 DUP2 DUP2 MSTORE PUSH1 0x20 ADD DUP3 DUP1 SLOAD PUSH2 0xBFD SWAP1 PUSH2 0x2775 JUMP JUMPDEST DUP1 ISZERO PUSH2 0xC4A JUMPI DUP1 PUSH1 0x1F LT PUSH2 0xC1F JUMPI PUSH2 0x100 DUP1 DUP4 SLOAD DIV MUL DUP4 MSTORE SWAP2 PUSH1 0x20 ADD SWAP2 PUSH2 0xC4A JUMP JUMPDEST DUP3 ADD SWAP2 SWAP1 PUSH1 0x0 MSTORE PUSH1 0x20 PUSH1 0x0 KECCAK256 SWAP1 JUMPDEST DUP2 SLOAD DUP2 MSTORE SWAP1 PUSH1 0x1 ADD SWAP1 PUSH1 0x20 ADD DUP1 DUP4 GT PUSH2 0xC2D JUMPI DUP3 SWAP1 SUB PUSH1 0x1F AND DUP3 ADD SWAP2 JUMPDEST POP POP POP POP POP DUP2 MSTORE POP POP SWAP1 POP DUP1 PUSH1 0x0 ADD MLOAD DUP2 PUSH1 0x20 ADD MLOAD DUP3 PUSH1 0x40 ADD MLOAD DUP4 PUSH1 0x60 ADD MLOAD DUP5 PUSH1 0x80 ADD MLOAD SWAP6 POP SWAP6 POP SWAP6 POP SWAP6 POP SWAP6 POP POP SWAP2 SWAP4 SWAP6 SWAP1 SWAP3 SWAP5 POP JUMP JUMPDEST PUSH1 0x7 PUSH1 0x20 MSTORE DUP1 PUSH1 0x0 MSTORE PUSH1 0x40 PUSH1 0x0 KECCAK256 PUSH1 0x0 SWAP2 POP SWAP1 POP DUP1 PUSH1 0x0 ADD DUP1 SLOAD PUSH2 0xCA5 SWAP1 PUSH2 0x2775 JUMP JUMPDEST DUP1 PUSH1 0x1F ADD PUSH1 0x20 DUP1 SWAP2 DIV MUL PUSH1 0x20 ADD PUSH1 0x40 MLOAD SWAP1 DUP2 ADD PUSH1 0x40 MSTORE DUP1 SWAP3 SWAP2 SWAP1 DUP2 DUP2 MSTORE PUSH1 0x20 ADD DUP3 DUP1 SLOAD PUSH2 0xCD1 SWAP1 PUSH2 0x2775 JUMP JUMPDEST DUP1 ISZERO PUSH2 0xD1E JUMPI DUP1 PUSH1 0x1F LT PUSH2 0xCF3 JUMPI PUSH2 0x100 DUP1 DUP4 SLOAD DIV MUL DUP4 MSTORE SWAP2 PUSH1 0x20 ADD SWAP2 PUSH2 0xD1E JUMP JUMPDEST DUP3 ADD SWAP2 SWAP1 PUSH1 0x0 MSTORE PUSH1 0x20 PUSH1 0x0 KECCAK256 SWAP1 JUMPDEST DUP2 SLOAD DUP2 MSTORE SWAP1 PUSH1 0x1 ADD SWAP1 PUSH1 0x20 ADD DUP1 DUP4 GT PUSH2 0xD01 JUMPI DUP3 SWAP1 SUB PUSH1 0x1F AND DUP3 ADD SWAP2 JUMPDEST POP POP POP POP POP SWAP1 DUP1 PUSH1 0x1 ADD DUP1 SLOAD PUSH2 0xD33 SWAP1 PUSH2 0x2775 JUMP JUMPDEST DUP1 PUSH1 0x1F ADD PUSH1 0x20 DUP1 SWAP2 DIV MUL PUSH1 0x20 ADD PUSH1 0x40 MLOAD SWAP1 DUP2 ADD PUSH1 0x40 MSTORE DUP1 SWAP3 SWAP2 SWAP1 DUP2 DUP2 MSTORE PUSH1 0x20 ADD DUP3 DUP1 SLOAD PUSH2 0xD5F SWAP1 PUSH2 0x2775 JUMP JUMPDEST DUP1 ISZERO PUSH2 0xDAC JUMPI DUP1 PUSH1 0x1F LT PUSH2 0xD81 JUMPI PUSH2 0x100 DUP1 DUP4 SLOAD DIV MUL DUP4 MSTORE SWAP2 PUSH1 0x20 ADD SWAP2 PUSH2 0xDAC JUMP JUMPDEST DUP3 ADD SWAP2 SWAP1 PUSH1 0x0 MSTORE PUSH1 0x20 PUSH1 0x0 KECCAK256 SWAP1 JUMPDEST DUP2 SLOAD DUP2 MSTORE SWAP1 PUSH1 0x1 ADD SWAP1 PUSH1 0x20 ADD DUP1 DUP4 GT PUSH2 0xD8F JUMPI DUP3 SWAP1 SUB PUSH1 0x1F AND DUP3 ADD SWAP2 JUMPDEST POP POP POP POP POP SWAP1 POP DUP3 JUMP JUMPDEST PUSH1 0x0 DUP1 SLOAD SWAP1 PUSH2 0x100 EXP SWAP1 DIV PUSH20 0xFFFFFFFFFFFFFFFFFFFFFFFFFFFFFFFFFFFFFFFF AND PUSH20 0xFFFFFFFFFFFFFFFFFFFFFFFFFFFFFFFFFFFFFFFF AND CALLER PUSH20 0xFFFFFFFFFFFFFFFFFFFFFFFFFFFFFFFFFFFFFFFF AND EQ PUSH2 0xE0E JUMPI PUSH1 0x0 DUP1 REVERT JUMPDEST PUSH1 0x40 MLOAD DUP1 PUSH1 0xC0 ADD PUSH1 0x40 MSTORE DUP1 DUP8 DUP2 MSTORE PUSH1 0x20 ADD DUP7 DUP2 MSTORE PUSH1 0x20 ADD DUP6 DUP2 MSTORE PUSH1 0x20 ADD DUP5 DUP2 MSTORE PUSH1 0x20 ADD DUP4 DUP2 MSTORE PUSH1 0x20 ADD DUP3 DUP2 MSTORE POP PUSH1 0x5 PUSH1 0x0 CALLER PUSH20 0xFFFFFFFFFFFFFFFFFFFFFFFFFFFFFFFFFFFFFFFF AND PUSH20 0xFFFFFFFFFFFFFFFFFFFFFFFFFFFFFFFFFFFFFFFF AND DUP2 MSTORE PUSH1 0x20 ADD SWAP1 DUP2 MSTORE PUSH1 0x20 ADD PUSH1 0x0 KECCAK256 PUSH1 0x0 DUP3 ADD MLOAD DUP2 PUSH1 0x0 ADD SWAP1 DUP1 MLOAD SWAP1 PUSH1 0x20 ADD SWAP1 PUSH2 0xE96 SWAP3 SWAP2 SWAP1 PUSH2 0x1F22 JUMP JUMPDEST POP PUSH1 0x20 DUP3 ADD MLOAD DUP2 PUSH1 0x1 ADD SWAP1 DUP1 MLOAD SWAP1 PUSH1 0x20 ADD SWAP1 PUSH2 0xEB3 SWAP3 SWAP2 SWAP1 PUSH2 0x1F22 JUMP JUMPDEST POP PUSH1 0x40 DUP3 ADD MLOAD DUP2 PUSH1 0x2 ADD SWAP1 DUP1 MLOAD SWAP1 PUSH1 0x20 ADD SWAP1 PUSH2 0xED0 SWAP3 SWAP2 SWAP1 PUSH2 0x1F22 JUMP JUMPDEST POP PUSH1 0x60 DUP3 ADD MLOAD DUP2 PUSH1 0x3 ADD SWAP1 DUP1 MLOAD SWAP1 PUSH1 0x20 ADD SWAP1 PUSH2 0xEED SWAP3 SWAP2 SWAP1 PUSH2 0x1F22 JUMP JUMPDEST POP PUSH1 0x80 DUP3 ADD MLOAD DUP2 PUSH1 0x4 ADD SWAP1 DUP1 MLOAD SWAP1 PUSH1 0x20 ADD SWAP1 PUSH2 0xF0A SWAP3 SWAP2 SWAP1 PUSH2 0x1F22 JUMP JUMPDEST POP PUSH1 0xA0 DUP3 ADD MLOAD DUP2 PUSH1 0x5 ADD SWAP1 DUP1 MLOAD SWAP1 PUSH1 0x20 ADD SWAP1 PUSH2 0xF27 SWAP3 SWAP2 SWAP1 PUSH2 0x1F22 JUMP JUMPDEST POP SWAP1 POP POP POP POP POP POP POP POP JUMP JUMPDEST PUSH1 0x0 DUP1 SLOAD SWAP1 PUSH2 0x100 EXP SWAP1 DIV PUSH20 0xFFFFFFFFFFFFFFFFFFFFFFFFFFFFFFFFFFFFFFFF AND DUP2 JUMP JUMPDEST PUSH1 0x8 PUSH1 0x20 MSTORE DUP1 PUSH1 0x0 MSTORE PUSH1 0x40 PUSH1 0x0 KECCAK256 PUSH1 0x0 SWAP2 POP SWAP1 POP DUP1 PUSH1 0x0 ADD DUP1 SLOAD PUSH2 0xF7A SWAP1 PUSH2 0x2775 JUMP JUMPDEST DUP1 PUSH1 0x1F ADD PUSH1 0x20 DUP1 SWAP2 DIV MUL PUSH1 0x20 ADD PUSH1 0x40 MLOAD SWAP1 DUP2 ADD PUSH1 0x40 MSTORE DUP1 SWAP3 SWAP2 SWAP1 DUP2 DUP2 MSTORE PUSH1 0x20 ADD DUP3 DUP1 SLOAD PUSH2 0xFA6 SWAP1 PUSH2 0x2775 JUMP JUMPDEST DUP1 ISZERO PUSH2 0xFF3 JUMPI DUP1 PUSH1 0x1F LT PUSH2 0xFC8 JUMPI PUSH2 0x100 DUP1 DUP4 SLOAD DIV MUL DUP4 MSTORE SWAP2 PUSH1 0x20 ADD SWAP2 PUSH2 0xFF3 JUMP JUMPDEST DUP3 ADD SWAP2 SWAP1 PUSH1 0x0 MSTORE PUSH1 0x20 PUSH1 0x0 KECCAK256 SWAP1 JUMPDEST DUP2 SLOAD DUP2 MSTORE SWAP1 PUSH1 0x1 ADD SWAP1 PUSH1 0x20 ADD DUP1 DUP4 GT PUSH2 0xFD6 JUMPI DUP3 SWAP1 SUB PUSH1 0x1F AND DUP3 ADD SWAP2 JUMPDEST POP POP POP POP POP SWAP1 DUP1 PUSH1 0x1 ADD SLOAD SWAP1 DUP1 PUSH1 0x2 ADD PUSH1 0x0 SWAP1 SLOAD SWAP1 PUSH2 0x100 EXP SWAP1 DIV PUSH20 0xFFFFFFFFFFFFFFFFFFFFFFFFFFFFFFFFFFFFFFFF AND SWAP1 DUP1 PUSH1 0x2 ADD PUSH1 0x14 SWAP1 SLOAD SWAP1 PUSH2 0x100 EXP SWAP1 DIV PUSH1 0xFF AND SWAP1 DUP1 PUSH1 0x3 ADD SLOAD SWAP1 POP DUP6 JUMP JUMPDEST PUSH1 0x0 DUP1 SLOAD SWAP1 PUSH2 0x100 EXP SWAP1 DIV PUSH20 0xFFFFFFFFFFFFFFFFFFFFFFFFFFFFFFFFFFFFFFFF AND PUSH20 0xFFFFFFFFFFFFFFFFFFFFFFFFFFFFFFFFFFFFFFFF AND CALLER PUSH20 0xFFFFFFFFFFFFFFFFFFFFFFFFFFFFFFFFFFFFFFFF AND EQ PUSH2 0x109A JUMPI PUSH1 0x0 DUP1 REVERT JUMPDEST PUSH1 0x0 PUSH1 0x8 PUSH1 0x0 PUSH1 0x9 SLOAD DUP2 MSTORE PUSH1 0x20 ADD SWAP1 DUP2 MSTORE PUSH1 0x20 ADD PUSH1 0x0 KECCAK256 SWAP1 POP DUP4 DUP2 PUSH1 0x0 ADD SWAP1 DUP1 MLOAD SWAP1 PUSH1 0x20 ADD SWAP1 PUSH2 0x10CB SWAP3 SWAP2 SWAP1 PUSH2 0x1F22 JUMP JUMPDEST POP DUP3 DUP2 PUSH1 0x1 ADD DUP2 SWAP1 SSTORE POP DUP2 DUP2 PUSH1 0x2 ADD PUSH1 0x0 PUSH2 0x100 EXP DUP2 SLOAD DUP2 PUSH20 0xFFFFFFFFFFFFFFFFFFFFFFFFFFFFFFFFFFFFFFFF MUL NOT AND SWAP1 DUP4 PUSH20 0xFFFFFFFFFFFFFFFFFFFFFFFFFFFFFFFFFFFFFFFF AND MUL OR SWAP1 SSTORE POP PUSH1 0x0 DUP2 PUSH1 0x2 ADD PUSH1 0x14 PUSH2 0x100 EXP DUP2 SLOAD DUP2 PUSH1 0xFF MUL NOT AND SWAP1 DUP4 ISZERO ISZERO MUL OR SWAP1 SSTORE POP PUSH1 0x0 DUP2 PUSH1 0x3 ADD DUP2 SWAP1 SSTORE POP PUSH1 0x9 PUSH1 0x0 DUP2 SLOAD DUP1 SWAP3 SWAP2 SWAP1 PUSH2 0x1152 SWAP1 PUSH2 0x27D8 JUMP JUMPDEST SWAP2 SWAP1 POP SSTORE POP POP POP POP POP JUMP JUMPDEST PUSH1 0x2 SLOAD DUP2 JUMP JUMPDEST PUSH1 0x0 PUSH1 0x8 PUSH1 0x0 DUP4 DUP2 MSTORE PUSH1 0x20 ADD SWAP1 DUP2 MSTORE PUSH1 0x20 ADD PUSH1 0x0 KECCAK256 SWAP1 POP PUSH1 0x1 PUSH1 0x0 CALLER PUSH20 0xFFFFFFFFFFFFFFFFFFFFFFFFFFFFFFFFFFFFFFFF AND PUSH20 0xFFFFFFFFFFFFFFFFFFFFFFFFFFFFFFFFFFFFFFFF AND DUP2 MSTORE PUSH1 0x20 ADD SWAP1 DUP2 MSTORE PUSH1 0x20 ADD PUSH1 0x0 KECCAK256 PUSH1 0x0 SWAP1 SLOAD SWAP1 PUSH2 0x100 EXP SWAP1 DIV PUSH1 0xFF AND PUSH2 0x11D0 JUMPI PUSH1 0x0 DUP1 REVERT JUMPDEST PUSH1 0x8 PUSH1 0x0 DUP4 DUP2 MSTORE PUSH1 0x20 ADD SWAP1 DUP2 MSTORE PUSH1 0x20 ADD PUSH1 0x0 KECCAK256 PUSH1 0x4 ADD PUSH1 0x0 CALLER PUSH20 0xFFFFFFFFFFFFFFFFFFFFFFFFFFFFFFFFFFFFFFFF AND PUSH20 0xFFFFFFFFFFFFFFFFFFFFFFFFFFFFFFFFFFFFFFFF AND DUP2 MSTORE PUSH1 0x20 ADD SWAP1 DUP2 MSTORE PUSH1 0x20 ADD PUSH1 0x0 KECCAK256 PUSH1 0x0 SWAP1 SLOAD SWAP1 PUSH2 0x100 EXP SWAP1 DIV PUSH1 0xFF AND ISZERO PUSH2 0x123B JUMPI PUSH1 0x0 DUP1 REVERT JUMPDEST DUP1 PUSH1 0x4 ADD PUSH1 0x0 CALLER PUSH20 0xFFFFFFFFFFFFFFFFFFFFFFFFFFFFFFFFFFFFFFFF AND PUSH20 0xFFFFFFFFFFFFFFFFFFFFFFFFFFFFFFFFFFFFFFFF AND DUP2 MSTORE PUSH1 0x20 ADD SWAP1 DUP2 MSTORE PUSH1 0x20 ADD PUSH1 0x0 KECCAK256 PUSH1 0x0 SWAP1 SLOAD SWAP1 PUSH2 0x100 EXP SWAP1 POP POP DUP1 PUSH1 0x3 ADD PUSH1 0x0 DUP2 SLOAD DUP1 SWAP3 SWAP2 SWAP1 PUSH2 0x129D SWAP1 PUSH2 0x27D8 JUMP JUMPDEST SWAP2 SWAP1 POP SSTORE POP POP POP JUMP JUMPDEST PUSH1 0x60 DUP1 PUSH1 0x60 DUP1 PUSH1 0x60 DUP1 PUSH1 0x0 PUSH1 0x5 PUSH1 0x0 DUP10 PUSH20 0xFFFFFFFFFFFFFFFFFFFFFFFFFFFFFFFFFFFFFFFF AND PUSH20 0xFFFFFFFFFFFFFFFFFFFFFFFFFFFFFFFFFFFFFFFF AND DUP2 MSTORE PUSH1 0x20 ADD SWAP1 DUP2 MSTORE PUSH1 0x20 ADD PUSH1 0x0 KECCAK256 PUSH1 0x40 MLOAD DUP1 PUSH1 0xC0 ADD PUSH1 0x40 MSTORE SWAP1 DUP2 PUSH1 0x0 DUP3 ADD DUP1 SLOAD PUSH2 0x130B SWAP1 PUSH2 0x2775 JUMP JUMPDEST DUP1 PUSH1 0x1F ADD PUSH1 0x20 DUP1 SWAP2 DIV MUL PUSH1 0x20 ADD PUSH1 0x40 MLOAD SWAP1 DUP2 ADD PUSH1 0x40 MSTORE DUP1 SWAP3 SWAP2 SWAP1 DUP2 DUP2 MSTORE PUSH1 0x20 ADD DUP3 DUP1 SLOAD PUSH2 0x1337 SWAP1 PUSH2 0x2775 JUMP JUMPDEST DUP1 ISZERO PUSH2 0x1384 JUMPI DUP1 PUSH1 0x1F LT PUSH2 0x1359 JUMPI PUSH2 0x100 DUP1 DUP4 SLOAD DIV MUL DUP4 MSTORE SWAP2 PUSH1 0x20 ADD SWAP2 PUSH2 0x1384 JUMP JUMPDEST DUP3 ADD SWAP2 SWAP1 PUSH1 0x0 MSTORE PUSH1 0x20 PUSH1 0x0 KECCAK256 SWAP1 JUMPDEST DUP2 SLOAD DUP2 MSTORE SWAP1 PUSH1 0x1 ADD SWAP1 PUSH1 0x20 ADD DUP1 DUP4 GT PUSH2 0x1367 JUMPI DUP3 SWAP1 SUB PUSH1 0x1F AND DUP3 ADD SWAP2 JUMPDEST POP POP POP POP POP DUP2 MSTORE PUSH1 0x20 ADD PUSH1 0x1 DUP3 ADD DUP1 SLOAD PUSH2 0x139D SWAP1 PUSH2 0x2775 JUMP JUMPDEST DUP1 PUSH1 0x1F ADD PUSH1 0x20 DUP1 SWAP2 DIV MUL PUSH1 0x20 ADD PUSH1 0x40 MLOAD SWAP1 DUP2 ADD PUSH1 0x40 MSTORE DUP1 SWAP3 SWAP2 SWAP1 DUP2 DUP2 MSTORE PUSH1 0x20 ADD DUP3 DUP1 SLOAD PUSH2 0x13C9 SWAP1 PUSH2 0x2775 JUMP JUMPDEST DUP1 ISZERO PUSH2 0x1416 JUMPI DUP1 PUSH1 0x1F LT PUSH2 0x13EB JUMPI PUSH2 0x100 DUP1 DUP4 SLOAD DIV MUL DUP4 MSTORE SWAP2 PUSH1 0x20 ADD SWAP2 PUSH2 0x1416 JUMP JUMPDEST DUP3 ADD SWAP2 SWAP1 PUSH1 0x0 MSTORE PUSH1 0x20 PUSH1 0x0 KECCAK256 SWAP1 JUMPDEST DUP2 SLOAD DUP2 MSTORE SWAP1 PUSH1 0x1 ADD SWAP1 PUSH1 0x20 ADD DUP1 DUP4 GT PUSH2 0x13F9 JUMPI DUP3 SWAP1 SUB PUSH1 0x1F AND DUP3 ADD SWAP2 JUMPDEST POP POP POP POP POP DUP2 MSTORE PUSH1 0x20 ADD PUSH1 0x2 DUP3 ADD DUP1 SLOAD PUSH2 0x142F SWAP1 PUSH2 0x2775 JUMP JUMPDEST DUP1 PUSH1 0x1F ADD PUSH1 0x20 DUP1 SWAP2 DIV MUL PUSH1 0x20 ADD PUSH1 0x40 MLOAD SWAP1 DUP2 ADD PUSH1 0x40 MSTORE DUP1 SWAP3 SWAP2 SWAP1 DUP2 DUP2 MSTORE PUSH1 0x20 ADD DUP3 DUP1 SLOAD PUSH2 0x145B SWAP1 PUSH2 0x2775 JUMP JUMPDEST DUP1 ISZERO PUSH2 0x14A8 JUMPI DUP1 PUSH1 0x1F LT PUSH2 0x147D JUMPI PUSH2 0x100 DUP1 DUP4 SLOAD DIV MUL DUP4 MSTORE SWAP2 PUSH1 0x20 ADD SWAP2 PUSH2 0x14A8 JUMP JUMPDEST DUP3 ADD SWAP2 SWAP1 PUSH1 0x0 MSTORE PUSH1 0x20 PUSH1 0x0 KECCAK256 SWAP1 JUMPDEST DUP2 SLOAD DUP2 MSTORE SWAP1 PUSH1 0x1 ADD SWAP1 PUSH1 0x20 ADD DUP1 DUP4 GT PUSH2 0x148B JUMPI DUP3 SWAP1 SUB PUSH1 0x1F AND DUP3 ADD SWAP2 JUMPDEST POP POP POP POP POP DUP2 MSTORE PUSH1 0x20 ADD PUSH1 0x3 DUP3 ADD DUP1 SLOAD PUSH2 0x14C1 SWAP1 PUSH2 0x2775 JUMP JUMPDEST DUP1 PUSH1 0x1F ADD PUSH1 0x20 DUP1 SWAP2 DIV MUL PUSH1 0x20 ADD PUSH1 0x40 MLOAD SWAP1 DUP2 ADD PUSH1 0x40 MSTORE DUP1 SWAP3 SWAP2 SWAP1 DUP2 DUP2 MSTORE PUSH1 0x20 ADD DUP3 DUP1 SLOAD PUSH2 0x14ED SWAP1 PUSH2 0x2775 JUMP JUMPDEST DUP1 ISZERO PUSH2 0x153A JUMPI DUP1 PUSH1 0x1F LT PUSH2 0x150F JUMPI PUSH2 0x100 DUP1 DUP4 SLOAD DIV MUL DUP4 MSTORE SWAP2 PUSH1 0x20 ADD SWAP2 PUSH2 0x153A JUMP JUMPDEST DUP3 ADD SWAP2 SWAP1 PUSH1 0x0 MSTORE PUSH1 0x20 PUSH1 0x0 KECCAK256 SWAP1 JUMPDEST DUP2 SLOAD DUP2 MSTORE SWAP1 PUSH1 0x1 ADD SWAP1 PUSH1 0x20 ADD DUP1 DUP4 GT PUSH2 0x151D JUMPI DUP3 SWAP1 SUB PUSH1 0x1F AND DUP3 ADD SWAP2 JUMPDEST POP POP POP POP POP DUP2 MSTORE PUSH1 0x20 ADD PUSH1 0x4 DUP3 ADD DUP1 SLOAD PUSH2 0x1553 SWAP1 PUSH2 0x2775 JUMP JUMPDEST DUP1 PUSH1 0x1F ADD PUSH1 0x20 DUP1 SWAP2 DIV MUL PUSH1 0x20 ADD PUSH1 0x40 MLOAD SWAP1 DUP2 ADD PUSH1 0x40 MSTORE DUP1 SWAP3 SWAP2 SWAP1 DUP2 DUP2 MSTORE PUSH1 0x20 ADD DUP3 DUP1 SLOAD PUSH2 0x157F SWAP1 PUSH2 0x2775 JUMP JUMPDEST DUP1 ISZERO PUSH2 0x15CC JUMPI DUP1 PUSH1 0x1F LT PUSH2 0x15A1 JUMPI PUSH2 0x100 DUP1 DUP4 SLOAD DIV MUL DUP4 MSTORE SWAP2 PUSH1 0x20 ADD SWAP2 PUSH2 0x15CC JUMP JUMPDEST DUP3 ADD SWAP2 SWAP1 PUSH1 0x0 MSTORE PUSH1 0x20 PUSH1 0x0 KECCAK256 SWAP1 JUMPDEST DUP2 SLOAD DUP2 MSTORE SWAP1 PUSH1 0x1 ADD SWAP1 PUSH1 0x20 ADD DUP1 DUP4 GT PUSH2 0x15AF JUMPI DUP3 SWAP1 SUB PUSH1 0x1F AND DUP3 ADD SWAP2 JUMPDEST POP POP POP POP POP DUP2 MSTORE PUSH1 0x20 ADD PUSH1 0x5 DUP3 ADD DUP1 SLOAD PUSH2 0x15E5 SWAP1 PUSH2 0x2775 JUMP JUMPDEST DUP1 PUSH1 0x1F ADD PUSH1 0x20 DUP1 SWAP2 DIV MUL PUSH1 0x20 ADD PUSH1 0x40 MLOAD SWAP1 DUP2 ADD PUSH1 0x40 MSTORE DUP1 SWAP3 SWAP2 SWAP1 DUP2 DUP2 MSTORE PUSH1 0x20 ADD DUP3 DUP1 SLOAD PUSH2 0x1611 SWAP1 PUSH2 0x2775 JUMP JUMPDEST DUP1 ISZERO PUSH2 0x165E JUMPI DUP1 PUSH1 0x1F LT PUSH2 0x1633 JUMPI PUSH2 0x100 DUP1 DUP4 SLOAD DIV MUL DUP4 MSTORE SWAP2 PUSH1 0x20 ADD SWAP2 PUSH2 0x165E JUMP JUMPDEST DUP3 ADD SWAP2 SWAP1 PUSH1 0x0 MSTORE PUSH1 0x20 PUSH1 0x0 KECCAK256 SWAP1 JUMPDEST DUP2 SLOAD DUP2 MSTORE SWAP1 PUSH1 0x1 ADD SWAP1 PUSH1 0x20 ADD DUP1 DUP4 GT PUSH2 0x1641 JUMPI DUP3 SWAP1 SUB PUSH1 0x1F AND DUP3 ADD SWAP2 JUMPDEST POP POP POP POP POP DUP2 MSTORE POP POP SWAP1 POP DUP1 PUSH1 0x0 ADD MLOAD DUP2 PUSH1 0x20 ADD MLOAD DUP3 PUSH1 0x40 ADD MLOAD DUP4 PUSH1 0x60 ADD MLOAD DUP5 PUSH1 0x80 ADD MLOAD DUP6 PUSH1 0xA0 ADD MLOAD SWAP7 POP SWAP7 POP SWAP7 POP SWAP7 POP SWAP7 POP SWAP7 POP POP SWAP2 SWAP4 SWAP6 POP SWAP2 SWAP4 SWAP6 JUMP JUMPDEST PUSH1 0x60 DUP1 PUSH1 0x0 PUSH1 0x7 PUSH1 0x0 DUP6 PUSH20 0xFFFFFFFFFFFFFFFFFFFFFFFFFFFFFFFFFFFFFFFF AND PUSH20 0xFFFFFFFFFFFFFFFFFFFFFFFFFFFFFFFFFFFFFFFF AND DUP2 MSTORE PUSH1 0x20 ADD SWAP1 DUP2 MSTORE PUSH1 0x20 ADD PUSH1 0x0 KECCAK256 PUSH1 0x40 MLOAD DUP1 PUSH1 0x40 ADD PUSH1 0x40 MSTORE SWAP1 DUP2 PUSH1 0x0 DUP3 ADD DUP1 SLOAD PUSH2 0x16FC SWAP1 PUSH2 0x2775 JUMP JUMPDEST DUP1 PUSH1 0x1F ADD PUSH1 0x20 DUP1 SWAP2 DIV MUL PUSH1 0x20 ADD PUSH1 0x40 MLOAD SWAP1 DUP2 ADD PUSH1 0x40 MSTORE DUP1 SWAP3 SWAP2 SWAP1 DUP2 DUP2 MSTORE PUSH1 0x20 ADD DUP3 DUP1 SLOAD PUSH2 0x1728 SWAP1 PUSH2 0x2775 JUMP JUMPDEST DUP1 ISZERO PUSH2 0x1775 JUMPI DUP1 PUSH1 0x1F LT PUSH2 0x174A JUMPI PUSH2 0x100 DUP1 DUP4 SLOAD DIV MUL DUP4 MSTORE SWAP2 PUSH1 0x20 ADD SWAP2 PUSH2 0x1775 JUMP JUMPDEST DUP3 ADD SWAP2 SWAP1 PUSH1 0x0 MSTORE PUSH1 0x20 PUSH1 0x0 KECCAK256 SWAP1 JUMPDEST DUP2 SLOAD DUP2 MSTORE SWAP1 PUSH1 0x1 ADD SWAP1 PUSH1 0x20 ADD DUP1 DUP4 GT PUSH2 0x1758 JUMPI DUP3 SWAP1 SUB PUSH1 0x1F AND DUP3 ADD SWAP2 JUMPDEST POP POP POP POP POP DUP2 MSTORE PUSH1 0x20 ADD PUSH1 0x1 DUP3 ADD DUP1 SLOAD PUSH2 0x178E SWAP1 PUSH2 0x2775 JUMP JUMPDEST DUP1 PUSH1 0x1F ADD PUSH1 0x20 DUP1 SWAP2 DIV MUL PUSH1 0x20 ADD PUSH1 0x40 MLOAD SWAP1 DUP2 ADD PUSH1 0x40 MSTORE DUP1 SWAP3 SWAP2 SWAP1 DUP2 DUP2 MSTORE PUSH1 0x20 ADD DUP3 DUP1 SLOAD PUSH2 0x17BA SWAP1 PUSH2 0x2775 JUMP JUMPDEST DUP1 ISZERO PUSH2 0x1807 JUMPI DUP1 PUSH1 0x1F LT PUSH2 0x17DC JUMPI PUSH2 0x100 DUP1 DUP4 SLOAD DIV MUL DUP4 MSTORE SWAP2 PUSH1 0x20 ADD SWAP2 PUSH2 0x1807 JUMP JUMPDEST DUP3 ADD SWAP2 SWAP1 PUSH1 0x0 MSTORE PUSH1 0x20 PUSH1 0x0 KECCAK256 SWAP1 JUMPDEST DUP2 SLOAD DUP2 MSTORE SWAP1 PUSH1 0x1 ADD SWAP1 PUSH1 0x20 ADD DUP1 DUP4 GT PUSH2 0x17EA JUMPI DUP3 SWAP1 SUB PUSH1 0x1F AND DUP3 ADD SWAP2 JUMPDEST POP POP POP POP POP DUP2 MSTORE POP POP SWAP1 POP DUP1 PUSH1 0x0 ADD MLOAD DUP2 PUSH1 0x20 ADD MLOAD SWAP3 POP SWAP3 POP POP SWAP2 POP SWAP2 JUMP JUMPDEST PUSH1 0x1 PUSH1 0x20 MSTORE DUP1 PUSH1 0x0 MSTORE PUSH1 0x40 PUSH1 0x0 KECCAK256 PUSH1 0x0 SWAP2 POP SLOAD SWAP1 PUSH2 0x100 EXP SWAP1 DIV PUSH1 0xFF AND DUP2 JUMP JUMPDEST PUSH1 0x4 SLOAD DUP2 JUMP JUMPDEST PUSH1 0x5 PUSH1 0x20 MSTORE DUP1 PUSH1 0x0 MSTORE PUSH1 0x40 PUSH1 0x0 KECCAK256 PUSH1 0x0 SWAP2 POP SWAP1 POP DUP1 PUSH1 0x0 ADD DUP1 SLOAD PUSH2 0x186F SWAP1 PUSH2 0x2775 JUMP JUMPDEST DUP1 PUSH1 0x1F ADD PUSH1 0x20 DUP1 SWAP2 DIV MUL PUSH1 0x20 ADD PUSH1 0x40 MLOAD SWAP1 DUP2 ADD PUSH1 0x40 MSTORE DUP1 SWAP3 SWAP2 SWAP1 DUP2 DUP2 MSTORE PUSH1 0x20 ADD DUP3 DUP1 SLOAD PUSH2 0x189B SWAP1 PUSH2 0x2775 JUMP JUMPDEST DUP1 ISZERO PUSH2 0x18E8 JUMPI DUP1 PUSH1 0x1F LT PUSH2 0x18BD JUMPI PUSH2 0x100 DUP1 DUP4 SLOAD DIV MUL DUP4 MSTORE SWAP2 PUSH1 0x20 ADD SWAP2 PUSH2 0x18E8 JUMP JUMPDEST DUP3 ADD SWAP2 SWAP1 PUSH1 0x0 MSTORE PUSH1 0x20 PUSH1 0x0 KECCAK256 SWAP1 JUMPDEST DUP2 SLOAD DUP2 MSTORE SWAP1 PUSH1 0x1 ADD SWAP1 PUSH1 0x20 ADD DUP1 DUP4 GT PUSH2 0x18CB JUMPI DUP3 SWAP1 SUB PUSH1 0x1F AND DUP3 ADD SWAP2 JUMPDEST POP POP POP POP POP SWAP1 DUP1 PUSH1 0x1 ADD DUP1 SLOAD PUSH2 0x18FD SWAP1 PUSH2 0x2775 JUMP JUMPDEST DUP1 PUSH1 0x1F ADD PUSH1 0x20 DUP1 SWAP2 DIV MUL PUSH1 0x20 ADD PUSH1 0x40 MLOAD SWAP1 DUP2 ADD PUSH1 0x40 MSTORE DUP1 SWAP3 SWAP2 SWAP1 DUP2 DUP2 MSTORE PUSH1 0x20 ADD DUP3 DUP1 SLOAD PUSH2 0x1929 SWAP1 PUSH2 0x2775 JUMP JUMPDEST DUP1 ISZERO PUSH2 0x1976 JUMPI DUP1 PUSH1 0x1F LT PUSH2 0x194B JUMPI PUSH2 0x100 DUP1 DUP4 SLOAD DIV MUL DUP4 MSTORE SWAP2 PUSH1 0x20 ADD SWAP2 PUSH2 0x1976 JUMP JUMPDEST DUP3 ADD SWAP2 SWAP1 PUSH1 0x0 MSTORE PUSH1 0x20 PUSH1 0x0 KECCAK256 SWAP1 JUMPDEST DUP2 SLOAD DUP2 MSTORE SWAP1 PUSH1 0x1 ADD SWAP1 PUSH1 0x20 ADD DUP1 DUP4 GT PUSH2 0x1959 JUMPI DUP3 SWAP1 SUB PUSH1 0x1F AND DUP3 ADD SWAP2 JUMPDEST POP POP POP POP POP SWAP1 DUP1 PUSH1 0x2 ADD DUP1 SLOAD PUSH2 0x198B SWAP1 PUSH2 0x2775 JUMP JUMPDEST DUP1 PUSH1 0x1F ADD PUSH1 0x20 DUP1 SWAP2 DIV MUL PUSH1 0x20 ADD PUSH1 0x40 MLOAD SWAP1 DUP2 ADD PUSH1 0x40 MSTORE DUP1 SWAP3 SWAP2 SWAP1 DUP2 DUP2 MSTORE PUSH1 0x20 ADD DUP3 DUP1 SLOAD PUSH2 0x19B7 SWAP1 PUSH2 0x2775 JUMP JUMPDEST DUP1 ISZERO PUSH2 0x1A04 JUMPI DUP1 PUSH1 0x1F LT PUSH2 0x19D9 JUMPI PUSH2 0x100 DUP1 DUP4 SLOAD DIV MUL DUP4 MSTORE SWAP2 PUSH1 0x20 ADD SWAP2 PUSH2 0x1A04 JUMP JUMPDEST DUP3 ADD SWAP2 SWAP1 PUSH1 0x0 MSTORE PUSH1 0x20 PUSH1 0x0 KECCAK256 SWAP1 JUMPDEST DUP2 SLOAD DUP2 MSTORE SWAP1 PUSH1 0x1 ADD SWAP1 PUSH1 0x20 ADD DUP1 DUP4 GT PUSH2 0x19E7 JUMPI DUP3 SWAP1 SUB PUSH1 0x1F AND DUP3 ADD SWAP2 JUMPDEST POP POP POP POP POP SWAP1 DUP1 PUSH1 0x3 ADD DUP1 SLOAD PUSH2 0x1A19 SWAP1 PUSH2 0x2775 JUMP JUMPDEST DUP1 PUSH1 0x1F ADD PUSH1 0x20 DUP1 SWAP2 DIV MUL PUSH1 0x20 ADD PUSH1 0x40 MLOAD SWAP1 DUP2 ADD PUSH1 0x40 MSTORE DUP1 SWAP3 SWAP2 SWAP1 DUP2 DUP2 MSTORE PUSH1 0x20 ADD DUP3 DUP1 SLOAD PUSH2 0x1A45 SWAP1 PUSH2 0x2775 JUMP JUMPDEST DUP1 ISZERO PUSH2 0x1A92 JUMPI DUP1 PUSH1 0x1F LT PUSH2 0x1A67 JUMPI PUSH2 0x100 DUP1 DUP4 SLOAD DIV MUL DUP4 MSTORE SWAP2 PUSH1 0x20 ADD SWAP2 PUSH2 0x1A92 JUMP JUMPDEST DUP3 ADD SWAP2 SWAP1 PUSH1 0x0 MSTORE PUSH1 0x20 PUSH1 0x0 KECCAK256 SWAP1 JUMPDEST DUP2 SLOAD DUP2 MSTORE SWAP1 PUSH1 0x1 ADD SWAP1 PUSH1 0x20 ADD DUP1 DUP4 GT PUSH2 0x1A75 JUMPI DUP3 SWAP1 SUB PUSH1 0x1F AND DUP3 ADD SWAP2 JUMPDEST POP POP POP POP POP SWAP1 DUP1 PUSH1 0x4 ADD DUP1 SLOAD PUSH2 0x1AA7 SWAP1 PUSH2 0x2775 JUMP JUMPDEST DUP1 PUSH1 0x1F ADD PUSH1 0x20 DUP1 SWAP2 DIV MUL PUSH1 0x20 ADD PUSH1 0x40 MLOAD SWAP1 DUP2 ADD PUSH1 0x40 MSTORE DUP1 SWAP3 SWAP2 SWAP1 DUP2 DUP2 MSTORE PUSH1 0x20 ADD DUP3 DUP1 SLOAD PUSH2 0x1AD3 SWAP1 PUSH2 0x2775 JUMP JUMPDEST DUP1 ISZERO PUSH2 0x1B20 JUMPI DUP1 PUSH1 0x1F LT PUSH2 0x1AF5 JUMPI PUSH2 0x100 DUP1 DUP4 SLOAD DIV MUL DUP4 MSTORE SWAP2 PUSH1 0x20 ADD SWAP2 PUSH2 0x1B20 JUMP JUMPDEST DUP3 ADD SWAP2 SWAP1 PUSH1 0x0 MSTORE PUSH1 0x20 PUSH1 0x0 KECCAK256 SWAP1 JUMPDEST DUP2 SLOAD DUP2 MSTORE SWAP1 PUSH1 0x1 ADD SWAP1 PUSH1 0x20 ADD DUP1 DUP4 GT PUSH2 0x1B03 JUMPI DUP3 SWAP1 SUB PUSH1 0x1F AND DUP3 ADD SWAP2 JUMPDEST POP POP POP POP POP SWAP1 DUP1 PUSH1 0x5 ADD DUP1 SLOAD PUSH2 0x1B35 SWAP1 PUSH2 0x2775 JUMP JUMPDEST DUP1 PUSH1 0x1F ADD PUSH1 0x20 DUP1 SWAP2 DIV MUL PUSH1 0x20 ADD PUSH1 0x40 MLOAD SWAP1 DUP2 ADD PUSH1 0x40 MSTORE DUP1 SWAP3 SWAP2 SWAP1 DUP2 DUP2 MSTORE PUSH1 0x20 ADD DUP3 DUP1 SLOAD PUSH2 0x1B61 SWAP1 PUSH2 0x2775 JUMP JUMPDEST DUP1 ISZERO PUSH2 0x1BAE JUMPI DUP1 PUSH1 0x1F LT PUSH2 0x1B83 JUMPI PUSH2 0x100 DUP1 DUP4 SLOAD DIV MUL DUP4 MSTORE SWAP2 PUSH1 0x20 ADD SWAP2 PUSH2 0x1BAE JUMP JUMPDEST DUP3 ADD SWAP2 SWAP1 PUSH1 0x0 MSTORE PUSH1 0x20 PUSH1 0x0 KECCAK256 SWAP1 JUMPDEST DUP2 SLOAD DUP2 MSTORE SWAP1 PUSH1 0x1 ADD SWAP1 PUSH1 0x20 ADD DUP1 DUP4 GT PUSH2 0x1B91 JUMPI DUP3 SWAP1 SUB PUSH1 0x1F AND DUP3 ADD SWAP2 JUMPDEST POP POP POP POP POP SWAP1 POP DUP7 JUMP JUMPDEST PUSH1 0x0 DUP1 SLOAD SWAP1 PUSH2 0x100 EXP SWAP1 DIV PUSH20 0xFFFFFFFFFFFFFFFFFFFFFFFFFFFFFFFFFFFFFFFF AND PUSH20 0xFFFFFFFFFFFFFFFFFFFFFFFFFFFFFFFFFFFFFFFF AND CALLER PUSH20 0xFFFFFFFFFFFFFFFFFFFFFFFFFFFFFFFFFFFFFFFF AND EQ PUSH2 0x1C10 JUMPI PUSH1 0x0 DUP1 REVERT JUMPDEST PUSH1 0x40 MLOAD DUP1 PUSH1 0xA0 ADD PUSH1 0x40 MSTORE DUP1 DUP7 DUP2 MSTORE PUSH1 0x20 ADD DUP6 DUP2 MSTORE PUSH1 0x20 ADD DUP5 DUP2 MSTORE PUSH1 0x20 ADD DUP4 DUP2 MSTORE PUSH1 0x20 ADD DUP3 DUP2 MSTORE POP PUSH1 0x6 PUSH1 0x0 CALLER PUSH20 0xFFFFFFFFFFFFFFFFFFFFFFFFFFFFFFFFFFFFFFFF AND PUSH20 0xFFFFFFFFFFFFFFFFFFFFFFFFFFFFFFFFFFFFFFFF AND DUP2 MSTORE PUSH1 0x20 ADD SWAP1 DUP2 MSTORE PUSH1 0x20 ADD PUSH1 0x0 KECCAK256 PUSH1 0x0 DUP3 ADD MLOAD DUP2 PUSH1 0x0 ADD SWAP1 DUP1 MLOAD SWAP1 PUSH1 0x20 ADD SWAP1 PUSH2 0x1C92 SWAP3 SWAP2 SWAP1 PUSH2 0x1F22 JUMP JUMPDEST POP PUSH1 0x20 DUP3 ADD MLOAD DUP2 PUSH1 0x1 ADD SWAP1 DUP1 MLOAD SWAP1 PUSH1 0x20 ADD SWAP1 PUSH2 0x1CAF SWAP3 SWAP2 SWAP1 PUSH2 0x1F22 JUMP JUMPDEST POP PUSH1 0x40 DUP3 ADD MLOAD DUP2 PUSH1 0x2 ADD SWAP1 DUP1 MLOAD SWAP1 PUSH1 0x20 ADD SWAP1 PUSH2 0x1CCC SWAP3 SWAP2 SWAP1 PUSH2 0x1F22 JUMP JUMPDEST POP PUSH1 0x60 DUP3 ADD MLOAD DUP2 PUSH1 0x3 ADD SWAP1 DUP1 MLOAD SWAP1 PUSH1 0x20 ADD SWAP1 PUSH2 0x1CE9 SWAP3 SWAP2 SWAP1 PUSH2 0x1F22 JUMP JUMPDEST POP PUSH1 0x80 DUP3 ADD MLOAD DUP2 PUSH1 0x4 ADD SWAP1 DUP1 MLOAD SWAP1 PUSH1 0x20 ADD SWAP1 PUSH2 0x1D06 SWAP3 SWAP2 SWAP1 PUSH2 0x1F22 JUMP JUMPDEST POP SWAP1 POP POP POP POP POP POP POP JUMP JUMPDEST DUP1 PUSH1 0x3 DUP2 SWAP1 SSTORE POP POP JUMP JUMPDEST PUSH1 0x0 DUP1 SLOAD SWAP1 PUSH2 0x100 EXP SWAP1 DIV PUSH20 0xFFFFFFFFFFFFFFFFFFFFFFFFFFFFFFFFFFFFFFFF AND PUSH20 0xFFFFFFFFFFFFFFFFFFFFFFFFFFFFFFFFFFFFFFFF AND CALLER PUSH20 0xFFFFFFFFFFFFFFFFFFFFFFFFFFFFFFFFFFFFFFFF AND EQ PUSH2 0x1D73 JUMPI PUSH1 0x0 DUP1 REVERT JUMPDEST PUSH1 0x0 PUSH1 0x8 PUSH1 0x0 DUP4 DUP2 MSTORE PUSH1 0x20 ADD SWAP1 DUP2 MSTORE PUSH1 0x20 ADD PUSH1 0x0 KECCAK256 SWAP1 POP PUSH1 0x2 PUSH1 0x4 SLOAD PUSH2 0x1D99 SWAP2 SWAP1 PUSH2 0x26A8 JUMP JUMPDEST DUP2 PUSH1 0x3 ADD SLOAD GT PUSH2 0x1DA8 JUMPI PUSH1 0x0 DUP1 REVERT JUMPDEST DUP1 PUSH1 0x2 ADD PUSH1 0x14 SWAP1 SLOAD SWAP1 PUSH2 0x100 EXP SWAP1 DIV PUSH1 0xFF AND ISZERO PUSH2 0x1DC4 JUMPI PUSH1 0x0 DUP1 REVERT JUMPDEST DUP1 PUSH1 0x2 ADD PUSH1 0x0 SWAP1 SLOAD SWAP1 PUSH2 0x100 EXP SWAP1 DIV PUSH20 0xFFFFFFFFFFFFFFFFFFFFFFFFFFFFFFFFFFFFFFFF AND PUSH20 0xFFFFFFFFFFFFFFFFFFFFFFFFFFFFFFFFFFFFFFFF AND PUSH2 0x8FC CALLVALUE SWAP1 DUP2 ISZERO MUL SWAP1 PUSH1 0x40 MLOAD PUSH1 0x0 PUSH1 0x40 MLOAD DUP1 DUP4 SUB DUP2 DUP6 DUP9 DUP9 CALL SWAP4 POP POP POP POP ISZERO DUP1 ISZERO PUSH2 0x1E2E JUMPI RETURNDATASIZE PUSH1 0x0 DUP1 RETURNDATACOPY RETURNDATASIZE PUSH1 0x0 REVERT JUMPDEST POP PUSH1 0x1 DUP2 PUSH1 0x2 ADD PUSH1 0x14 PUSH2 0x100 EXP DUP2 SLOAD DUP2 PUSH1 0xFF MUL NOT AND SWAP1 DUP4 ISZERO ISZERO MUL OR SWAP1 SSTORE POP POP POP JUMP JUMPDEST PUSH1 0x2 SLOAD CALLVALUE LT ISZERO PUSH2 0x1E5F JUMPI PUSH1 0x0 DUP1 REVERT JUMPDEST PUSH1 0x1 PUSH1 0x0 CALLER PUSH20 0xFFFFFFFFFFFFFFFFFFFFFFFFFFFFFFFFFFFFFFFF AND PUSH20 0xFFFFFFFFFFFFFFFFFFFFFFFFFFFFFFFFFFFFFFFF AND DUP2 MSTORE PUSH1 0x20 ADD SWAP1 DUP2 MSTORE PUSH1 0x20 ADD PUSH1 0x0 KECCAK256 PUSH1 0x0 SWAP1 SLOAD SWAP1 PUSH2 0x100 EXP SWAP1 DIV PUSH1 0xFF AND PUSH2 0x1EC9 JUMPI PUSH1 0x4 PUSH1 0x0 DUP2 SLOAD DUP1 SWAP3 SWAP2 SWAP1 PUSH2 0x1EC3 SWAP1 PUSH2 0x27D8 JUMP JUMPDEST SWAP2 SWAP1 POP SSTORE POP JUMPDEST PUSH1 0x1 DUP1 PUSH1 0x0 CALLER PUSH20 0xFFFFFFFFFFFFFFFFFFFFFFFFFFFFFFFFFFFFFFFF AND PUSH20 0xFFFFFFFFFFFFFFFFFFFFFFFFFFFFFFFFFFFFFFFF AND DUP2 MSTORE PUSH1 0x20 ADD SWAP1 DUP2 MSTORE PUSH1 0x20 ADD PUSH1 0x0 KECCAK256 PUSH1 0x0 PUSH2 0x100 EXP DUP2 SLOAD DUP2 PUSH1 0xFF MUL NOT AND SWAP1 DUP4 ISZERO ISZERO MUL OR SWAP1 SSTORE POP JUMP JUMPDEST DUP3 DUP1 SLOAD PUSH2 0x1F2E SWAP1 PUSH2 0x2775 JUMP JUMPDEST SWAP1 PUSH1 0x0 MSTORE PUSH1 0x20 PUSH1 0x0 KECCAK256 SWAP1 PUSH1 0x1F ADD PUSH1 0x20 SWAP1 DIV DUP2 ADD SWAP3 DUP3 PUSH2 0x1F50 JUMPI PUSH1 0x0 DUP6 SSTORE PUSH2 0x1F97 JUMP JUMPDEST DUP3 PUSH1 0x1F LT PUSH2 0x1F69 JUMPI DUP1 MLOAD PUSH1 0xFF NOT AND DUP4 DUP1 ADD OR DUP6 SSTORE PUSH2 0x1F97 JUMP JUMPDEST DUP3 DUP1 ADD PUSH1 0x1 ADD DUP6 SSTORE DUP3 ISZERO PUSH2 0x1F97 JUMPI SWAP2 DUP3 ADD JUMPDEST DUP3 DUP2 GT ISZERO PUSH2 0x1F96 JUMPI DUP3 MLOAD DUP3 SSTORE SWAP2 PUSH1 0x20 ADD SWAP2 SWAP1 PUSH1 0x1 ADD SWAP1 PUSH2 0x1F7B JUMP JUMPDEST JUMPDEST POP SWAP1 POP PUSH2 0x1FA4 SWAP2 SWAP1 PUSH2 0x1FA8 JUMP JUMPDEST POP SWAP1 JUMP JUMPDEST JUMPDEST DUP1 DUP3 GT ISZERO PUSH2 0x1FC1 JUMPI PUSH1 0x0 DUP2 PUSH1 0x0 SWAP1 SSTORE POP PUSH1 0x1 ADD PUSH2 0x1FA9 JUMP JUMPDEST POP SWAP1 JUMP JUMPDEST PUSH1 0x0 PUSH2 0x1FD8 PUSH2 0x1FD3 DUP5 PUSH2 0x265B JUMP JUMPDEST PUSH2 0x2636 JUMP JUMPDEST SWAP1 POP DUP3 DUP2 MSTORE PUSH1 0x20 DUP2 ADD DUP5 DUP5 DUP5 ADD GT ISZERO PUSH2 0x1FF0 JUMPI PUSH1 0x0 DUP1 REVERT JUMPDEST PUSH2 0x1FFB DUP5 DUP3 DUP6 PUSH2 0x2733 JUMP JUMPDEST POP SWAP4 SWAP3 POP POP POP JUMP JUMPDEST PUSH1 0x0 DUP2 CALLDATALOAD SWAP1 POP PUSH2 0x2012 DUP2 PUSH2 0x28EE JUMP JUMPDEST SWAP3 SWAP2 POP POP JUMP JUMPDEST PUSH1 0x0 DUP2 CALLDATALOAD SWAP1 POP PUSH2 0x2027 DUP2 PUSH2 0x2905 JUMP JUMPDEST SWAP3 SWAP2 POP POP JUMP JUMPDEST PUSH1 0x0 DUP3 PUSH1 0x1F DUP4 ADD SLT PUSH2 0x203E JUMPI PUSH1 0x0 DUP1 REVERT JUMPDEST DUP2 CALLDATALOAD PUSH2 0x204E DUP5 DUP3 PUSH1 0x20 DUP7 ADD PUSH2 0x1FC5 JUMP JUMPDEST SWAP2 POP POP SWAP3 SWAP2 POP POP JUMP JUMPDEST PUSH1 0x0 DUP2 CALLDATALOAD SWAP1 POP PUSH2 0x2066 DUP2 PUSH2 0x291C JUMP JUMPDEST SWAP3 SWAP2 POP POP JUMP JUMPDEST PUSH1 0x0 PUSH1 0x20 DUP3 DUP5 SUB SLT ISZERO PUSH2 0x207E JUMPI PUSH1 0x0 DUP1 REVERT JUMPDEST PUSH1 0x0 PUSH2 0x208C DUP5 DUP3 DUP6 ADD PUSH2 0x2003 JUMP JUMPDEST SWAP2 POP POP SWAP3 SWAP2 POP POP JUMP JUMPDEST PUSH1 0x0 DUP1 PUSH1 0x40 DUP4 DUP6 SUB SLT ISZERO PUSH2 0x20A8 JUMPI PUSH1 0x0 DUP1 REVERT JUMPDEST PUSH1 0x0 DUP4 ADD CALLDATALOAD PUSH8 0xFFFFFFFFFFFFFFFF DUP2 GT ISZERO PUSH2 0x20C2 JUMPI PUSH1 0x0 DUP1 REVERT JUMPDEST PUSH2 0x20CE DUP6 DUP3 DUP7 ADD PUSH2 0x202D JUMP JUMPDEST SWAP3 POP POP PUSH1 0x20 DUP4 ADD CALLDATALOAD PUSH8 0xFFFFFFFFFFFFFFFF DUP2 GT ISZERO PUSH2 0x20EB JUMPI PUSH1 0x0 DUP1 REVERT JUMPDEST PUSH2 0x20F7 DUP6 DUP3 DUP7 ADD PUSH2 0x202D JUMP JUMPDEST SWAP2 POP POP SWAP3 POP SWAP3 SWAP1 POP JUMP JUMPDEST PUSH1 0x0 DUP1 PUSH1 0x0 DUP1 PUSH1 0x0 PUSH1 0xA0 DUP7 DUP9 SUB SLT ISZERO PUSH2 0x2119 JUMPI PUSH1 0x0 DUP1 REVERT JUMPDEST PUSH1 0x0 DUP7 ADD CALLDATALOAD PUSH8 0xFFFFFFFFFFFFFFFF DUP2 GT ISZERO PUSH2 0x2133 JUMPI PUSH1 0x0 DUP1 REVERT JUMPDEST PUSH2 0x213F DUP9 DUP3 DUP10 ADD PUSH2 0x202D JUMP JUMPDEST SWAP6 POP POP PUSH1 0x20 DUP7 ADD CALLDATALOAD PUSH8 0xFFFFFFFFFFFFFFFF DUP2 GT ISZERO PUSH2 0x215C JUMPI PUSH1 0x0 DUP1 REVERT JUMPDEST PUSH2 0x2168 DUP9 DUP3 DUP10 ADD PUSH2 0x202D JUMP JUMPDEST SWAP5 POP POP PUSH1 0x40 DUP7 ADD CALLDATALOAD PUSH8 0xFFFFFFFFFFFFFFFF DUP2 GT ISZERO PUSH2 0x2185 JUMPI PUSH1 0x0 DUP1 REVERT JUMPDEST PUSH2 0x2191 DUP9 DUP3 DUP10 ADD PUSH2 0x202D JUMP JUMPDEST SWAP4 POP POP PUSH1 0x60 DUP7 ADD CALLDATALOAD PUSH8 0xFFFFFFFFFFFFFFFF DUP2 GT ISZERO PUSH2 0x21AE JUMPI PUSH1 0x0 DUP1 REVERT JUMPDEST PUSH2 0x21BA DUP9 DUP3 DUP10 ADD PUSH2 0x202D JUMP JUMPDEST SWAP3 POP POP PUSH1 0x80 DUP7 ADD CALLDATALOAD PUSH8 0xFFFFFFFFFFFFFFFF DUP2 GT ISZERO PUSH2 0x21D7 JUMPI PUSH1 0x0 DUP1 REVERT JUMPDEST PUSH2 0x21E3 DUP9 DUP3 DUP10 ADD PUSH2 0x202D JUMP JUMPDEST SWAP2 POP POP SWAP3 SWAP6 POP SWAP3 SWAP6 SWAP1 SWAP4 POP JUMP JUMPDEST PUSH1 0x0 DUP1 PUSH1 0x0 DUP1 PUSH1 0x0 DUP1 PUSH1 0xC0 DUP8 DUP10 SUB SLT ISZERO PUSH2 0x2209 JUMPI PUSH1 0x0 DUP1 REVERT JUMPDEST PUSH1 0x0 DUP8 ADD CALLDATALOAD PUSH8 0xFFFFFFFFFFFFFFFF DUP2 GT ISZERO PUSH2 0x2223 JUMPI PUSH1 0x0 DUP1 REVERT JUMPDEST PUSH2 0x222F DUP10 DUP3 DUP11 ADD PUSH2 0x202D JUMP JUMPDEST SWAP7 POP POP PUSH1 0x20 DUP8 ADD CALLDATALOAD PUSH8 0xFFFFFFFFFFFFFFFF DUP2 GT ISZERO PUSH2 0x224C JUMPI PUSH1 0x0 DUP1 REVERT JUMPDEST PUSH2 0x2258 DUP10 DUP3 DUP11 ADD PUSH2 0x202D JUMP JUMPDEST SWAP6 POP POP PUSH1 0x40 DUP8 ADD CALLDATALOAD PUSH8 0xFFFFFFFFFFFFFFFF DUP2 GT ISZERO PUSH2 0x2275 JUMPI PUSH1 0x0 DUP1 REVERT JUMPDEST PUSH2 0x2281 DUP10 DUP3 DUP11 ADD PUSH2 0x202D JUMP JUMPDEST SWAP5 POP POP PUSH1 0x60 DUP8 ADD CALLDATALOAD PUSH8 0xFFFFFFFFFFFFFFFF DUP2 GT ISZERO PUSH2 0x229E JUMPI PUSH1 0x0 DUP1 REVERT JUMPDEST PUSH2 0x22AA DUP10 DUP3 DUP11 ADD PUSH2 0x202D JUMP JUMPDEST SWAP4 POP POP PUSH1 0x80 DUP8 ADD CALLDATALOAD PUSH8 0xFFFFFFFFFFFFFFFF DUP2 GT ISZERO PUSH2 0x22C7 JUMPI PUSH1 0x0 DUP1 REVERT JUMPDEST PUSH2 0x22D3 DUP10 DUP3 DUP11 ADD PUSH2 0x202D JUMP JUMPDEST SWAP3 POP POP PUSH1 0xA0 DUP8 ADD CALLDATALOAD PUSH8 0xFFFFFFFFFFFFFFFF DUP2 GT ISZERO PUSH2 0x22F0 JUMPI PUSH1 0x0 DUP1 REVERT JUMPDEST PUSH2 0x22FC DUP10 DUP3 DUP11 ADD PUSH2 0x202D JUMP JUMPDEST SWAP2 POP POP SWAP3 SWAP6 POP SWAP3 SWAP6 POP SWAP3 SWAP6 JUMP JUMPDEST PUSH1 0x0 DUP1 PUSH1 0x0 PUSH1 0x60 DUP5 DUP7 SUB SLT ISZERO PUSH2 0x231E JUMPI PUSH1 0x0 DUP1 REVERT JUMPDEST PUSH1 0x0 DUP5 ADD CALLDATALOAD PUSH8 0xFFFFFFFFFFFFFFFF DUP2 GT ISZERO PUSH2 0x2338 JUMPI PUSH1 0x0 DUP1 REVERT JUMPDEST PUSH2 0x2344 DUP7 DUP3 DUP8 ADD PUSH2 0x202D JUMP JUMPDEST SWAP4 POP POP PUSH1 0x20 PUSH2 0x2355 DUP7 DUP3 DUP8 ADD PUSH2 0x2057 JUMP JUMPDEST SWAP3 POP POP PUSH1 0x40 PUSH2 0x2366 DUP7 DUP3 DUP8 ADD PUSH2 0x2018 JUMP JUMPDEST SWAP2 POP POP SWAP3 POP SWAP3 POP SWAP3 JUMP JUMPDEST PUSH1 0x0 PUSH1 0x20 DUP3 DUP5 SUB SLT ISZERO PUSH2 0x2382 JUMPI PUSH1 0x0 DUP1 REVERT JUMPDEST PUSH1 0x0 PUSH2 0x2390 DUP5 DUP3 DUP6 ADD PUSH2 0x2057 JUMP JUMPDEST SWAP2 POP POP SWAP3 SWAP2 POP POP JUMP JUMPDEST PUSH2 0x23A2 DUP2 PUSH2 0x26EB JUMP JUMPDEST DUP3 MSTORE POP POP JUMP JUMPDEST PUSH2 0x23B1 DUP2 PUSH2 0x26D9 JUMP JUMPDEST DUP3 MSTORE POP POP JUMP JUMPDEST PUSH2 0x23C0 DUP2 PUSH2 0x26FD JUMP JUMPDEST DUP3 MSTORE POP POP JUMP JUMPDEST PUSH1 0x0 PUSH2 0x23D1 DUP3 PUSH2 0x268C JUMP JUMPDEST PUSH2 0x23DB DUP2 DUP6 PUSH2 0x2697 JUMP JUMPDEST SWAP4 POP PUSH2 0x23EB DUP2 DUP6 PUSH1 0x20 DUP7 ADD PUSH2 0x2742 JUMP JUMPDEST PUSH2 0x23F4 DUP2 PUSH2 0x28DD JUMP JUMPDEST DUP5 ADD SWAP2 POP POP SWAP3 SWAP2 POP POP JUMP JUMPDEST PUSH2 0x2408 DUP2 PUSH2 0x2729 JUMP JUMPDEST DUP3 MSTORE POP POP JUMP JUMPDEST PUSH1 0x0 PUSH1 0x20 DUP3 ADD SWAP1 POP PUSH2 0x2423 PUSH1 0x0 DUP4 ADD DUP5 PUSH2 0x23A8 JUMP JUMPDEST SWAP3 SWAP2 POP POP JUMP JUMPDEST PUSH1 0x0 PUSH1 0x20 DUP3 ADD SWAP1 POP PUSH2 0x243E PUSH1 0x0 DUP4 ADD DUP5 PUSH2 0x23B7 JUMP JUMPDEST SWAP3 SWAP2 POP POP JUMP JUMPDEST PUSH1 0x0 PUSH1 0x40 DUP3 ADD SWAP1 POP DUP2 DUP2 SUB PUSH1 0x0 DUP4 ADD MSTORE PUSH2 0x245E DUP2 DUP6 PUSH2 0x23C6 JUMP JUMPDEST SWAP1 POP DUP2 DUP2 SUB PUSH1 0x20 DUP4 ADD MSTORE PUSH2 0x2472 DUP2 DUP5 PUSH2 0x23C6 JUMP JUMPDEST SWAP1 POP SWAP4 SWAP3 POP POP POP JUMP JUMPDEST PUSH1 0x0 PUSH1 0xA0 DUP3 ADD SWAP1 POP DUP2 DUP2 SUB PUSH1 0x0 DUP4 ADD MSTORE PUSH2 0x2495 DUP2 DUP9 PUSH2 0x23C6 JUMP JUMPDEST SWAP1 POP DUP2 DUP2 SUB PUSH1 0x20 DUP4 ADD MSTORE PUSH2 0x24A9 DUP2 DUP8 PUSH2 0x23C6 JUMP JUMPDEST SWAP1 POP DUP2 DUP2 SUB PUSH1 0x40 DUP4 ADD MSTORE PUSH2 0x24BD DUP2 DUP7 PUSH2 0x23C6 JUMP JUMPDEST SWAP1 POP DUP2 DUP2 SUB PUSH1 0x60 DUP4 ADD MSTORE PUSH2 0x24D1 DUP2 DUP6 PUSH2 0x23C6 JUMP JUMPDEST SWAP1 POP DUP2 DUP2 SUB PUSH1 0x80 DUP4 ADD MSTORE PUSH2 0x24E5 DUP2 DUP5 PUSH2 0x23C6 JUMP JUMPDEST SWAP1 POP SWAP7 SWAP6 POP POP POP POP POP POP JUMP JUMPDEST PUSH1 0x0 PUSH1 0xC0 DUP3 ADD SWAP1 POP DUP2 DUP2 SUB PUSH1 0x0 DUP4 ADD MSTORE PUSH2 0x250B DUP2 DUP10 PUSH2 0x23C6 JUMP JUMPDEST SWAP1 POP DUP2 DUP2 SUB PUSH1 0x20 DUP4 ADD MSTORE PUSH2 0x251F DUP2 DUP9 PUSH2 0x23C6 JUMP JUMPDEST SWAP1 POP DUP2 DUP2 SUB PUSH1 0x40 DUP4 ADD MSTORE PUSH2 0x2533 DUP2 DUP8 PUSH2 0x23C6 JUMP JUMPDEST SWAP1 POP DUP2 DUP2 SUB PUSH1 0x60 DUP4 ADD MSTORE PUSH2 0x2547 DUP2 DUP7 PUSH2 0x23C6 JUMP JUMPDEST SWAP1 POP DUP2 DUP2 SUB PUSH1 0x80 DUP4 ADD MSTORE PUSH2 0x255B DUP2 DUP6 PUSH2 0x23C6 JUMP JUMPDEST SWAP1 POP DUP2 DUP2 SUB PUSH1 0xA0 DUP4 ADD MSTORE PUSH2 0x256F DUP2 DUP5 PUSH2 0x23C6 JUMP JUMPDEST SWAP1 POP SWAP8 SWAP7 POP POP POP POP POP POP POP JUMP JUMPDEST PUSH1 0x0 PUSH1 0xA0 DUP3 ADD SWAP1 POP DUP2 DUP2 SUB PUSH1 0x0 DUP4 ADD MSTORE PUSH2 0x2596 DUP2 DUP9 PUSH2 0x23C6 JUMP JUMPDEST SWAP1 POP PUSH2 0x25A5 PUSH1 0x20 DUP4 ADD DUP8 PUSH2 0x23FF JUMP JUMPDEST PUSH2 0x25B2 PUSH1 0x40 DUP4 ADD DUP7 PUSH2 0x2399 JUMP JUMPDEST PUSH2 0x25BF PUSH1 0x60 DUP4 ADD DUP6 PUSH2 0x23B7 JUMP JUMPDEST PUSH2 0x25CC PUSH1 0x80 DUP4 ADD DUP5 PUSH2 0x23FF JUMP JUMPDEST SWAP7 SWAP6 POP POP POP POP POP POP JUMP JUMPDEST PUSH1 0x0 PUSH1 0x20 DUP3 ADD SWAP1 POP PUSH2 0x25EB PUSH1 0x0 DUP4 ADD DUP5 PUSH2 0x23FF JUMP JUMPDEST SWAP3 SWAP2 POP POP JUMP JUMPDEST PUSH1 0x0 PUSH1 0x80 DUP3 ADD SWAP1 POP PUSH2 0x2606 PUSH1 0x0 DUP4 ADD DUP8 PUSH2 0x23FF JUMP JUMPDEST PUSH2 0x2613 PUSH1 0x20 DUP4 ADD DUP7 PUSH2 0x23FF JUMP JUMPDEST PUSH2 0x2620 PUSH1 0x40 DUP4 ADD DUP6 PUSH2 0x23FF JUMP JUMPDEST PUSH2 0x262D PUSH1 0x60 DUP4 ADD DUP5 PUSH2 0x23A8 JUMP JUMPDEST SWAP6 SWAP5 POP POP POP POP POP JUMP JUMPDEST PUSH1 0x0 PUSH2 0x2640 PUSH2 0x2651 JUMP JUMPDEST SWAP1 POP PUSH2 0x264C DUP3 DUP3 PUSH2 0x27A7 JUMP JUMPDEST SWAP2 SWAP1 POP JUMP JUMPDEST PUSH1 0x0 PUSH1 0x40 MLOAD SWAP1 POP SWAP1 JUMP JUMPDEST PUSH1 0x0 PUSH8 0xFFFFFFFFFFFFFFFF DUP3 GT ISZERO PUSH2 0x2676 JUMPI PUSH2 0x2675 PUSH2 0x28AE JUMP JUMPDEST JUMPDEST PUSH2 0x267F DUP3 PUSH2 0x28DD JUMP JUMPDEST SWAP1 POP PUSH1 0x20 DUP2 ADD SWAP1 POP SWAP2 SWAP1 POP JUMP JUMPDEST PUSH1 0x0 DUP2 MLOAD SWAP1 POP SWAP2 SWAP1 POP JUMP JUMPDEST PUSH1 0x0 DUP3 DUP3 MSTORE PUSH1 0x20 DUP3 ADD SWAP1 POP SWAP3 SWAP2 POP POP JUMP JUMPDEST PUSH1 0x0 PUSH2 0x26B3 DUP3 PUSH2 0x2729 JUMP JUMPDEST SWAP2 POP PUSH2 0x26BE DUP4 PUSH2 0x2729 JUMP JUMPDEST SWAP3 POP DUP3 PUSH2 0x26CE JUMPI PUSH2 0x26CD PUSH2 0x2850 JUMP JUMPDEST JUMPDEST DUP3 DUP3 DIV SWAP1 POP SWAP3 SWAP2 POP POP JUMP JUMPDEST PUSH1 0x0 PUSH2 0x26E4 DUP3 PUSH2 0x2709 JUMP JUMPDEST SWAP1 POP SWAP2 SWAP1 POP JUMP JUMPDEST PUSH1 0x0 PUSH2 0x26F6 DUP3 PUSH2 0x2709 JUMP JUMPDEST SWAP1 POP SWAP2 SWAP1 POP JUMP JUMPDEST PUSH1 0x0 DUP2 ISZERO ISZERO SWAP1 POP SWAP2 SWAP1 POP JUMP JUMPDEST PUSH1 0x0 PUSH20 0xFFFFFFFFFFFFFFFFFFFFFFFFFFFFFFFFFFFFFFFF DUP3 AND SWAP1 POP SWAP2 SWAP1 POP JUMP JUMPDEST PUSH1 0x0 DUP2 SWAP1 POP SWAP2 SWAP1 POP JUMP JUMPDEST DUP3 DUP2 DUP4 CALLDATACOPY PUSH1 0x0 DUP4 DUP4 ADD MSTORE POP POP POP JUMP JUMPDEST PUSH1 0x0 JUMPDEST DUP4 DUP2 LT ISZERO PUSH2 0x2760 JUMPI DUP1 DUP3 ADD MLOAD DUP2 DUP5 ADD MSTORE PUSH1 0x20 DUP2 ADD SWAP1 POP PUSH2 0x2745 JUMP JUMPDEST DUP4 DUP2 GT ISZERO PUSH2 0x276F JUMPI PUSH1 0x0 DUP5 DUP5 ADD MSTORE JUMPDEST POP POP POP POP JUMP JUMPDEST PUSH1 0x0 PUSH1 0x2 DUP3 DIV SWAP1 POP PUSH1 0x1 DUP3 AND DUP1 PUSH2 0x278D JUMPI PUSH1 0x7F DUP3 AND SWAP2 POP JUMPDEST PUSH1 0x20 DUP3 LT DUP2 EQ ISZERO PUSH2 0x27A1 JUMPI PUSH2 0x27A0 PUSH2 0x287F JUMP JUMPDEST JUMPDEST POP SWAP2 SWAP1 POP JUMP JUMPDEST PUSH2 0x27B0 DUP3 PUSH2 0x28DD JUMP JUMPDEST DUP2 ADD DUP2 DUP2 LT PUSH8 0xFFFFFFFFFFFFFFFF DUP3 GT OR ISZERO PUSH2 0x27CF JUMPI PUSH2 0x27CE PUSH2 0x28AE JUMP JUMPDEST JUMPDEST DUP1 PUSH1 0x40 MSTORE POP POP POP JUMP JUMPDEST PUSH1 0x0 PUSH2 0x27E3 DUP3 PUSH2 0x2729 JUMP JUMPDEST SWAP2 POP PUSH32 0xFFFFFFFFFFFFFFFFFFFFFFFFFFFFFFFFFFFFFFFFFFFFFFFFFFFFFFFFFFFFFFFF DUP3 EQ ISZERO PUSH2 0x2816 JUMPI PUSH2 0x2815 PUSH2 0x2821 JUMP JUMPDEST JUMPDEST PUSH1 0x1 DUP3 ADD SWAP1 POP SWAP2 SWAP1 POP JUMP JUMPDEST PUSH32 0x4E487B7100000000000000000000000000000000000000000000000000000000 PUSH1 0x0 MSTORE PUSH1 0x11 PUSH1 0x4 MSTORE PUSH1 0x24 PUSH1 0x0 REVERT JUMPDEST PUSH32 0x4E487B7100000000000000000000000000000000000000000000000000000000 PUSH1 0x0 MSTORE PUSH1 0x12 PUSH1 0x4 MSTORE PUSH1 0x24 PUSH1 0x0 REVERT JUMPDEST PUSH32 0x4E487B7100000000000000000000000000000000000000000000000000000000 PUSH1 0x0 MSTORE PUSH1 0x22 PUSH1 0x4 MSTORE PUSH1 0x24 PUSH1 0x0 REVERT JUMPDEST PUSH32 0x4E487B7100000000000000000000000000000000000000000000000000000000 PUSH1 0x0 MSTORE PUSH1 0x41 PUSH1 0x4 MSTORE PUSH1 0x24 PUSH1 0x0 REVERT JUMPDEST PUSH1 0x0 PUSH1 0x1F NOT PUSH1 0x1F DUP4 ADD AND SWAP1 POP SWAP2 SWAP1 POP JUMP JUMPDEST PUSH2 0x28F7 DUP2 PUSH2 0x26D9 JUMP JUMPDEST DUP2 EQ PUSH2 0x2902 JUMPI PUSH1 0x0 DUP1 REVERT JUMPDEST POP JUMP JUMPDEST PUSH2 0x290E DUP2 PUSH2 0x26EB JUMP JUMPDEST DUP2 EQ PUSH2 0x2919 JUMPI PUSH1 0x0 DUP1 REVERT JUMPDEST POP JUMP JUMPDEST PUSH2 0x2925 DUP2 PUSH2 0x2729 JUMP JUMPDEST DUP2 EQ PUSH2 0x2930 JUMPI PUSH1 0x0 DUP1 REVERT JUMPDEST POP JUMP INVALID LOG2 PUSH5 0x6970667358 0x22 SLT KECCAK256 0x21 PUSH21 0x67D8C8F8A5D92F30F169AA34F339BDAC82D0C3ED4B 0x2F 0xD6 MSIZE SIGNEXTEND DUP3 DIFFICULTY PUSH16 0x5E2164736F6C63430008030033000000 "
    },
    "gasEstimates": {
      "creation": {
        "codeDepositCost": "2120200",
        "executionCost": "infinite",
        "totalCost": "infinite"
      },
      "external": {
        "approvalRequest(uint256)": "infinite",
        "createRequest(string,uint256,address)": "infinite",
        "detailCampaign(address)": "infinite",
        "donate()": "43935",
        "donater(address)": "1656",
        "donaterCount()": "1151",
        "finaliseRequest(uint256)": "infinite",
        "getDetail(address)": "infinite",
        "getOrganiser(address)": "infinite",
        "getReference(address)": "infinite",
        "getSummary()": "infinite",
        "infoOrganiser(address)": "infinite",
        "infoReference(address)": "infinite",
        "minimumDonation()": "1152",
        "organiser()": "1278",
        "requests(uint256)": "infinite",
        "setDetail(string,string)": "infinite",
        "setOrganiser(string,string,string,string,string,string)": "infinite",
        "setReference(string,string,string,string,string)": "infinite",
        "setTargetdonation(uint256)": "20508",
        "targetDonation()": "1153"
      }
    },
    "methodIdentifiers": {
      "approvalRequest(uint256)": "9eedaf2e",
      "createRequest(string,uint256,address)": "8a9cfd55",
      "detailCampaign(address)": "4ad31cd7",
      "donate()": "ed88c68e",
      "donater(address)": "be4f6e57",
      "donaterCount()": "c216c95c",
      "finaliseRequest(uint256)": "e7b668b4",
      "getDetail(address)": "a746ee2e",
      "getOrganiser(address)": "a4f46975",
      "getReference(address)": "41d57616",
      "getSummary()": "4051ddac",
      "infoOrganiser(address)": "c4ed0776",
      "infoReference(address)": "1d7ae857",
      "minimumDonation()": "96d8f4f3",
      "organiser()": "7e537486",
      "requests(uint256)": "81d12c58",
      "setDetail(string,string)": "25259983",
      "setOrganiser(string,string,string,string,string,string)": "4eebdc50",
      "setReference(string,string,string,string,string)": "c7137e5c",
      "setTargetdonation(uint256)": "d2ef23ad",
      "targetDonation()": "08a87b79"
    }
  },
  "storageLayout": {
    "storage": [
      {
        "astId": 42,
        "contract": "Campaign.sol:Campaign",
        "label": "organiser",
        "offset": 0,
        "slot": "0",
        "type": "t_address"
      },
      {
        "astId": 46,
        "contract": "Campaign.sol:Campaign",
        "label": "donater",
        "offset": 0,
        "slot": "1",
        "type": "t_mapping(t_address,t_bool)"
      },
      {
        "astId": 48,
        "contract": "Campaign.sol:Campaign",
        "label": "minimumDonation",
        "offset": 0,
        "slot": "2",
        "type": "t_uint256"
      },
      {
        "astId": 50,
        "contract": "Campaign.sol:Campaign",
        "label": "targetDonation",
        "offset": 0,
        "slot": "3",
        "type": "t_uint256"
      },
      {
        "astId": 52,
        "contract": "Campaign.sol:Campaign",
        "label": "donaterCount",
        "offset": 0,
        "slot": "4",
        "type": "t_uint256"
      },
      {
        "astId": 57,
        "contract": "Campaign.sol:Campaign",
        "label": "infoOrganiser",
        "offset": 0,
        "slot": "5",
        "type": "t_mapping(t_address,t_struct(Infoorganiser)80_storage)"
      },
      {
        "astId": 62,
        "contract": "Campaign.sol:Campaign",
        "label": "infoReference",
        "offset": 0,
        "slot": "6",
        "type": "t_mapping(t_address,t_struct(Inforeference)91_storage)"
      },
      {
        "astId": 67,
        "contract": "Campaign.sol:Campaign",
        "label": "detailCampaign",
        "offset": 0,
        "slot": "7",
        "type": "t_mapping(t_address,t_struct(Detail)96_storage)"
      },
      {
        "astId": 116,
        "contract": "Campaign.sol:Campaign",
        "label": "requests",
        "offset": 0,
        "slot": "8",
        "type": "t_mapping(t_uint256,t_struct(Request)111_storage)"
      },
      {
        "astId": 119,
        "contract": "Campaign.sol:Campaign",
        "label": "requestCount",
        "offset": 0,
        "slot": "9",
        "type": "t_uint256"
      }
    ],
    "types": {
      "t_address": {
        "encoding": "inplace",
        "label": "address",
        "numberOfBytes": "20"
      },
      "t_address_payable": {
        "encoding": "inplace",
        "label": "address payable",
        "numberOfBytes": "20"
      },
      "t_bool": {
        "encoding": "inplace",
        "label": "bool",
        "numberOfBytes": "1"
      },
      "t_mapping(t_address,t_bool)": {
        "encoding": "mapping",
        "key": "t_address",
        "label": "mapping(address => bool)",
        "numberOfBytes": "32",
        "value": "t_bool"
      },
      "t_mapping(t_address,t_struct(Detail)96_storage)": {
        "encoding": "mapping",
        "key": "t_address",
        "label": "mapping(address => struct Campaign.Detail)",
        "numberOfBytes": "32",
        "value": "t_struct(Detail)96_storage"
      },
      "t_mapping(t_address,t_struct(Infoorganiser)80_storage)": {
        "encoding": "mapping",
        "key": "t_address",
        "label": "mapping(address => struct Campaign.Infoorganiser)",
        "numberOfBytes": "32",
        "value": "t_struct(Infoorganiser)80_storage"
      },
      "t_mapping(t_address,t_struct(Inforeference)91_storage)": {
        "encoding": "mapping",
        "key": "t_address",
        "label": "mapping(address => struct Campaign.Inforeference)",
        "numberOfBytes": "32",
        "value": "t_struct(Inforeference)91_storage"
      },
      "t_mapping(t_uint256,t_struct(Request)111_storage)": {
        "encoding": "mapping",
        "key": "t_uint256",
        "label": "mapping(uint256 => struct Campaign.Request)",
        "numberOfBytes": "32",
        "value": "t_struct(Request)111_storage"
      },
      "t_string_storage": {
        "encoding": "bytes",
        "label": "string",
        "numberOfBytes": "32"
      },
      "t_struct(Detail)96_storage": {
        "encoding": "inplace",
        "label": "struct Campaign.Detail",
        "members": [
          {
            "astId": 93,
            "contract": "Campaign.sol:Campaign",
            "label": "campaignName",
            "offset": 0,
            "slot": "0",
            "type": "t_string_storage"
          },
          {
            "astId": 95,
            "contract": "Campaign.sol:Campaign",
            "label": "summaryCampaign",
            "offset": 0,
            "slot": "1",
            "type": "t_string_storage"
          }
        ],
        "numberOfBytes": "64"
      },
      "t_struct(Infoorganiser)80_storage": {
        "encoding": "inplace",
        "label": "struct Campaign.Infoorganiser",
        "members": [
          {
            "astId": 69,
            "contract": "Campaign.sol:Campaign",
            "label": "name",
            "offset": 0,
            "slot": "0",
            "type": "t_string_storage"
          },
          {
            "astId": 71,
            "contract": "Campaign.sol:Campaign",
            "label": "agencyName",
            "offset": 0,
            "slot": "1",
            "type": "t_string_storage"
          },
          {
            "astId": 73,
            "contract": "Campaign.sol:Campaign",
            "label": "phoneNumbers",
            "offset": 0,
            "slot": "2",
            "type": "t_string_storage"
          },
          {
            "astId": 75,
            "contract": "Campaign.sol:Campaign",
            "label": "addr",
            "offset": 0,
            "slot": "3",
            "type": "t_string_storage"
          },
          {
            "astId": 77,
            "contract": "Campaign.sol:Campaign",
            "label": "email",
            "offset": 0,
            "slot": "4",
            "type": "t_string_storage"
          },
          {
            "astId": 79,
            "contract": "Campaign.sol:Campaign",
            "label": "linkSocialmedia",
            "offset": 0,
            "slot": "5",
            "type": "t_string_storage"
          }
        ],
        "numberOfBytes": "192"
      },
      "t_struct(Inforeference)91_storage": {
        "encoding": "inplace",
        "label": "struct Campaign.Inforeference",
        "members": [
          {
            "astId": 82,
            "contract": "Campaign.sol:Campaign",
            "label": "name",
            "offset": 0,
            "slot": "0",
            "type": "t_string_storage"
          },
          {
            "astId": 84,
            "contract": "Campaign.sol:Campaign",
            "label": "phoneNumbers",
            "offset": 0,
            "slot": "1",
            "type": "t_string_storage"
          },
          {
            "astId": 86,
            "contract": "Campaign.sol:Campaign",
            "label": "addr",
            "offset": 0,
            "slot": "2",
            "type": "t_string_storage"
          },
          {
            "astId": 88,
            "contract": "Campaign.sol:Campaign",
            "label": "email",
            "offset": 0,
            "slot": "3",
            "type": "t_string_storage"
          },
          {
            "astId": 90,
            "contract": "Campaign.sol:Campaign",
            "label": "linkSocialmedia",
            "offset": 0,
            "slot": "4",
            "type": "t_string_storage"
          }
        ],
        "numberOfBytes": "160"
      },
      "t_struct(Request)111_storage": {
        "encoding": "inplace",
        "label": "struct Campaign.Request",
        "members": [
          {
            "astId": 98,
            "contract": "Campaign.sol:Campaign",
            "label": "description",
            "offset": 0,
            "slot": "0",
            "type": "t_string_storage"
          },
          {
            "astId": 100,
            "contract": "Campaign.sol:Campaign",
            "label": "value",
            "offset": 0,
            "slot": "1",
            "type": "t_uint256"
          },
          {
            "astId": 102,
            "contract": "Campaign.sol:Campaign",
            "label": "recipient",
            "offset": 0,
            "slot": "2",
            "type": "t_address_payable"
          },
          {
            "astId": 104,
            "contract": "Campaign.sol:Campaign",
            "label": "complete",
            "offset": 20,
            "slot": "2",
            "type": "t_bool"
          },
          {
            "astId": 106,
            "contract": "Campaign.sol:Campaign",
            "label": "approvalCount",
            "offset": 0,
            "slot": "3",
            "type": "t_uint256"
          },
          {
            "astId": 110,
            "contract": "Campaign.sol:Campaign",
            "label": "approvers",
            "offset": 0,
            "slot": "4",
            "type": "t_mapping(t_address,t_bool)"
          }
        ],
        "numberOfBytes": "160"
      },
      "t_uint256": {
        "encoding": "inplace",
        "label": "uint256",
        "numberOfBytes": "32"
      }
    }
  },
  "userdoc": {
    "kind": "user",
    "methods": {},
    "version": 1
  }
}